{"contracts/OmnaccountModule.sol":{"OmnaccountModule":{"abi":[{"inputs":[{"internalType":"address","name":"entrypoint","type":"address"},{"internalType":"address","name":"spokePool","type":"address"}],"stateMutability":"nonpayable","type":"constructor"},{"inputs":[],"name":"InvalidBridge","type":"error"},{"inputs":[],"name":"InvalidEntryPoint","type":"error"},{"inputs":[],"name":"ACROSS_BRIDGE","outputs":[{"internalType":"address","name":"","type":"address"}],"stateMutability":"view","type":"function"},{"inputs":[],"name":"SUPPORTED_ENTRYPOINT","outputs":[{"internalType":"address","name":"","type":"address"}],"stateMutability":"view","type":"function"},{"inputs":[],"name":"domainSeparator","outputs":[{"internalType":"bytes32","name":"domainSeparatorHash","type":"bytes32"}],"stateMutability":"view","type":"function"},{"inputs":[{"internalType":"contract Safe","name":"safe","type":"address"},{"internalType":"bytes","name":"message","type":"bytes"}],"name":"encodeMessageDataForSafe","outputs":[{"internalType":"bytes","name":"","type":"bytes"}],"stateMutability":"view","type":"function"},{"inputs":[{"internalType":"address","name":"to","type":"address"},{"internalType":"uint256","name":"value","type":"uint256"},{"internalType":"bytes","name":"data","type":"bytes"},{"internalType":"uint8","name":"operation","type":"uint8"}],"name":"executeUserOp","outputs":[],"stateMutability":"nonpayable","type":"function"},{"inputs":[{"internalType":"address","name":"to","type":"address"},{"internalType":"uint256","name":"value","type":"uint256"},{"internalType":"bytes","name":"data","type":"bytes"},{"internalType":"uint8","name":"operation","type":"uint8"}],"name":"executeUserOpWithErrorString","outputs":[],"stateMutability":"nonpayable","type":"function"},{"inputs":[{"internalType":"bytes","name":"message","type":"bytes"}],"name":"getMessageHash","outputs":[{"internalType":"bytes32","name":"","type":"bytes32"}],"stateMutability":"view","type":"function"},{"inputs":[{"internalType":"contract Safe","name":"safe","type":"address"},{"internalType":"bytes","name":"message","type":"bytes"}],"name":"getMessageHashForSafe","outputs":[{"internalType":"bytes32","name":"","type":"bytes32"}],"stateMutability":"view","type":"function"},{"inputs":[],"name":"getModules","outputs":[{"internalType":"address[]","name":"","type":"address[]"}],"stateMutability":"view","type":"function"},{"inputs":[{"components":[{"internalType":"address","name":"sender","type":"address"},{"internalType":"uint256","name":"nonce","type":"uint256"},{"internalType":"bytes","name":"initCode","type":"bytes"},{"internalType":"bytes","name":"callData","type":"bytes"},{"internalType":"uint256","name":"callGasLimit","type":"uint256"},{"internalType":"uint256","name":"verificationGasLimit","type":"uint256"},{"internalType":"uint256","name":"preVerificationGas","type":"uint256"},{"internalType":"uint256","name":"maxFeePerGas","type":"uint256"},{"internalType":"uint256","name":"maxPriorityFeePerGas","type":"uint256"},{"internalType":"bytes","name":"paymasterAndData","type":"bytes"},{"internalType":"bytes","name":"signature","type":"bytes"}],"internalType":"struct UserOperation","name":"userOp","type":"tuple"}],"name":"getOperationHash","outputs":[{"internalType":"bytes32","name":"operationHash","type":"bytes32"}],"stateMutability":"view","type":"function"},{"inputs":[{"internalType":"address","name":"tokenSent","type":"address"},{"internalType":"uint256","name":"amount","type":"uint256"},{"internalType":"bool","name":"fillCompleted","type":"bool"},{"internalType":"address","name":"relayer","type":"address"},{"internalType":"bytes","name":"message","type":"bytes"}],"name":"handleAcrossMessage","outputs":[],"stateMutability":"nonpayable","type":"function"},{"inputs":[{"internalType":"address","name":"tokenSent","type":"address"},{"internalType":"uint256","name":"amount","type":"uint256"},{"internalType":"address","name":"relayer","type":"address"},{"internalType":"bytes","name":"message","type":"bytes"}],"name":"handleV3AcrossMessage","outputs":[],"stateMutability":"nonpayable","type":"function"},{"inputs":[{"internalType":"bytes32","name":"_dataHash","type":"bytes32"},{"internalType":"bytes","name":"_signature","type":"bytes"}],"name":"isValidSignature","outputs":[{"internalType":"bytes4","name":"","type":"bytes4"}],"stateMutability":"view","type":"function"},{"inputs":[{"internalType":"bytes","name":"_data","type":"bytes"},{"internalType":"bytes","name":"_signature","type":"bytes"}],"name":"isValidSignature","outputs":[{"internalType":"bytes4","name":"","type":"bytes4"}],"stateMutability":"view","type":"function"},{"inputs":[{"internalType":"address","name":"","type":"address"},{"internalType":"address","name":"","type":"address"},{"internalType":"uint256[]","name":"","type":"uint256[]"},{"internalType":"uint256[]","name":"","type":"uint256[]"},{"internalType":"bytes","name":"","type":"bytes"}],"name":"onERC1155BatchReceived","outputs":[{"internalType":"bytes4","name":"","type":"bytes4"}],"stateMutability":"pure","type":"function"},{"inputs":[{"internalType":"address","name":"","type":"address"},{"internalType":"address","name":"","type":"address"},{"internalType":"uint256","name":"","type":"uint256"},{"internalType":"uint256","name":"","type":"uint256"},{"internalType":"bytes","name":"","type":"bytes"}],"name":"onERC1155Received","outputs":[{"internalType":"bytes4","name":"","type":"bytes4"}],"stateMutability":"pure","type":"function"},{"inputs":[{"internalType":"address","name":"","type":"address"},{"internalType":"address","name":"","type":"address"},{"internalType":"uint256","name":"","type":"uint256"},{"internalType":"bytes","name":"","type":"bytes"}],"name":"onERC721Received","outputs":[{"internalType":"bytes4","name":"","type":"bytes4"}],"stateMutability":"pure","type":"function"},{"inputs":[{"internalType":"address","name":"targetContract","type":"address"},{"internalType":"bytes","name":"calldataPayload","type":"bytes"}],"name":"simulate","outputs":[{"internalType":"bytes","name":"response","type":"bytes"}],"stateMutability":"nonpayable","type":"function"},{"inputs":[{"internalType":"bytes4","name":"interfaceId","type":"bytes4"}],"name":"supportsInterface","outputs":[{"internalType":"bool","name":"","type":"bool"}],"stateMutability":"view","type":"function"},{"inputs":[{"internalType":"address","name":"","type":"address"},{"internalType":"address","name":"","type":"address"},{"internalType":"address","name":"","type":"address"},{"internalType":"uint256","name":"","type":"uint256"},{"internalType":"bytes","name":"","type":"bytes"},{"internalType":"bytes","name":"","type":"bytes"}],"name":"tokensReceived","outputs":[],"stateMutability":"pure","type":"function"},{"inputs":[{"components":[{"internalType":"address","name":"sender","type":"address"},{"internalType":"uint256","name":"nonce","type":"uint256"},{"internalType":"bytes","name":"initCode","type":"bytes"},{"internalType":"bytes","name":"callData","type":"bytes"},{"internalType":"uint256","name":"callGasLimit","type":"uint256"},{"internalType":"uint256","name":"verificationGasLimit","type":"uint256"},{"internalType":"uint256","name":"preVerificationGas","type":"uint256"},{"internalType":"uint256","name":"maxFeePerGas","type":"uint256"},{"internalType":"uint256","name":"maxPriorityFeePerGas","type":"uint256"},{"internalType":"bytes","name":"paymasterAndData","type":"bytes"},{"internalType":"bytes","name":"signature","type":"bytes"}],"internalType":"struct UserOperation","name":"userOp","type":"tuple"},{"internalType":"bytes32","name":"","type":"bytes32"},{"internalType":"uint256","name":"missingAccountFunds","type":"uint256"}],"name":"validateUserOp","outputs":[{"internalType":"uint256","name":"validationData","type":"uint256"}],"stateMutability":"nonpayable","type":"function"}],"devdoc":{"author":"KDon.eth","kind":"dev","methods":{"domainSeparator()":{"returns":{"domainSeparatorHash":"The EIP-712 domain separator hash for this contract."}},"encodeMessageDataForSafe(address,bytes)":{"details":"Returns the pre-image of the message hash (see getMessageHashForSafe).","params":{"message":"Message that should be encoded.","safe":"Safe to which the message is targeted."},"returns":{"_0":"Encoded message."}},"executeUserOp(address,uint256,bytes,uint8)":{"params":{"data":"Data payload of the user operation.","operation":"Operation type of the user operation.","to":"Destination address of the user operation.","value":"Ether value of the user operation."}},"executeUserOpWithErrorString(address,uint256,bytes,uint8)":{"params":{"data":"Data payload of the user operation.","operation":"Operation type of the user operation.","to":"Destination address of the user operation.","value":"Ether value of the user operation."}},"getMessageHash(bytes)":{"details":"Returns the hash of a message to be signed by owners.","params":{"message":"Raw message bytes."},"returns":{"_0":"Message hash."}},"getMessageHashForSafe(address,bytes)":{"details":"Returns hash of a message that can be signed by owners.","params":{"message":"Message that should be hashed.","safe":"Safe to which the message is targeted."},"returns":{"_0":"Message hash."}},"getModules()":{"details":"Returns array of first 10 modules.","returns":{"_0":"Array of modules."}},"getOperationHash((address,uint256,bytes,bytes,uint256,uint256,uint256,uint256,uint256,bytes,bytes))":{"details":"The Safe operation timestamps are pre-pended to the signature bytes as `abi.encodePacked(validAfter, validUntil, signatures)`.","params":{"userOp":"The ERC-4337 user operation."},"returns":{"operationHash":"Operation hash."}},"isValidSignature(bytes,bytes)":{"details":"Implementation of ISignatureValidator (see `interfaces/ISignatureValidator.sol`)","params":{"_data":"Arbitrary length data signed on the behalf of address(msg.sender).","_signature":"Signature byte array associated with _data."},"returns":{"_0":"The EIP-1271 magic value."}},"isValidSignature(bytes32,bytes)":{"params":{"_dataHash":"Hash of the data signed on the behalf of address(msg.sender)","_signature":"Signature byte array associated with _dataHash"},"returns":{"_0":"Updated EIP1271 magic value if signature is valid, otherwise 0x0"}},"simulate(address,bytes)":{"details":"Performs a delegatecall on a targetContract in the context of self. Internally reverts execution to avoid side effects (making it static). Catches revert and returns encoded result as bytes.Inspired by https://github.com/gnosis/util-contracts/blob/bb5fe5fb5df6d8400998094fb1b32a178a47c3a1/contracts/StorageAccessible.sol","params":{"calldataPayload":"Calldata that should be sent to the target contract (encoded method name and arguments).","targetContract":"Address of the contract containing the code to execute."}},"supportsInterface(bytes4)":{"params":{"interfaceId":"Id of the interface."},"returns":{"_0":"if the interface is supported."}},"validateUserOp((address,uint256,bytes,bytes,uint256,uint256,uint256,uint256,uint256,bytes,bytes),bytes32,uint256)":{"details":"Must validate caller is the entryPoint.      Must validate the signature and nonce","params":{"missingAccountFunds":"missing funds on the account's deposit in the entrypoint.      This is the minimum amount to transfer to the sender(entryPoint) to be able to make the call.      The excess is left as a deposit in the entrypoint, for future calls.      can be withdrawn anytime using \"entryPoint.withdrawTo()\"      In case there is a paymaster in the request (or the current deposit is high enough), this value will be zero.","userOp":"the operation that is about to be executed.","userOpHash":"hash of the user's request data. can be used as the basis for signature."},"returns":{"validationData":"packaged ValidationData structure. use `_packValidationData` and `_unpackValidationData` to encode and decode      <20-byte> sigAuthorizer - 0 for valid signature, 1 to mark signature failure,         otherwise, an address of an \"authorizer\" contract.      <6-byte> validUntil - last timestamp this operation is valid. 0 for \"indefinite\"      <6-byte> validAfter - first timestamp this operation is valid      If an account doesn't use time-range, it is enough to return SIG_VALIDATION_FAILED value (1) for signature failure.      Note that the validation code cannot use block.timestamp (or block.number) directly."}}},"title":"OmnaccountModule","version":1},"evm":{"bytecode":{"linkReferences":{},"object":"60c06040523480156200001157600080fd5b5060405162001cbb38038062001cbb8339810160408190526200003491620000c1565b8082806001600160a01b0381166200005f57604051632039d3c960e01b815260040160405180910390fd5b6001600160a01b03908116608052821690506200008f57604051635b43e1a760e01b815260040160405180910390fd5b6001600160a01b031660a05250620000f99050565b80516001600160a01b0381168114620000bc57600080fd5b919050565b60008060408385031215620000d557600080fd5b620000e083620000a4565b9150620000f060208401620000a4565b90509250929050565b60805160a051611b806200013b6000396000818161027301526103e60152600081816101b6015281816108ea01528181610c6f0152610ef70152611b806000f3fe608060405234801561001057600080fd5b50600436106101365760003560e01c80633a5be8cb116100b8578063b2494df31161007c578063b2494df3146102f4578063b25f377614610309578063bc197c811461031c578063bd61951d1461033e578063f23a6e6114610351578063f698da251461037157600080fd5b80633a5be8cb146102955780633a871cdd146102a8578063541d63c8146102bb5780636ac24784146102ce5780637bb37428146102e157600080fd5b8063150b7a02116100ff578063150b7a02146101f05780631626ba7e1461022857806320c13b0b1461023b578063230316401461024e5780632f3ab8041461026e57600080fd5b806223de291461013b57806301ffc9a7146101555780630a1028c41461017d5780630ea1f9381461019e578063137e051e146101b1575b600080fd5b610153610149366004611017565b5050505050505050565b005b6101686101633660046110dd565b610379565b60405190151581526020015b60405180910390f35b61019061018b3660046111bd565b6103cb565b604051908152602001610174565b6101536101ac366004611207565b6103d7565b6101d87f000000000000000000000000000000000000000000000000000000000000000081565b6040516001600160a01b039091168152602001610174565b61020f6101fe366004611285565b630a85bd0160e11b95945050505050565b6040516001600160e01b03199091168152602001610174565b61020f6102363660046112f7565b61043a565b61020f610249366004611342565b6104f8565b61026161025c3660046113a5565b610643565b604051610174919061143a565b6101d87f000000000000000000000000000000000000000000000000000000000000000081565b6101536102a336600461144d565b610755565b6101906102b63660046114d1565b610789565b6101536102c936600461151e565b610985565b6101906102dc3660046113a5565b610a41565b6101536102ef36600461151e565b610a5c565b6102fc610b35565b604051610174919061158f565b6101906103173660046115dc565b610ba8565b61020f61032a366004611654565b63bc197c8160e01b98975050505050505050565b61026161034c3660046116f1565b610bca565b61020f61035f36600461172c565b63f23a6e6160e01b9695505050505050565b610190610c14565b60006001600160e01b03198216630271189760e51b14806103aa57506001600160e01b03198216630a85bd0160e11b145b806103c557506001600160e01b031982166301ffc9a760e01b145b92915050565b60006103c53383610a41565b61041636601319013560601c5b7f00000000000000000000000000000000000000000000000000000000000000006001600160a01b0390811691161490565b61043357604051635b43e1a760e01b815260040160405180910390fd5b5050505050565b60408051602080820186905282518083039091018152818301928390526320c13b0b60e01b9092526000913391839183916320c13b0b9161048191899089906044016117d0565b602060405180830381865afa15801561049e573d6000803e3d6000fd5b505050506040513d601f19601f820116820180604052508101906104c29190611800565b90506001600160e01b031981166320c13b0b60e01b146104e35760006104ec565b630b135d3f60e11b5b925050505b9392505050565b600033816105068286610643565b805160208201208551919250906000036105d057604051635ae6bd3760e01b8152600481018290526001600160a01b03841690635ae6bd3790602401602060405180830381865afa15801561055f573d6000803e3d6000fd5b505050506040513d601f19601f82011682018060405250810190610583919061181d565b6000036105cb5760405162461bcd60e51b815260206004820152601160248201527012185cda081b9bdd08185c1c1c9bdd9959607a1b60448201526064015b60405180910390fd5b610631565b60405163934f3a1160e01b81526001600160a01b0384169063934f3a119061060090849086908a90600401611836565b60006040518083038186803b15801561061857600080fd5b505afa15801561062c573d6000803e3d6000fd5b505050505b506320c13b0b60e01b95945050505050565b606060007f60b3cbf8b4a223d68d641b3b6ddf9a298e7f33710cf3d3a9d1146b5a6150fbca60001b838051906020012060405160200161068d929190918252602082015260400190565b604051602081830303815290604052805190602001209050601960f81b600160f81b856001600160a01b031663f698da256040518163ffffffff1660e01b8152600401602060405180830381865afa1580156106ed573d6000803e3d6000fd5b505050506040513d601f19601f82011682018060405250810190610711919061181d565b6040516001600160f81b0319938416602082015292909116602183015260228201526042810182905260620160405160208183030381529060405291505092915050565b61076636601319013560601c6103e4565b61078357604051635b43e1a760e01b815260040160405180910390fd5b50505050565b600061079c36601319013560601c610c6d565b6107b957604051632039d3c960e01b815260040160405180910390fd5b60006107c86020860186611861565b90506001600160a01b03811633146108135760405162461bcd60e51b815260206004820152600e60248201526d24b73b30b634b21031b0b63632b960911b60448201526064016105c2565b610820606086018661187e565b610829916118c4565b6001600160e01b031916630f766e8560e31b148061086c575061084f606086018661187e565b610858916118c4565b6001600160e01b031916630a83ac7960e31b145b6108c25760405162461bcd60e51b815260206004820152602160248201527f556e737570706f7274656420657865637574696f6e2066756e6374696f6e20696044820152601960fa1b60648201526084016105c2565b6108cb85610c9f565b9150821561097d5760405163468721a760e01b81526001600160a01b037f0000000000000000000000000000000000000000000000000000000000000000811660048301526024820185905260806044830152600060848301819052606483015282169063468721a79060a4016020604051808303816000875af1158015610957573d6000803e3d6000fd5b505050506040513d601f19601f8201168201806040525081019061097b91906118f4565b505b509392505050565b61099636601319013560601c610c6d565b6109b357604051632039d3c960e01b815260040160405180910390fd5b604051635229073f60e01b815260009081903390635229073f906109e1908990899089908990600401611911565b6000604051808303816000875af1158015610a00573d6000803e3d6000fd5b505050506040513d6000823e601f3d908101601f19168201604052610a28919081019061194c565b9150915081610a3957805160208201fd5b505050505050565b6000610a4d8383610643565b80519060200120905092915050565b610a6d36601319013560601c610c6d565b610a8a57604051632039d3c960e01b815260040160405180910390fd5b60405163468721a760e01b8152339063468721a790610ab3908790879087908790600401611911565b6020604051808303816000875af1158015610ad2573d6000803e3d6000fd5b505050506040513d601f19601f82011682018060405250810190610af691906118f4565b6107835760405162461bcd60e51b815260206004820152601060248201526f115e1958dd5d1a5bdb8819985a5b195960821b60448201526064016105c2565b604051636617c22960e11b815260016004820152600a60248201526060903390600090829063cc2f845290604401600060405180830381865afa158015610b80573d6000803e3d6000fd5b505050506040513d6000823e601f3d908101601f1916820160405261097d91908101906119e8565b600080610bb483610d5c565b5050505090508080519060200120915050919050565b606060405163b4faba0960e01b8152600436036004808301376020600036836000335af1505060203d036040519150808201604052806020833e506000516104f157805160208201fd5b604080517f47e79534a245952e8b16893a336b85a3d9ea9fa8c573f3d803afb92a794692186020820152469181019190915230606082015260009060800160405160208183030381529060405280519060200120905090565b7f00000000000000000000000000000000000000000000000000000000000000006001600160a01b0390811691161490565b600080600080366000610cb187610d5c565b939850919650945092509050610cca6020880188611861565b8551602087012060405163934f3a1160e01b81526001600160a01b03929092169163934f3a1191610d0391899087908790600401611aab565b60006040518083038186803b158015610d1b57600080fd5b505afa925050508015610d2c575060015b610d4357610d3c60018486610f7f565b9550610d52565b610d4f60008486610f7f565b95505b5050505050919050565b606060008036818181610d7361014089018961187e565b9092509050610d86600660008385611ae2565b610d8f91611b0c565b60d01c9550610da2600c60068385611ae2565b610dab91611b0c565b60d01c9450610dbd81600c8185611ae2565b9350935050506000604051806101c001604052807f84aa190356f56b8c87825f54884392a9907c23ee0f8e1ea86336b763faf021bd60001b8152602001886000016020810190610e0d9190611861565b6001600160a01b0316815260200188602001358152602001888060400190610e35919061187e565b604051610e43929190611b3a565b6040519081900390208152602001610e5e60608a018a61187e565b604051610e6c929190611b3a565b60405180910390208152602001886080013581526020018860a0013581526020018860c0013581526020018860e001358152602001886101000135815260200188806101200190610ebd919061187e565b604051610ecb929190611b3a565b6040805191829003909120825265ffffffffffff80891660208401528716908201526001600160a01b037f0000000000000000000000000000000000000000000000000000000000000000166060909101526101c08120909150601960f81b600160f81b610f37610c14565b6040516001600160f81b031993841660208201529290911660218301526022820152604281018290526062016040516020818303038152906040529650505091939590929450565b600060d08265ffffffffffff16901b60a08465ffffffffffff16901b85610fa7576000610faa565b60015b60ff161717949350505050565b6001600160a01b0381168114610fcc57600080fd5b50565b60008083601f840112610fe157600080fd5b5081356001600160401b03811115610ff857600080fd5b60208301915083602082850101111561101057600080fd5b9250929050565b60008060008060008060008060c0898b03121561103357600080fd5b883561103e81610fb7565b9750602089013561104e81610fb7565b9650604089013561105e81610fb7565b95506060890135945060808901356001600160401b038082111561108157600080fd5b61108d8c838d01610fcf565b909650945060a08b01359150808211156110a657600080fd5b506110b38b828c01610fcf565b999c989b5096995094979396929594505050565b6001600160e01b031981168114610fcc57600080fd5b6000602082840312156110ef57600080fd5b81356104f1816110c7565b634e487b7160e01b600052604160045260246000fd5b604051601f8201601f191681016001600160401b0381118282101715611138576111386110fa565b604052919050565b60006001600160401b03821115611159576111596110fa565b50601f01601f191660200190565b600082601f83011261117857600080fd5b813561118b61118682611140565b611110565b8181528460208386010111156111a057600080fd5b816020850160208301376000918101602001919091529392505050565b6000602082840312156111cf57600080fd5b81356001600160401b038111156111e557600080fd5b6111f184828501611167565b949350505050565b8015158114610fcc57600080fd5b600080600080600060a0868803121561121f57600080fd5b853561122a81610fb7565b9450602086013593506040860135611241816111f9565b9250606086013561125181610fb7565b915060808601356001600160401b0381111561126c57600080fd5b61127888828901611167565b9150509295509295909350565b60008060008060006080868803121561129d57600080fd5b85356112a881610fb7565b945060208601356112b881610fb7565b93506040860135925060608601356001600160401b038111156112da57600080fd5b6112e688828901610fcf565b969995985093965092949392505050565b60008060006040848603121561130c57600080fd5b8335925060208401356001600160401b0381111561132957600080fd5b61133586828701610fcf565b9497909650939450505050565b6000806040838503121561135557600080fd5b82356001600160401b038082111561136c57600080fd5b61137886838701611167565b9350602085013591508082111561138e57600080fd5b5061139b85828601611167565b9150509250929050565b600080604083850312156113b857600080fd5b82356113c381610fb7565b915060208301356001600160401b038111156113de57600080fd5b61139b85828601611167565b60005b838110156114055781810151838201526020016113ed565b50506000910152565b600081518084526114268160208601602086016113ea565b601f01601f19169290920160200192915050565b6020815260006104f1602083018461140e565b6000806000806080858703121561146357600080fd5b843561146e81610fb7565b935060208501359250604085013561148581610fb7565b915060608501356001600160401b038111156114a057600080fd5b6114ac87828801611167565b91505092959194509250565b600061016082840312156114cb57600080fd5b50919050565b6000806000606084860312156114e657600080fd5b83356001600160401b038111156114fc57600080fd5b611508868287016114b8565b9660208601359650604090950135949350505050565b6000806000806080858703121561153457600080fd5b843561153f81610fb7565b93506020850135925060408501356001600160401b0381111561156157600080fd5b61156d87828801611167565b925050606085013560ff8116811461158457600080fd5b939692955090935050565b6020808252825182820181905260009190848201906040850190845b818110156115d05783516001600160a01b0316835292840192918401916001016115ab565b50909695505050505050565b6000602082840312156115ee57600080fd5b81356001600160401b0381111561160457600080fd5b6111f1848285016114b8565b60008083601f84011261162257600080fd5b5081356001600160401b0381111561163957600080fd5b6020830191508360208260051b850101111561101057600080fd5b60008060008060008060008060a0898b03121561167057600080fd5b883561167b81610fb7565b9750602089013561168b81610fb7565b965060408901356001600160401b03808211156116a757600080fd5b6116b38c838d01611610565b909850965060608b01359150808211156116cc57600080fd5b6116d88c838d01611610565b909650945060808b01359150808211156110a657600080fd5b60008060006040848603121561170657600080fd5b833561171181610fb7565b925060208401356001600160401b0381111561132957600080fd5b60008060008060008060a0878903121561174557600080fd5b863561175081610fb7565b9550602087013561176081610fb7565b9450604087013593506060870135925060808701356001600160401b0381111561178957600080fd5b61179589828a01610fcf565b979a9699509497509295939492505050565b81835281816020850137506000828201602090810191909152601f909101601f19169091010190565b6040815260006117e3604083018661140e565b82810360208401526117f68185876117a7565b9695505050505050565b60006020828403121561181257600080fd5b81516104f1816110c7565b60006020828403121561182f57600080fd5b5051919050565b83815260606020820152600061184f606083018561140e565b82810360408401526117f6818561140e565b60006020828403121561187357600080fd5b81356104f181610fb7565b6000808335601e1984360301811261189557600080fd5b8301803591506001600160401b038211156118af57600080fd5b60200191503681900382131561101057600080fd5b6001600160e01b031981358181169160048510156118ec5780818660040360031b1b83161692505b505092915050565b60006020828403121561190657600080fd5b81516104f1816111f9565b60018060a01b0385168152836020820152608060408201526000611938608083018561140e565b905060ff8316606083015295945050505050565b6000806040838503121561195f57600080fd5b825161196a816111f9565b60208401519092506001600160401b0381111561198657600080fd5b8301601f8101851361199757600080fd5b80516119a561118682611140565b8181528660208385010111156119ba57600080fd5b6119cb8260208301602086016113ea565b8093505050509250929050565b80516119e381610fb7565b919050565b600080604083850312156119fb57600080fd5b82516001600160401b0380821115611a1257600080fd5b818501915085601f830112611a2657600080fd5b8151602082821115611a3a57611a3a6110fa565b8160051b9250611a4b818401611110565b8281529284018101928181019089851115611a6557600080fd5b948201945b84861015611a8f5785519350611a7f84610fb7565b8382529482019490820190611a6a565b9650611a9e90508782016119d8565b9450505050509250929050565b848152606060208201526000611ac4606083018661140e565b8281036040840152611ad78185876117a7565b979650505050505050565b60008085851115611af257600080fd5b83861115611aff57600080fd5b5050820193919092039150565b6001600160d01b031981358181169160068510156118ec5760069490940360031b84901b1690921692915050565b818382376000910190815291905056fea264697066735822122020681c353438c038dc7ceb221487ad8986bda1eb1d581ed4faa5d8a5d765a8b564736f6c63430008170033","opcodes":"PUSH1 0xC0 PUSH1 0x40 MSTORE CALLVALUE DUP1 ISZERO PUSH3 0x11 JUMPI PUSH1 0x0 DUP1 REVERT JUMPDEST POP PUSH1 0x40 MLOAD PUSH3 0x1CBB CODESIZE SUB DUP1 PUSH3 0x1CBB DUP4 CODECOPY DUP2 ADD PUSH1 0x40 DUP2 SWAP1 MSTORE PUSH3 0x34 SWAP2 PUSH3 0xC1 JUMP JUMPDEST DUP1 DUP3 DUP1 PUSH1 0x1 PUSH1 0x1 PUSH1 0xA0 SHL SUB DUP2 AND PUSH3 0x5F JUMPI PUSH1 0x40 MLOAD PUSH4 0x2039D3C9 PUSH1 0xE0 SHL DUP2 MSTORE PUSH1 0x4 ADD PUSH1 0x40 MLOAD DUP1 SWAP2 SUB SWAP1 REVERT JUMPDEST PUSH1 0x1 PUSH1 0x1 PUSH1 0xA0 SHL SUB SWAP1 DUP2 AND PUSH1 0x80 MSTORE DUP3 AND SWAP1 POP PUSH3 0x8F JUMPI PUSH1 0x40 MLOAD PUSH4 0x5B43E1A7 PUSH1 0xE0 SHL DUP2 MSTORE PUSH1 0x4 ADD PUSH1 0x40 MLOAD DUP1 SWAP2 SUB SWAP1 REVERT JUMPDEST PUSH1 0x1 PUSH1 0x1 PUSH1 0xA0 SHL SUB AND PUSH1 0xA0 MSTORE POP PUSH3 0xF9 SWAP1 POP JUMP JUMPDEST DUP1 MLOAD PUSH1 0x1 PUSH1 0x1 PUSH1 0xA0 SHL SUB DUP2 AND DUP2 EQ PUSH3 0xBC JUMPI PUSH1 0x0 DUP1 REVERT JUMPDEST SWAP2 SWAP1 POP JUMP JUMPDEST PUSH1 0x0 DUP1 PUSH1 0x40 DUP4 DUP6 SUB SLT ISZERO PUSH3 0xD5 JUMPI PUSH1 0x0 DUP1 REVERT JUMPDEST PUSH3 0xE0 DUP4 PUSH3 0xA4 JUMP JUMPDEST SWAP2 POP PUSH3 0xF0 PUSH1 0x20 DUP5 ADD PUSH3 0xA4 JUMP JUMPDEST SWAP1 POP SWAP3 POP SWAP3 SWAP1 POP JUMP JUMPDEST PUSH1 0x80 MLOAD PUSH1 0xA0 MLOAD PUSH2 0x1B80 PUSH3 0x13B PUSH1 0x0 CODECOPY PUSH1 0x0 DUP2 DUP2 PUSH2 0x273 ADD MSTORE PUSH2 0x3E6 ADD MSTORE PUSH1 0x0 DUP2 DUP2 PUSH2 0x1B6 ADD MSTORE DUP2 DUP2 PUSH2 0x8EA ADD MSTORE DUP2 DUP2 PUSH2 0xC6F ADD MSTORE PUSH2 0xEF7 ADD MSTORE PUSH2 0x1B80 PUSH1 0x0 RETURN INVALID PUSH1 0x80 PUSH1 0x40 MSTORE CALLVALUE DUP1 ISZERO PUSH2 0x10 JUMPI PUSH1 0x0 DUP1 REVERT JUMPDEST POP PUSH1 0x4 CALLDATASIZE LT PUSH2 0x136 JUMPI PUSH1 0x0 CALLDATALOAD PUSH1 0xE0 SHR DUP1 PUSH4 0x3A5BE8CB GT PUSH2 0xB8 JUMPI DUP1 PUSH4 0xB2494DF3 GT PUSH2 0x7C JUMPI DUP1 PUSH4 0xB2494DF3 EQ PUSH2 0x2F4 JUMPI DUP1 PUSH4 0xB25F3776 EQ PUSH2 0x309 JUMPI DUP1 PUSH4 0xBC197C81 EQ PUSH2 0x31C JUMPI DUP1 PUSH4 0xBD61951D EQ PUSH2 0x33E JUMPI DUP1 PUSH4 0xF23A6E61 EQ PUSH2 0x351 JUMPI DUP1 PUSH4 0xF698DA25 EQ PUSH2 0x371 JUMPI PUSH1 0x0 DUP1 REVERT JUMPDEST DUP1 PUSH4 0x3A5BE8CB EQ PUSH2 0x295 JUMPI DUP1 PUSH4 0x3A871CDD EQ PUSH2 0x2A8 JUMPI DUP1 PUSH4 0x541D63C8 EQ PUSH2 0x2BB JUMPI DUP1 PUSH4 0x6AC24784 EQ PUSH2 0x2CE JUMPI DUP1 PUSH4 0x7BB37428 EQ PUSH2 0x2E1 JUMPI PUSH1 0x0 DUP1 REVERT JUMPDEST DUP1 PUSH4 0x150B7A02 GT PUSH2 0xFF JUMPI DUP1 PUSH4 0x150B7A02 EQ PUSH2 0x1F0 JUMPI DUP1 PUSH4 0x1626BA7E EQ PUSH2 0x228 JUMPI DUP1 PUSH4 0x20C13B0B EQ PUSH2 0x23B JUMPI DUP1 PUSH4 0x23031640 EQ PUSH2 0x24E JUMPI DUP1 PUSH4 0x2F3AB804 EQ PUSH2 0x26E JUMPI PUSH1 0x0 DUP1 REVERT JUMPDEST DUP1 PUSH3 0x23DE29 EQ PUSH2 0x13B JUMPI DUP1 PUSH4 0x1FFC9A7 EQ PUSH2 0x155 JUMPI DUP1 PUSH4 0xA1028C4 EQ PUSH2 0x17D JUMPI DUP1 PUSH4 0xEA1F938 EQ PUSH2 0x19E JUMPI DUP1 PUSH4 0x137E051E EQ PUSH2 0x1B1 JUMPI JUMPDEST PUSH1 0x0 DUP1 REVERT JUMPDEST PUSH2 0x153 PUSH2 0x149 CALLDATASIZE PUSH1 0x4 PUSH2 0x1017 JUMP JUMPDEST POP POP POP POP POP POP POP POP JUMP JUMPDEST STOP JUMPDEST PUSH2 0x168 PUSH2 0x163 CALLDATASIZE PUSH1 0x4 PUSH2 0x10DD JUMP JUMPDEST PUSH2 0x379 JUMP JUMPDEST PUSH1 0x40 MLOAD SWAP1 ISZERO ISZERO DUP2 MSTORE PUSH1 0x20 ADD JUMPDEST PUSH1 0x40 MLOAD DUP1 SWAP2 SUB SWAP1 RETURN JUMPDEST PUSH2 0x190 PUSH2 0x18B CALLDATASIZE PUSH1 0x4 PUSH2 0x11BD JUMP JUMPDEST PUSH2 0x3CB JUMP JUMPDEST PUSH1 0x40 MLOAD SWAP1 DUP2 MSTORE PUSH1 0x20 ADD PUSH2 0x174 JUMP JUMPDEST PUSH2 0x153 PUSH2 0x1AC CALLDATASIZE PUSH1 0x4 PUSH2 0x1207 JUMP JUMPDEST PUSH2 0x3D7 JUMP JUMPDEST PUSH2 0x1D8 PUSH32 0x0 DUP2 JUMP JUMPDEST PUSH1 0x40 MLOAD PUSH1 0x1 PUSH1 0x1 PUSH1 0xA0 SHL SUB SWAP1 SWAP2 AND DUP2 MSTORE PUSH1 0x20 ADD PUSH2 0x174 JUMP JUMPDEST PUSH2 0x20F PUSH2 0x1FE CALLDATASIZE PUSH1 0x4 PUSH2 0x1285 JUMP JUMPDEST PUSH4 0xA85BD01 PUSH1 0xE1 SHL SWAP6 SWAP5 POP POP POP POP POP JUMP JUMPDEST PUSH1 0x40 MLOAD PUSH1 0x1 PUSH1 0x1 PUSH1 0xE0 SHL SUB NOT SWAP1 SWAP2 AND DUP2 MSTORE PUSH1 0x20 ADD PUSH2 0x174 JUMP JUMPDEST PUSH2 0x20F PUSH2 0x236 CALLDATASIZE PUSH1 0x4 PUSH2 0x12F7 JUMP JUMPDEST PUSH2 0x43A JUMP JUMPDEST PUSH2 0x20F PUSH2 0x249 CALLDATASIZE PUSH1 0x4 PUSH2 0x1342 JUMP JUMPDEST PUSH2 0x4F8 JUMP JUMPDEST PUSH2 0x261 PUSH2 0x25C CALLDATASIZE PUSH1 0x4 PUSH2 0x13A5 JUMP JUMPDEST PUSH2 0x643 JUMP JUMPDEST PUSH1 0x40 MLOAD PUSH2 0x174 SWAP2 SWAP1 PUSH2 0x143A JUMP JUMPDEST PUSH2 0x1D8 PUSH32 0x0 DUP2 JUMP JUMPDEST PUSH2 0x153 PUSH2 0x2A3 CALLDATASIZE PUSH1 0x4 PUSH2 0x144D JUMP JUMPDEST PUSH2 0x755 JUMP JUMPDEST PUSH2 0x190 PUSH2 0x2B6 CALLDATASIZE PUSH1 0x4 PUSH2 0x14D1 JUMP JUMPDEST PUSH2 0x789 JUMP JUMPDEST PUSH2 0x153 PUSH2 0x2C9 CALLDATASIZE PUSH1 0x4 PUSH2 0x151E JUMP JUMPDEST PUSH2 0x985 JUMP JUMPDEST PUSH2 0x190 PUSH2 0x2DC CALLDATASIZE PUSH1 0x4 PUSH2 0x13A5 JUMP JUMPDEST PUSH2 0xA41 JUMP JUMPDEST PUSH2 0x153 PUSH2 0x2EF CALLDATASIZE PUSH1 0x4 PUSH2 0x151E JUMP JUMPDEST PUSH2 0xA5C JUMP JUMPDEST PUSH2 0x2FC PUSH2 0xB35 JUMP JUMPDEST PUSH1 0x40 MLOAD PUSH2 0x174 SWAP2 SWAP1 PUSH2 0x158F JUMP JUMPDEST PUSH2 0x190 PUSH2 0x317 CALLDATASIZE PUSH1 0x4 PUSH2 0x15DC JUMP JUMPDEST PUSH2 0xBA8 JUMP JUMPDEST PUSH2 0x20F PUSH2 0x32A CALLDATASIZE PUSH1 0x4 PUSH2 0x1654 JUMP JUMPDEST PUSH4 0xBC197C81 PUSH1 0xE0 SHL SWAP9 SWAP8 POP POP POP POP POP POP POP POP JUMP JUMPDEST PUSH2 0x261 PUSH2 0x34C CALLDATASIZE PUSH1 0x4 PUSH2 0x16F1 JUMP JUMPDEST PUSH2 0xBCA JUMP JUMPDEST PUSH2 0x20F PUSH2 0x35F CALLDATASIZE PUSH1 0x4 PUSH2 0x172C JUMP JUMPDEST PUSH4 0xF23A6E61 PUSH1 0xE0 SHL SWAP7 SWAP6 POP POP POP POP POP POP JUMP JUMPDEST PUSH2 0x190 PUSH2 0xC14 JUMP JUMPDEST PUSH1 0x0 PUSH1 0x1 PUSH1 0x1 PUSH1 0xE0 SHL SUB NOT DUP3 AND PUSH4 0x2711897 PUSH1 0xE5 SHL EQ DUP1 PUSH2 0x3AA JUMPI POP PUSH1 0x1 PUSH1 0x1 PUSH1 0xE0 SHL SUB NOT DUP3 AND PUSH4 0xA85BD01 PUSH1 0xE1 SHL EQ JUMPDEST DUP1 PUSH2 0x3C5 JUMPI POP PUSH1 0x1 PUSH1 0x1 PUSH1 0xE0 SHL SUB NOT DUP3 AND PUSH4 0x1FFC9A7 PUSH1 0xE0 SHL EQ JUMPDEST SWAP3 SWAP2 POP POP JUMP JUMPDEST PUSH1 0x0 PUSH2 0x3C5 CALLER DUP4 PUSH2 0xA41 JUMP JUMPDEST PUSH2 0x416 CALLDATASIZE PUSH1 0x13 NOT ADD CALLDATALOAD PUSH1 0x60 SHR JUMPDEST PUSH32 0x0 PUSH1 0x1 PUSH1 0x1 PUSH1 0xA0 SHL SUB SWAP1 DUP2 AND SWAP2 AND EQ SWAP1 JUMP JUMPDEST PUSH2 0x433 JUMPI PUSH1 0x40 MLOAD PUSH4 0x5B43E1A7 PUSH1 0xE0 SHL DUP2 MSTORE PUSH1 0x4 ADD PUSH1 0x40 MLOAD DUP1 SWAP2 SUB SWAP1 REVERT JUMPDEST POP POP POP POP POP JUMP JUMPDEST PUSH1 0x40 DUP1 MLOAD PUSH1 0x20 DUP1 DUP3 ADD DUP7 SWAP1 MSTORE DUP3 MLOAD DUP1 DUP4 SUB SWAP1 SWAP2 ADD DUP2 MSTORE DUP2 DUP4 ADD SWAP3 DUP4 SWAP1 MSTORE PUSH4 0x20C13B0B PUSH1 0xE0 SHL SWAP1 SWAP3 MSTORE PUSH1 0x0 SWAP2 CALLER SWAP2 DUP4 SWAP2 DUP4 SWAP2 PUSH4 0x20C13B0B SWAP2 PUSH2 0x481 SWAP2 DUP10 SWAP1 DUP10 SWAP1 PUSH1 0x44 ADD PUSH2 0x17D0 JUMP JUMPDEST PUSH1 0x20 PUSH1 0x40 MLOAD DUP1 DUP4 SUB DUP2 DUP7 GAS STATICCALL ISZERO DUP1 ISZERO PUSH2 0x49E JUMPI RETURNDATASIZE PUSH1 0x0 DUP1 RETURNDATACOPY RETURNDATASIZE PUSH1 0x0 REVERT JUMPDEST POP POP POP POP PUSH1 0x40 MLOAD RETURNDATASIZE PUSH1 0x1F NOT PUSH1 0x1F DUP3 ADD AND DUP3 ADD DUP1 PUSH1 0x40 MSTORE POP DUP2 ADD SWAP1 PUSH2 0x4C2 SWAP2 SWAP1 PUSH2 0x1800 JUMP JUMPDEST SWAP1 POP PUSH1 0x1 PUSH1 0x1 PUSH1 0xE0 SHL SUB NOT DUP2 AND PUSH4 0x20C13B0B PUSH1 0xE0 SHL EQ PUSH2 0x4E3 JUMPI PUSH1 0x0 PUSH2 0x4EC JUMP JUMPDEST PUSH4 0xB135D3F PUSH1 0xE1 SHL JUMPDEST SWAP3 POP POP POP JUMPDEST SWAP4 SWAP3 POP POP POP JUMP JUMPDEST PUSH1 0x0 CALLER DUP2 PUSH2 0x506 DUP3 DUP7 PUSH2 0x643 JUMP JUMPDEST DUP1 MLOAD PUSH1 0x20 DUP3 ADD KECCAK256 DUP6 MLOAD SWAP2 SWAP3 POP SWAP1 PUSH1 0x0 SUB PUSH2 0x5D0 JUMPI PUSH1 0x40 MLOAD PUSH4 0x5AE6BD37 PUSH1 0xE0 SHL DUP2 MSTORE PUSH1 0x4 DUP2 ADD DUP3 SWAP1 MSTORE PUSH1 0x1 PUSH1 0x1 PUSH1 0xA0 SHL SUB DUP5 AND SWAP1 PUSH4 0x5AE6BD37 SWAP1 PUSH1 0x24 ADD PUSH1 0x20 PUSH1 0x40 MLOAD DUP1 DUP4 SUB DUP2 DUP7 GAS STATICCALL ISZERO DUP1 ISZERO PUSH2 0x55F JUMPI RETURNDATASIZE PUSH1 0x0 DUP1 RETURNDATACOPY RETURNDATASIZE PUSH1 0x0 REVERT JUMPDEST POP POP POP POP PUSH1 0x40 MLOAD RETURNDATASIZE PUSH1 0x1F NOT PUSH1 0x1F DUP3 ADD AND DUP3 ADD DUP1 PUSH1 0x40 MSTORE POP DUP2 ADD SWAP1 PUSH2 0x583 SWAP2 SWAP1 PUSH2 0x181D JUMP JUMPDEST PUSH1 0x0 SUB PUSH2 0x5CB JUMPI PUSH1 0x40 MLOAD PUSH3 0x461BCD PUSH1 0xE5 SHL DUP2 MSTORE PUSH1 0x20 PUSH1 0x4 DUP3 ADD MSTORE PUSH1 0x11 PUSH1 0x24 DUP3 ADD MSTORE PUSH17 0x12185CDA081B9BDD08185C1C1C9BDD9959 PUSH1 0x7A SHL PUSH1 0x44 DUP3 ADD MSTORE PUSH1 0x64 ADD JUMPDEST PUSH1 0x40 MLOAD DUP1 SWAP2 SUB SWAP1 REVERT JUMPDEST PUSH2 0x631 JUMP JUMPDEST PUSH1 0x40 MLOAD PUSH4 0x934F3A11 PUSH1 0xE0 SHL DUP2 MSTORE PUSH1 0x1 PUSH1 0x1 PUSH1 0xA0 SHL SUB DUP5 AND SWAP1 PUSH4 0x934F3A11 SWAP1 PUSH2 0x600 SWAP1 DUP5 SWAP1 DUP7 SWAP1 DUP11 SWAP1 PUSH1 0x4 ADD PUSH2 0x1836 JUMP JUMPDEST PUSH1 0x0 PUSH1 0x40 MLOAD DUP1 DUP4 SUB DUP2 DUP7 DUP1 EXTCODESIZE ISZERO DUP1 ISZERO PUSH2 0x618 JUMPI PUSH1 0x0 DUP1 REVERT JUMPDEST POP GAS STATICCALL ISZERO DUP1 ISZERO PUSH2 0x62C JUMPI RETURNDATASIZE PUSH1 0x0 DUP1 RETURNDATACOPY RETURNDATASIZE PUSH1 0x0 REVERT JUMPDEST POP POP POP POP JUMPDEST POP PUSH4 0x20C13B0B PUSH1 0xE0 SHL SWAP6 SWAP5 POP POP POP POP POP JUMP JUMPDEST PUSH1 0x60 PUSH1 0x0 PUSH32 0x60B3CBF8B4A223D68D641B3B6DDF9A298E7F33710CF3D3A9D1146B5A6150FBCA PUSH1 0x0 SHL DUP4 DUP1 MLOAD SWAP1 PUSH1 0x20 ADD KECCAK256 PUSH1 0x40 MLOAD PUSH1 0x20 ADD PUSH2 0x68D SWAP3 SWAP2 SWAP1 SWAP2 DUP3 MSTORE PUSH1 0x20 DUP3 ADD MSTORE PUSH1 0x40 ADD SWAP1 JUMP JUMPDEST PUSH1 0x40 MLOAD PUSH1 0x20 DUP2 DUP4 SUB SUB DUP2 MSTORE SWAP1 PUSH1 0x40 MSTORE DUP1 MLOAD SWAP1 PUSH1 0x20 ADD KECCAK256 SWAP1 POP PUSH1 0x19 PUSH1 0xF8 SHL PUSH1 0x1 PUSH1 0xF8 SHL DUP6 PUSH1 0x1 PUSH1 0x1 PUSH1 0xA0 SHL SUB AND PUSH4 0xF698DA25 PUSH1 0x40 MLOAD DUP2 PUSH4 0xFFFFFFFF AND PUSH1 0xE0 SHL DUP2 MSTORE PUSH1 0x4 ADD PUSH1 0x20 PUSH1 0x40 MLOAD DUP1 DUP4 SUB DUP2 DUP7 GAS STATICCALL ISZERO DUP1 ISZERO PUSH2 0x6ED JUMPI RETURNDATASIZE PUSH1 0x0 DUP1 RETURNDATACOPY RETURNDATASIZE PUSH1 0x0 REVERT JUMPDEST POP POP POP POP PUSH1 0x40 MLOAD RETURNDATASIZE PUSH1 0x1F NOT PUSH1 0x1F DUP3 ADD AND DUP3 ADD DUP1 PUSH1 0x40 MSTORE POP DUP2 ADD SWAP1 PUSH2 0x711 SWAP2 SWAP1 PUSH2 0x181D JUMP JUMPDEST PUSH1 0x40 MLOAD PUSH1 0x1 PUSH1 0x1 PUSH1 0xF8 SHL SUB NOT SWAP4 DUP5 AND PUSH1 0x20 DUP3 ADD MSTORE SWAP3 SWAP1 SWAP2 AND PUSH1 0x21 DUP4 ADD MSTORE PUSH1 0x22 DUP3 ADD MSTORE PUSH1 0x42 DUP2 ADD DUP3 SWAP1 MSTORE PUSH1 0x62 ADD PUSH1 0x40 MLOAD PUSH1 0x20 DUP2 DUP4 SUB SUB DUP2 MSTORE SWAP1 PUSH1 0x40 MSTORE SWAP2 POP POP SWAP3 SWAP2 POP POP JUMP JUMPDEST PUSH2 0x766 CALLDATASIZE PUSH1 0x13 NOT ADD CALLDATALOAD PUSH1 0x60 SHR PUSH2 0x3E4 JUMP JUMPDEST PUSH2 0x783 JUMPI PUSH1 0x40 MLOAD PUSH4 0x5B43E1A7 PUSH1 0xE0 SHL DUP2 MSTORE PUSH1 0x4 ADD PUSH1 0x40 MLOAD DUP1 SWAP2 SUB SWAP1 REVERT JUMPDEST POP POP POP POP JUMP JUMPDEST PUSH1 0x0 PUSH2 0x79C CALLDATASIZE PUSH1 0x13 NOT ADD CALLDATALOAD PUSH1 0x60 SHR PUSH2 0xC6D JUMP JUMPDEST PUSH2 0x7B9 JUMPI PUSH1 0x40 MLOAD PUSH4 0x2039D3C9 PUSH1 0xE0 SHL DUP2 MSTORE PUSH1 0x4 ADD PUSH1 0x40 MLOAD DUP1 SWAP2 SUB SWAP1 REVERT JUMPDEST PUSH1 0x0 PUSH2 0x7C8 PUSH1 0x20 DUP7 ADD DUP7 PUSH2 0x1861 JUMP JUMPDEST SWAP1 POP PUSH1 0x1 PUSH1 0x1 PUSH1 0xA0 SHL SUB DUP2 AND CALLER EQ PUSH2 0x813 JUMPI PUSH1 0x40 MLOAD PUSH3 0x461BCD PUSH1 0xE5 SHL DUP2 MSTORE PUSH1 0x20 PUSH1 0x4 DUP3 ADD MSTORE PUSH1 0xE PUSH1 0x24 DUP3 ADD MSTORE PUSH14 0x24B73B30B634B21031B0B63632B9 PUSH1 0x91 SHL PUSH1 0x44 DUP3 ADD MSTORE PUSH1 0x64 ADD PUSH2 0x5C2 JUMP JUMPDEST PUSH2 0x820 PUSH1 0x60 DUP7 ADD DUP7 PUSH2 0x187E JUMP JUMPDEST PUSH2 0x829 SWAP2 PUSH2 0x18C4 JUMP JUMPDEST PUSH1 0x1 PUSH1 0x1 PUSH1 0xE0 SHL SUB NOT AND PUSH4 0xF766E85 PUSH1 0xE3 SHL EQ DUP1 PUSH2 0x86C JUMPI POP PUSH2 0x84F PUSH1 0x60 DUP7 ADD DUP7 PUSH2 0x187E JUMP JUMPDEST PUSH2 0x858 SWAP2 PUSH2 0x18C4 JUMP JUMPDEST PUSH1 0x1 PUSH1 0x1 PUSH1 0xE0 SHL SUB NOT AND PUSH4 0xA83AC79 PUSH1 0xE3 SHL EQ JUMPDEST PUSH2 0x8C2 JUMPI PUSH1 0x40 MLOAD PUSH3 0x461BCD PUSH1 0xE5 SHL DUP2 MSTORE PUSH1 0x20 PUSH1 0x4 DUP3 ADD MSTORE PUSH1 0x21 PUSH1 0x24 DUP3 ADD MSTORE PUSH32 0x556E737570706F7274656420657865637574696F6E2066756E6374696F6E2069 PUSH1 0x44 DUP3 ADD MSTORE PUSH1 0x19 PUSH1 0xFA SHL PUSH1 0x64 DUP3 ADD MSTORE PUSH1 0x84 ADD PUSH2 0x5C2 JUMP JUMPDEST PUSH2 0x8CB DUP6 PUSH2 0xC9F JUMP JUMPDEST SWAP2 POP DUP3 ISZERO PUSH2 0x97D JUMPI PUSH1 0x40 MLOAD PUSH4 0x468721A7 PUSH1 0xE0 SHL DUP2 MSTORE PUSH1 0x1 PUSH1 0x1 PUSH1 0xA0 SHL SUB PUSH32 0x0 DUP2 AND PUSH1 0x4 DUP4 ADD MSTORE PUSH1 0x24 DUP3 ADD DUP6 SWAP1 MSTORE PUSH1 0x80 PUSH1 0x44 DUP4 ADD MSTORE PUSH1 0x0 PUSH1 0x84 DUP4 ADD DUP2 SWAP1 MSTORE PUSH1 0x64 DUP4 ADD MSTORE DUP3 AND SWAP1 PUSH4 0x468721A7 SWAP1 PUSH1 0xA4 ADD PUSH1 0x20 PUSH1 0x40 MLOAD DUP1 DUP4 SUB DUP2 PUSH1 0x0 DUP8 GAS CALL ISZERO DUP1 ISZERO PUSH2 0x957 JUMPI RETURNDATASIZE PUSH1 0x0 DUP1 RETURNDATACOPY RETURNDATASIZE PUSH1 0x0 REVERT JUMPDEST POP POP POP POP PUSH1 0x40 MLOAD RETURNDATASIZE PUSH1 0x1F NOT PUSH1 0x1F DUP3 ADD AND DUP3 ADD DUP1 PUSH1 0x40 MSTORE POP DUP2 ADD SWAP1 PUSH2 0x97B SWAP2 SWAP1 PUSH2 0x18F4 JUMP JUMPDEST POP JUMPDEST POP SWAP4 SWAP3 POP POP POP JUMP JUMPDEST PUSH2 0x996 CALLDATASIZE PUSH1 0x13 NOT ADD CALLDATALOAD PUSH1 0x60 SHR PUSH2 0xC6D JUMP JUMPDEST PUSH2 0x9B3 JUMPI PUSH1 0x40 MLOAD PUSH4 0x2039D3C9 PUSH1 0xE0 SHL DUP2 MSTORE PUSH1 0x4 ADD PUSH1 0x40 MLOAD DUP1 SWAP2 SUB SWAP1 REVERT JUMPDEST PUSH1 0x40 MLOAD PUSH4 0x5229073F PUSH1 0xE0 SHL DUP2 MSTORE PUSH1 0x0 SWAP1 DUP2 SWAP1 CALLER SWAP1 PUSH4 0x5229073F SWAP1 PUSH2 0x9E1 SWAP1 DUP10 SWAP1 DUP10 SWAP1 DUP10 SWAP1 DUP10 SWAP1 PUSH1 0x4 ADD PUSH2 0x1911 JUMP JUMPDEST PUSH1 0x0 PUSH1 0x40 MLOAD DUP1 DUP4 SUB DUP2 PUSH1 0x0 DUP8 GAS CALL ISZERO DUP1 ISZERO PUSH2 0xA00 JUMPI RETURNDATASIZE PUSH1 0x0 DUP1 RETURNDATACOPY RETURNDATASIZE PUSH1 0x0 REVERT JUMPDEST POP POP POP POP PUSH1 0x40 MLOAD RETURNDATASIZE PUSH1 0x0 DUP3 RETURNDATACOPY PUSH1 0x1F RETURNDATASIZE SWAP1 DUP2 ADD PUSH1 0x1F NOT AND DUP3 ADD PUSH1 0x40 MSTORE PUSH2 0xA28 SWAP2 SWAP1 DUP2 ADD SWAP1 PUSH2 0x194C JUMP JUMPDEST SWAP2 POP SWAP2 POP DUP2 PUSH2 0xA39 JUMPI DUP1 MLOAD PUSH1 0x20 DUP3 ADD REVERT JUMPDEST POP POP POP POP POP POP JUMP JUMPDEST PUSH1 0x0 PUSH2 0xA4D DUP4 DUP4 PUSH2 0x643 JUMP JUMPDEST DUP1 MLOAD SWAP1 PUSH1 0x20 ADD KECCAK256 SWAP1 POP SWAP3 SWAP2 POP POP JUMP JUMPDEST PUSH2 0xA6D CALLDATASIZE PUSH1 0x13 NOT ADD CALLDATALOAD PUSH1 0x60 SHR PUSH2 0xC6D JUMP JUMPDEST PUSH2 0xA8A JUMPI PUSH1 0x40 MLOAD PUSH4 0x2039D3C9 PUSH1 0xE0 SHL DUP2 MSTORE PUSH1 0x4 ADD PUSH1 0x40 MLOAD DUP1 SWAP2 SUB SWAP1 REVERT JUMPDEST PUSH1 0x40 MLOAD PUSH4 0x468721A7 PUSH1 0xE0 SHL DUP2 MSTORE CALLER SWAP1 PUSH4 0x468721A7 SWAP1 PUSH2 0xAB3 SWAP1 DUP8 SWAP1 DUP8 SWAP1 DUP8 SWAP1 DUP8 SWAP1 PUSH1 0x4 ADD PUSH2 0x1911 JUMP JUMPDEST PUSH1 0x20 PUSH1 0x40 MLOAD DUP1 DUP4 SUB DUP2 PUSH1 0x0 DUP8 GAS CALL ISZERO DUP1 ISZERO PUSH2 0xAD2 JUMPI RETURNDATASIZE PUSH1 0x0 DUP1 RETURNDATACOPY RETURNDATASIZE PUSH1 0x0 REVERT JUMPDEST POP POP POP POP PUSH1 0x40 MLOAD RETURNDATASIZE PUSH1 0x1F NOT PUSH1 0x1F DUP3 ADD AND DUP3 ADD DUP1 PUSH1 0x40 MSTORE POP DUP2 ADD SWAP1 PUSH2 0xAF6 SWAP2 SWAP1 PUSH2 0x18F4 JUMP JUMPDEST PUSH2 0x783 JUMPI PUSH1 0x40 MLOAD PUSH3 0x461BCD PUSH1 0xE5 SHL DUP2 MSTORE PUSH1 0x20 PUSH1 0x4 DUP3 ADD MSTORE PUSH1 0x10 PUSH1 0x24 DUP3 ADD MSTORE PUSH16 0x115E1958DD5D1A5BDB8819985A5B1959 PUSH1 0x82 SHL PUSH1 0x44 DUP3 ADD MSTORE PUSH1 0x64 ADD PUSH2 0x5C2 JUMP JUMPDEST PUSH1 0x40 MLOAD PUSH4 0x6617C229 PUSH1 0xE1 SHL DUP2 MSTORE PUSH1 0x1 PUSH1 0x4 DUP3 ADD MSTORE PUSH1 0xA PUSH1 0x24 DUP3 ADD MSTORE PUSH1 0x60 SWAP1 CALLER SWAP1 PUSH1 0x0 SWAP1 DUP3 SWAP1 PUSH4 0xCC2F8452 SWAP1 PUSH1 0x44 ADD PUSH1 0x0 PUSH1 0x40 MLOAD DUP1 DUP4 SUB DUP2 DUP7 GAS STATICCALL ISZERO DUP1 ISZERO PUSH2 0xB80 JUMPI RETURNDATASIZE PUSH1 0x0 DUP1 RETURNDATACOPY RETURNDATASIZE PUSH1 0x0 REVERT JUMPDEST POP POP POP POP PUSH1 0x40 MLOAD RETURNDATASIZE PUSH1 0x0 DUP3 RETURNDATACOPY PUSH1 0x1F RETURNDATASIZE SWAP1 DUP2 ADD PUSH1 0x1F NOT AND DUP3 ADD PUSH1 0x40 MSTORE PUSH2 0x97D SWAP2 SWAP1 DUP2 ADD SWAP1 PUSH2 0x19E8 JUMP JUMPDEST PUSH1 0x0 DUP1 PUSH2 0xBB4 DUP4 PUSH2 0xD5C JUMP JUMPDEST POP POP POP POP SWAP1 POP DUP1 DUP1 MLOAD SWAP1 PUSH1 0x20 ADD KECCAK256 SWAP2 POP POP SWAP2 SWAP1 POP JUMP JUMPDEST PUSH1 0x60 PUSH1 0x40 MLOAD PUSH4 0xB4FABA09 PUSH1 0xE0 SHL DUP2 MSTORE PUSH1 0x4 CALLDATASIZE SUB PUSH1 0x4 DUP1 DUP4 ADD CALLDATACOPY PUSH1 0x20 PUSH1 0x0 CALLDATASIZE DUP4 PUSH1 0x0 CALLER GAS CALL POP POP PUSH1 0x20 RETURNDATASIZE SUB PUSH1 0x40 MLOAD SWAP2 POP DUP1 DUP3 ADD PUSH1 0x40 MSTORE DUP1 PUSH1 0x20 DUP4 RETURNDATACOPY POP PUSH1 0x0 MLOAD PUSH2 0x4F1 JUMPI DUP1 MLOAD PUSH1 0x20 DUP3 ADD REVERT JUMPDEST PUSH1 0x40 DUP1 MLOAD PUSH32 0x47E79534A245952E8B16893A336B85A3D9EA9FA8C573F3D803AFB92A79469218 PUSH1 0x20 DUP3 ADD MSTORE CHAINID SWAP2 DUP2 ADD SWAP2 SWAP1 SWAP2 MSTORE ADDRESS PUSH1 0x60 DUP3 ADD MSTORE PUSH1 0x0 SWAP1 PUSH1 0x80 ADD PUSH1 0x40 MLOAD PUSH1 0x20 DUP2 DUP4 SUB SUB DUP2 MSTORE SWAP1 PUSH1 0x40 MSTORE DUP1 MLOAD SWAP1 PUSH1 0x20 ADD KECCAK256 SWAP1 POP SWAP1 JUMP JUMPDEST PUSH32 0x0 PUSH1 0x1 PUSH1 0x1 PUSH1 0xA0 SHL SUB SWAP1 DUP2 AND SWAP2 AND EQ SWAP1 JUMP JUMPDEST PUSH1 0x0 DUP1 PUSH1 0x0 DUP1 CALLDATASIZE PUSH1 0x0 PUSH2 0xCB1 DUP8 PUSH2 0xD5C JUMP JUMPDEST SWAP4 SWAP9 POP SWAP2 SWAP7 POP SWAP5 POP SWAP3 POP SWAP1 POP PUSH2 0xCCA PUSH1 0x20 DUP9 ADD DUP9 PUSH2 0x1861 JUMP JUMPDEST DUP6 MLOAD PUSH1 0x20 DUP8 ADD KECCAK256 PUSH1 0x40 MLOAD PUSH4 0x934F3A11 PUSH1 0xE0 SHL DUP2 MSTORE PUSH1 0x1 PUSH1 0x1 PUSH1 0xA0 SHL SUB SWAP3 SWAP1 SWAP3 AND SWAP2 PUSH4 0x934F3A11 SWAP2 PUSH2 0xD03 SWAP2 DUP10 SWAP1 DUP8 SWAP1 DUP8 SWAP1 PUSH1 0x4 ADD PUSH2 0x1AAB JUMP JUMPDEST PUSH1 0x0 PUSH1 0x40 MLOAD DUP1 DUP4 SUB DUP2 DUP7 DUP1 EXTCODESIZE ISZERO DUP1 ISZERO PUSH2 0xD1B JUMPI PUSH1 0x0 DUP1 REVERT JUMPDEST POP GAS STATICCALL SWAP3 POP POP POP DUP1 ISZERO PUSH2 0xD2C JUMPI POP PUSH1 0x1 JUMPDEST PUSH2 0xD43 JUMPI PUSH2 0xD3C PUSH1 0x1 DUP5 DUP7 PUSH2 0xF7F JUMP JUMPDEST SWAP6 POP PUSH2 0xD52 JUMP JUMPDEST PUSH2 0xD4F PUSH1 0x0 DUP5 DUP7 PUSH2 0xF7F JUMP JUMPDEST SWAP6 POP JUMPDEST POP POP POP POP POP SWAP2 SWAP1 POP JUMP JUMPDEST PUSH1 0x60 PUSH1 0x0 DUP1 CALLDATASIZE DUP2 DUP2 DUP2 PUSH2 0xD73 PUSH2 0x140 DUP10 ADD DUP10 PUSH2 0x187E JUMP JUMPDEST SWAP1 SWAP3 POP SWAP1 POP PUSH2 0xD86 PUSH1 0x6 PUSH1 0x0 DUP4 DUP6 PUSH2 0x1AE2 JUMP JUMPDEST PUSH2 0xD8F SWAP2 PUSH2 0x1B0C JUMP JUMPDEST PUSH1 0xD0 SHR SWAP6 POP PUSH2 0xDA2 PUSH1 0xC PUSH1 0x6 DUP4 DUP6 PUSH2 0x1AE2 JUMP JUMPDEST PUSH2 0xDAB SWAP2 PUSH2 0x1B0C JUMP JUMPDEST PUSH1 0xD0 SHR SWAP5 POP PUSH2 0xDBD DUP2 PUSH1 0xC DUP2 DUP6 PUSH2 0x1AE2 JUMP JUMPDEST SWAP4 POP SWAP4 POP POP POP PUSH1 0x0 PUSH1 0x40 MLOAD DUP1 PUSH2 0x1C0 ADD PUSH1 0x40 MSTORE DUP1 PUSH32 0x84AA190356F56B8C87825F54884392A9907C23EE0F8E1EA86336B763FAF021BD PUSH1 0x0 SHL DUP2 MSTORE PUSH1 0x20 ADD DUP9 PUSH1 0x0 ADD PUSH1 0x20 DUP2 ADD SWAP1 PUSH2 0xE0D SWAP2 SWAP1 PUSH2 0x1861 JUMP JUMPDEST PUSH1 0x1 PUSH1 0x1 PUSH1 0xA0 SHL SUB AND DUP2 MSTORE PUSH1 0x20 ADD DUP9 PUSH1 0x20 ADD CALLDATALOAD DUP2 MSTORE PUSH1 0x20 ADD DUP9 DUP1 PUSH1 0x40 ADD SWAP1 PUSH2 0xE35 SWAP2 SWAP1 PUSH2 0x187E JUMP JUMPDEST PUSH1 0x40 MLOAD PUSH2 0xE43 SWAP3 SWAP2 SWAP1 PUSH2 0x1B3A JUMP JUMPDEST PUSH1 0x40 MLOAD SWAP1 DUP2 SWAP1 SUB SWAP1 KECCAK256 DUP2 MSTORE PUSH1 0x20 ADD PUSH2 0xE5E PUSH1 0x60 DUP11 ADD DUP11 PUSH2 0x187E JUMP JUMPDEST PUSH1 0x40 MLOAD PUSH2 0xE6C SWAP3 SWAP2 SWAP1 PUSH2 0x1B3A JUMP JUMPDEST PUSH1 0x40 MLOAD DUP1 SWAP2 SUB SWAP1 KECCAK256 DUP2 MSTORE PUSH1 0x20 ADD DUP9 PUSH1 0x80 ADD CALLDATALOAD DUP2 MSTORE PUSH1 0x20 ADD DUP9 PUSH1 0xA0 ADD CALLDATALOAD DUP2 MSTORE PUSH1 0x20 ADD DUP9 PUSH1 0xC0 ADD CALLDATALOAD DUP2 MSTORE PUSH1 0x20 ADD DUP9 PUSH1 0xE0 ADD CALLDATALOAD DUP2 MSTORE PUSH1 0x20 ADD DUP9 PUSH2 0x100 ADD CALLDATALOAD DUP2 MSTORE PUSH1 0x20 ADD DUP9 DUP1 PUSH2 0x120 ADD SWAP1 PUSH2 0xEBD SWAP2 SWAP1 PUSH2 0x187E JUMP JUMPDEST PUSH1 0x40 MLOAD PUSH2 0xECB SWAP3 SWAP2 SWAP1 PUSH2 0x1B3A JUMP JUMPDEST PUSH1 0x40 DUP1 MLOAD SWAP2 DUP3 SWAP1 SUB SWAP1 SWAP2 KECCAK256 DUP3 MSTORE PUSH6 0xFFFFFFFFFFFF DUP1 DUP10 AND PUSH1 0x20 DUP5 ADD MSTORE DUP8 AND SWAP1 DUP3 ADD MSTORE PUSH1 0x1 PUSH1 0x1 PUSH1 0xA0 SHL SUB PUSH32 0x0 AND PUSH1 0x60 SWAP1 SWAP2 ADD MSTORE PUSH2 0x1C0 DUP2 KECCAK256 SWAP1 SWAP2 POP PUSH1 0x19 PUSH1 0xF8 SHL PUSH1 0x1 PUSH1 0xF8 SHL PUSH2 0xF37 PUSH2 0xC14 JUMP JUMPDEST PUSH1 0x40 MLOAD PUSH1 0x1 PUSH1 0x1 PUSH1 0xF8 SHL SUB NOT SWAP4 DUP5 AND PUSH1 0x20 DUP3 ADD MSTORE SWAP3 SWAP1 SWAP2 AND PUSH1 0x21 DUP4 ADD MSTORE PUSH1 0x22 DUP3 ADD MSTORE PUSH1 0x42 DUP2 ADD DUP3 SWAP1 MSTORE PUSH1 0x62 ADD PUSH1 0x40 MLOAD PUSH1 0x20 DUP2 DUP4 SUB SUB DUP2 MSTORE SWAP1 PUSH1 0x40 MSTORE SWAP7 POP POP POP SWAP2 SWAP4 SWAP6 SWAP1 SWAP3 SWAP5 POP JUMP JUMPDEST PUSH1 0x0 PUSH1 0xD0 DUP3 PUSH6 0xFFFFFFFFFFFF AND SWAP1 SHL PUSH1 0xA0 DUP5 PUSH6 0xFFFFFFFFFFFF AND SWAP1 SHL DUP6 PUSH2 0xFA7 JUMPI PUSH1 0x0 PUSH2 0xFAA JUMP JUMPDEST PUSH1 0x1 JUMPDEST PUSH1 0xFF AND OR OR SWAP5 SWAP4 POP POP POP POP JUMP JUMPDEST PUSH1 0x1 PUSH1 0x1 PUSH1 0xA0 SHL SUB DUP2 AND DUP2 EQ PUSH2 0xFCC JUMPI PUSH1 0x0 DUP1 REVERT JUMPDEST POP JUMP JUMPDEST PUSH1 0x0 DUP1 DUP4 PUSH1 0x1F DUP5 ADD SLT PUSH2 0xFE1 JUMPI PUSH1 0x0 DUP1 REVERT JUMPDEST POP DUP2 CALLDATALOAD PUSH1 0x1 PUSH1 0x1 PUSH1 0x40 SHL SUB DUP2 GT ISZERO PUSH2 0xFF8 JUMPI PUSH1 0x0 DUP1 REVERT JUMPDEST PUSH1 0x20 DUP4 ADD SWAP2 POP DUP4 PUSH1 0x20 DUP3 DUP6 ADD ADD GT ISZERO PUSH2 0x1010 JUMPI PUSH1 0x0 DUP1 REVERT JUMPDEST SWAP3 POP SWAP3 SWAP1 POP JUMP JUMPDEST PUSH1 0x0 DUP1 PUSH1 0x0 DUP1 PUSH1 0x0 DUP1 PUSH1 0x0 DUP1 PUSH1 0xC0 DUP10 DUP12 SUB SLT ISZERO PUSH2 0x1033 JUMPI PUSH1 0x0 DUP1 REVERT JUMPDEST DUP9 CALLDATALOAD PUSH2 0x103E DUP2 PUSH2 0xFB7 JUMP JUMPDEST SWAP8 POP PUSH1 0x20 DUP10 ADD CALLDATALOAD PUSH2 0x104E DUP2 PUSH2 0xFB7 JUMP JUMPDEST SWAP7 POP PUSH1 0x40 DUP10 ADD CALLDATALOAD PUSH2 0x105E DUP2 PUSH2 0xFB7 JUMP JUMPDEST SWAP6 POP PUSH1 0x60 DUP10 ADD CALLDATALOAD SWAP5 POP PUSH1 0x80 DUP10 ADD CALLDATALOAD PUSH1 0x1 PUSH1 0x1 PUSH1 0x40 SHL SUB DUP1 DUP3 GT ISZERO PUSH2 0x1081 JUMPI PUSH1 0x0 DUP1 REVERT JUMPDEST PUSH2 0x108D DUP13 DUP4 DUP14 ADD PUSH2 0xFCF JUMP JUMPDEST SWAP1 SWAP7 POP SWAP5 POP PUSH1 0xA0 DUP12 ADD CALLDATALOAD SWAP2 POP DUP1 DUP3 GT ISZERO PUSH2 0x10A6 JUMPI PUSH1 0x0 DUP1 REVERT JUMPDEST POP PUSH2 0x10B3 DUP12 DUP3 DUP13 ADD PUSH2 0xFCF JUMP JUMPDEST SWAP10 SWAP13 SWAP9 SWAP12 POP SWAP7 SWAP10 POP SWAP5 SWAP8 SWAP4 SWAP7 SWAP3 SWAP6 SWAP5 POP POP POP JUMP JUMPDEST PUSH1 0x1 PUSH1 0x1 PUSH1 0xE0 SHL SUB NOT DUP2 AND DUP2 EQ PUSH2 0xFCC JUMPI PUSH1 0x0 DUP1 REVERT JUMPDEST PUSH1 0x0 PUSH1 0x20 DUP3 DUP5 SUB SLT ISZERO PUSH2 0x10EF JUMPI PUSH1 0x0 DUP1 REVERT JUMPDEST DUP2 CALLDATALOAD PUSH2 0x4F1 DUP2 PUSH2 0x10C7 JUMP JUMPDEST PUSH4 0x4E487B71 PUSH1 0xE0 SHL PUSH1 0x0 MSTORE PUSH1 0x41 PUSH1 0x4 MSTORE PUSH1 0x24 PUSH1 0x0 REVERT JUMPDEST PUSH1 0x40 MLOAD PUSH1 0x1F DUP3 ADD PUSH1 0x1F NOT AND DUP2 ADD PUSH1 0x1 PUSH1 0x1 PUSH1 0x40 SHL SUB DUP2 GT DUP3 DUP3 LT OR ISZERO PUSH2 0x1138 JUMPI PUSH2 0x1138 PUSH2 0x10FA JUMP JUMPDEST PUSH1 0x40 MSTORE SWAP2 SWAP1 POP JUMP JUMPDEST PUSH1 0x0 PUSH1 0x1 PUSH1 0x1 PUSH1 0x40 SHL SUB DUP3 GT ISZERO PUSH2 0x1159 JUMPI PUSH2 0x1159 PUSH2 0x10FA JUMP JUMPDEST POP PUSH1 0x1F ADD PUSH1 0x1F NOT AND PUSH1 0x20 ADD SWAP1 JUMP JUMPDEST PUSH1 0x0 DUP3 PUSH1 0x1F DUP4 ADD SLT PUSH2 0x1178 JUMPI PUSH1 0x0 DUP1 REVERT JUMPDEST DUP2 CALLDATALOAD PUSH2 0x118B PUSH2 0x1186 DUP3 PUSH2 0x1140 JUMP JUMPDEST PUSH2 0x1110 JUMP JUMPDEST DUP2 DUP2 MSTORE DUP5 PUSH1 0x20 DUP4 DUP7 ADD ADD GT ISZERO PUSH2 0x11A0 JUMPI PUSH1 0x0 DUP1 REVERT JUMPDEST DUP2 PUSH1 0x20 DUP6 ADD PUSH1 0x20 DUP4 ADD CALLDATACOPY PUSH1 0x0 SWAP2 DUP2 ADD PUSH1 0x20 ADD SWAP2 SWAP1 SWAP2 MSTORE SWAP4 SWAP3 POP POP POP JUMP JUMPDEST PUSH1 0x0 PUSH1 0x20 DUP3 DUP5 SUB SLT ISZERO PUSH2 0x11CF JUMPI PUSH1 0x0 DUP1 REVERT JUMPDEST DUP2 CALLDATALOAD PUSH1 0x1 PUSH1 0x1 PUSH1 0x40 SHL SUB DUP2 GT ISZERO PUSH2 0x11E5 JUMPI PUSH1 0x0 DUP1 REVERT JUMPDEST PUSH2 0x11F1 DUP5 DUP3 DUP6 ADD PUSH2 0x1167 JUMP JUMPDEST SWAP5 SWAP4 POP POP POP POP JUMP JUMPDEST DUP1 ISZERO ISZERO DUP2 EQ PUSH2 0xFCC JUMPI PUSH1 0x0 DUP1 REVERT JUMPDEST PUSH1 0x0 DUP1 PUSH1 0x0 DUP1 PUSH1 0x0 PUSH1 0xA0 DUP7 DUP9 SUB SLT ISZERO PUSH2 0x121F JUMPI PUSH1 0x0 DUP1 REVERT JUMPDEST DUP6 CALLDATALOAD PUSH2 0x122A DUP2 PUSH2 0xFB7 JUMP JUMPDEST SWAP5 POP PUSH1 0x20 DUP7 ADD CALLDATALOAD SWAP4 POP PUSH1 0x40 DUP7 ADD CALLDATALOAD PUSH2 0x1241 DUP2 PUSH2 0x11F9 JUMP JUMPDEST SWAP3 POP PUSH1 0x60 DUP7 ADD CALLDATALOAD PUSH2 0x1251 DUP2 PUSH2 0xFB7 JUMP JUMPDEST SWAP2 POP PUSH1 0x80 DUP7 ADD CALLDATALOAD PUSH1 0x1 PUSH1 0x1 PUSH1 0x40 SHL SUB DUP2 GT ISZERO PUSH2 0x126C JUMPI PUSH1 0x0 DUP1 REVERT JUMPDEST PUSH2 0x1278 DUP9 DUP3 DUP10 ADD PUSH2 0x1167 JUMP JUMPDEST SWAP2 POP POP SWAP3 SWAP6 POP SWAP3 SWAP6 SWAP1 SWAP4 POP JUMP JUMPDEST PUSH1 0x0 DUP1 PUSH1 0x0 DUP1 PUSH1 0x0 PUSH1 0x80 DUP7 DUP9 SUB SLT ISZERO PUSH2 0x129D JUMPI PUSH1 0x0 DUP1 REVERT JUMPDEST DUP6 CALLDATALOAD PUSH2 0x12A8 DUP2 PUSH2 0xFB7 JUMP JUMPDEST SWAP5 POP PUSH1 0x20 DUP7 ADD CALLDATALOAD PUSH2 0x12B8 DUP2 PUSH2 0xFB7 JUMP JUMPDEST SWAP4 POP PUSH1 0x40 DUP7 ADD CALLDATALOAD SWAP3 POP PUSH1 0x60 DUP7 ADD CALLDATALOAD PUSH1 0x1 PUSH1 0x1 PUSH1 0x40 SHL SUB DUP2 GT ISZERO PUSH2 0x12DA JUMPI PUSH1 0x0 DUP1 REVERT JUMPDEST PUSH2 0x12E6 DUP9 DUP3 DUP10 ADD PUSH2 0xFCF JUMP JUMPDEST SWAP7 SWAP10 SWAP6 SWAP9 POP SWAP4 SWAP7 POP SWAP3 SWAP5 SWAP4 SWAP3 POP POP POP JUMP JUMPDEST PUSH1 0x0 DUP1 PUSH1 0x0 PUSH1 0x40 DUP5 DUP7 SUB SLT ISZERO PUSH2 0x130C JUMPI PUSH1 0x0 DUP1 REVERT JUMPDEST DUP4 CALLDATALOAD SWAP3 POP PUSH1 0x20 DUP5 ADD CALLDATALOAD PUSH1 0x1 PUSH1 0x1 PUSH1 0x40 SHL SUB DUP2 GT ISZERO PUSH2 0x1329 JUMPI PUSH1 0x0 DUP1 REVERT JUMPDEST PUSH2 0x1335 DUP7 DUP3 DUP8 ADD PUSH2 0xFCF JUMP JUMPDEST SWAP5 SWAP8 SWAP1 SWAP7 POP SWAP4 SWAP5 POP POP POP POP JUMP JUMPDEST PUSH1 0x0 DUP1 PUSH1 0x40 DUP4 DUP6 SUB SLT ISZERO PUSH2 0x1355 JUMPI PUSH1 0x0 DUP1 REVERT JUMPDEST DUP3 CALLDATALOAD PUSH1 0x1 PUSH1 0x1 PUSH1 0x40 SHL SUB DUP1 DUP3 GT ISZERO PUSH2 0x136C JUMPI PUSH1 0x0 DUP1 REVERT JUMPDEST PUSH2 0x1378 DUP7 DUP4 DUP8 ADD PUSH2 0x1167 JUMP JUMPDEST SWAP4 POP PUSH1 0x20 DUP6 ADD CALLDATALOAD SWAP2 POP DUP1 DUP3 GT ISZERO PUSH2 0x138E JUMPI PUSH1 0x0 DUP1 REVERT JUMPDEST POP PUSH2 0x139B DUP6 DUP3 DUP7 ADD PUSH2 0x1167 JUMP JUMPDEST SWAP2 POP POP SWAP3 POP SWAP3 SWAP1 POP JUMP JUMPDEST PUSH1 0x0 DUP1 PUSH1 0x40 DUP4 DUP6 SUB SLT ISZERO PUSH2 0x13B8 JUMPI PUSH1 0x0 DUP1 REVERT JUMPDEST DUP3 CALLDATALOAD PUSH2 0x13C3 DUP2 PUSH2 0xFB7 JUMP JUMPDEST SWAP2 POP PUSH1 0x20 DUP4 ADD CALLDATALOAD PUSH1 0x1 PUSH1 0x1 PUSH1 0x40 SHL SUB DUP2 GT ISZERO PUSH2 0x13DE JUMPI PUSH1 0x0 DUP1 REVERT JUMPDEST PUSH2 0x139B DUP6 DUP3 DUP7 ADD PUSH2 0x1167 JUMP JUMPDEST PUSH1 0x0 JUMPDEST DUP4 DUP2 LT ISZERO PUSH2 0x1405 JUMPI DUP2 DUP2 ADD MLOAD DUP4 DUP3 ADD MSTORE PUSH1 0x20 ADD PUSH2 0x13ED JUMP JUMPDEST POP POP PUSH1 0x0 SWAP2 ADD MSTORE JUMP JUMPDEST PUSH1 0x0 DUP2 MLOAD DUP1 DUP5 MSTORE PUSH2 0x1426 DUP2 PUSH1 0x20 DUP7 ADD PUSH1 0x20 DUP7 ADD PUSH2 0x13EA JUMP JUMPDEST PUSH1 0x1F ADD PUSH1 0x1F NOT AND SWAP3 SWAP1 SWAP3 ADD PUSH1 0x20 ADD SWAP3 SWAP2 POP POP JUMP JUMPDEST PUSH1 0x20 DUP2 MSTORE PUSH1 0x0 PUSH2 0x4F1 PUSH1 0x20 DUP4 ADD DUP5 PUSH2 0x140E JUMP JUMPDEST PUSH1 0x0 DUP1 PUSH1 0x0 DUP1 PUSH1 0x80 DUP6 DUP8 SUB SLT ISZERO PUSH2 0x1463 JUMPI PUSH1 0x0 DUP1 REVERT JUMPDEST DUP5 CALLDATALOAD PUSH2 0x146E DUP2 PUSH2 0xFB7 JUMP JUMPDEST SWAP4 POP PUSH1 0x20 DUP6 ADD CALLDATALOAD SWAP3 POP PUSH1 0x40 DUP6 ADD CALLDATALOAD PUSH2 0x1485 DUP2 PUSH2 0xFB7 JUMP JUMPDEST SWAP2 POP PUSH1 0x60 DUP6 ADD CALLDATALOAD PUSH1 0x1 PUSH1 0x1 PUSH1 0x40 SHL SUB DUP2 GT ISZERO PUSH2 0x14A0 JUMPI PUSH1 0x0 DUP1 REVERT JUMPDEST PUSH2 0x14AC DUP8 DUP3 DUP9 ADD PUSH2 0x1167 JUMP JUMPDEST SWAP2 POP POP SWAP3 SWAP6 SWAP2 SWAP5 POP SWAP3 POP JUMP JUMPDEST PUSH1 0x0 PUSH2 0x160 DUP3 DUP5 SUB SLT ISZERO PUSH2 0x14CB JUMPI PUSH1 0x0 DUP1 REVERT JUMPDEST POP SWAP2 SWAP1 POP JUMP JUMPDEST PUSH1 0x0 DUP1 PUSH1 0x0 PUSH1 0x60 DUP5 DUP7 SUB SLT ISZERO PUSH2 0x14E6 JUMPI PUSH1 0x0 DUP1 REVERT JUMPDEST DUP4 CALLDATALOAD PUSH1 0x1 PUSH1 0x1 PUSH1 0x40 SHL SUB DUP2 GT ISZERO PUSH2 0x14FC JUMPI PUSH1 0x0 DUP1 REVERT JUMPDEST PUSH2 0x1508 DUP7 DUP3 DUP8 ADD PUSH2 0x14B8 JUMP JUMPDEST SWAP7 PUSH1 0x20 DUP7 ADD CALLDATALOAD SWAP7 POP PUSH1 0x40 SWAP1 SWAP6 ADD CALLDATALOAD SWAP5 SWAP4 POP POP POP POP JUMP JUMPDEST PUSH1 0x0 DUP1 PUSH1 0x0 DUP1 PUSH1 0x80 DUP6 DUP8 SUB SLT ISZERO PUSH2 0x1534 JUMPI PUSH1 0x0 DUP1 REVERT JUMPDEST DUP5 CALLDATALOAD PUSH2 0x153F DUP2 PUSH2 0xFB7 JUMP JUMPDEST SWAP4 POP PUSH1 0x20 DUP6 ADD CALLDATALOAD SWAP3 POP PUSH1 0x40 DUP6 ADD CALLDATALOAD PUSH1 0x1 PUSH1 0x1 PUSH1 0x40 SHL SUB DUP2 GT ISZERO PUSH2 0x1561 JUMPI PUSH1 0x0 DUP1 REVERT JUMPDEST PUSH2 0x156D DUP8 DUP3 DUP9 ADD PUSH2 0x1167 JUMP JUMPDEST SWAP3 POP POP PUSH1 0x60 DUP6 ADD CALLDATALOAD PUSH1 0xFF DUP2 AND DUP2 EQ PUSH2 0x1584 JUMPI PUSH1 0x0 DUP1 REVERT JUMPDEST SWAP4 SWAP7 SWAP3 SWAP6 POP SWAP1 SWAP4 POP POP JUMP JUMPDEST PUSH1 0x20 DUP1 DUP3 MSTORE DUP3 MLOAD DUP3 DUP3 ADD DUP2 SWAP1 MSTORE PUSH1 0x0 SWAP2 SWAP1 DUP5 DUP3 ADD SWAP1 PUSH1 0x40 DUP6 ADD SWAP1 DUP5 JUMPDEST DUP2 DUP2 LT ISZERO PUSH2 0x15D0 JUMPI DUP4 MLOAD PUSH1 0x1 PUSH1 0x1 PUSH1 0xA0 SHL SUB AND DUP4 MSTORE SWAP3 DUP5 ADD SWAP3 SWAP2 DUP5 ADD SWAP2 PUSH1 0x1 ADD PUSH2 0x15AB JUMP JUMPDEST POP SWAP1 SWAP7 SWAP6 POP POP POP POP POP POP JUMP JUMPDEST PUSH1 0x0 PUSH1 0x20 DUP3 DUP5 SUB SLT ISZERO PUSH2 0x15EE JUMPI PUSH1 0x0 DUP1 REVERT JUMPDEST DUP2 CALLDATALOAD PUSH1 0x1 PUSH1 0x1 PUSH1 0x40 SHL SUB DUP2 GT ISZERO PUSH2 0x1604 JUMPI PUSH1 0x0 DUP1 REVERT JUMPDEST PUSH2 0x11F1 DUP5 DUP3 DUP6 ADD PUSH2 0x14B8 JUMP JUMPDEST PUSH1 0x0 DUP1 DUP4 PUSH1 0x1F DUP5 ADD SLT PUSH2 0x1622 JUMPI PUSH1 0x0 DUP1 REVERT JUMPDEST POP DUP2 CALLDATALOAD PUSH1 0x1 PUSH1 0x1 PUSH1 0x40 SHL SUB DUP2 GT ISZERO PUSH2 0x1639 JUMPI PUSH1 0x0 DUP1 REVERT JUMPDEST PUSH1 0x20 DUP4 ADD SWAP2 POP DUP4 PUSH1 0x20 DUP3 PUSH1 0x5 SHL DUP6 ADD ADD GT ISZERO PUSH2 0x1010 JUMPI PUSH1 0x0 DUP1 REVERT JUMPDEST PUSH1 0x0 DUP1 PUSH1 0x0 DUP1 PUSH1 0x0 DUP1 PUSH1 0x0 DUP1 PUSH1 0xA0 DUP10 DUP12 SUB SLT ISZERO PUSH2 0x1670 JUMPI PUSH1 0x0 DUP1 REVERT JUMPDEST DUP9 CALLDATALOAD PUSH2 0x167B DUP2 PUSH2 0xFB7 JUMP JUMPDEST SWAP8 POP PUSH1 0x20 DUP10 ADD CALLDATALOAD PUSH2 0x168B DUP2 PUSH2 0xFB7 JUMP JUMPDEST SWAP7 POP PUSH1 0x40 DUP10 ADD CALLDATALOAD PUSH1 0x1 PUSH1 0x1 PUSH1 0x40 SHL SUB DUP1 DUP3 GT ISZERO PUSH2 0x16A7 JUMPI PUSH1 0x0 DUP1 REVERT JUMPDEST PUSH2 0x16B3 DUP13 DUP4 DUP14 ADD PUSH2 0x1610 JUMP JUMPDEST SWAP1 SWAP9 POP SWAP7 POP PUSH1 0x60 DUP12 ADD CALLDATALOAD SWAP2 POP DUP1 DUP3 GT ISZERO PUSH2 0x16CC JUMPI PUSH1 0x0 DUP1 REVERT JUMPDEST PUSH2 0x16D8 DUP13 DUP4 DUP14 ADD PUSH2 0x1610 JUMP JUMPDEST SWAP1 SWAP7 POP SWAP5 POP PUSH1 0x80 DUP12 ADD CALLDATALOAD SWAP2 POP DUP1 DUP3 GT ISZERO PUSH2 0x10A6 JUMPI PUSH1 0x0 DUP1 REVERT JUMPDEST PUSH1 0x0 DUP1 PUSH1 0x0 PUSH1 0x40 DUP5 DUP7 SUB SLT ISZERO PUSH2 0x1706 JUMPI PUSH1 0x0 DUP1 REVERT JUMPDEST DUP4 CALLDATALOAD PUSH2 0x1711 DUP2 PUSH2 0xFB7 JUMP JUMPDEST SWAP3 POP PUSH1 0x20 DUP5 ADD CALLDATALOAD PUSH1 0x1 PUSH1 0x1 PUSH1 0x40 SHL SUB DUP2 GT ISZERO PUSH2 0x1329 JUMPI PUSH1 0x0 DUP1 REVERT JUMPDEST PUSH1 0x0 DUP1 PUSH1 0x0 DUP1 PUSH1 0x0 DUP1 PUSH1 0xA0 DUP8 DUP10 SUB SLT ISZERO PUSH2 0x1745 JUMPI PUSH1 0x0 DUP1 REVERT JUMPDEST DUP7 CALLDATALOAD PUSH2 0x1750 DUP2 PUSH2 0xFB7 JUMP JUMPDEST SWAP6 POP PUSH1 0x20 DUP8 ADD CALLDATALOAD PUSH2 0x1760 DUP2 PUSH2 0xFB7 JUMP JUMPDEST SWAP5 POP PUSH1 0x40 DUP8 ADD CALLDATALOAD SWAP4 POP PUSH1 0x60 DUP8 ADD CALLDATALOAD SWAP3 POP PUSH1 0x80 DUP8 ADD CALLDATALOAD PUSH1 0x1 PUSH1 0x1 PUSH1 0x40 SHL SUB DUP2 GT ISZERO PUSH2 0x1789 JUMPI PUSH1 0x0 DUP1 REVERT JUMPDEST PUSH2 0x1795 DUP10 DUP3 DUP11 ADD PUSH2 0xFCF JUMP JUMPDEST SWAP8 SWAP11 SWAP7 SWAP10 POP SWAP5 SWAP8 POP SWAP3 SWAP6 SWAP4 SWAP5 SWAP3 POP POP POP JUMP JUMPDEST DUP2 DUP4 MSTORE DUP2 DUP2 PUSH1 0x20 DUP6 ADD CALLDATACOPY POP PUSH1 0x0 DUP3 DUP3 ADD PUSH1 0x20 SWAP1 DUP2 ADD SWAP2 SWAP1 SWAP2 MSTORE PUSH1 0x1F SWAP1 SWAP2 ADD PUSH1 0x1F NOT AND SWAP1 SWAP2 ADD ADD SWAP1 JUMP JUMPDEST PUSH1 0x40 DUP2 MSTORE PUSH1 0x0 PUSH2 0x17E3 PUSH1 0x40 DUP4 ADD DUP7 PUSH2 0x140E JUMP JUMPDEST DUP3 DUP2 SUB PUSH1 0x20 DUP5 ADD MSTORE PUSH2 0x17F6 DUP2 DUP6 DUP8 PUSH2 0x17A7 JUMP JUMPDEST SWAP7 SWAP6 POP POP POP POP POP POP JUMP JUMPDEST PUSH1 0x0 PUSH1 0x20 DUP3 DUP5 SUB SLT ISZERO PUSH2 0x1812 JUMPI PUSH1 0x0 DUP1 REVERT JUMPDEST DUP2 MLOAD PUSH2 0x4F1 DUP2 PUSH2 0x10C7 JUMP JUMPDEST PUSH1 0x0 PUSH1 0x20 DUP3 DUP5 SUB SLT ISZERO PUSH2 0x182F JUMPI PUSH1 0x0 DUP1 REVERT JUMPDEST POP MLOAD SWAP2 SWAP1 POP JUMP JUMPDEST DUP4 DUP2 MSTORE PUSH1 0x60 PUSH1 0x20 DUP3 ADD MSTORE PUSH1 0x0 PUSH2 0x184F PUSH1 0x60 DUP4 ADD DUP6 PUSH2 0x140E JUMP JUMPDEST DUP3 DUP2 SUB PUSH1 0x40 DUP5 ADD MSTORE PUSH2 0x17F6 DUP2 DUP6 PUSH2 0x140E JUMP JUMPDEST PUSH1 0x0 PUSH1 0x20 DUP3 DUP5 SUB SLT ISZERO PUSH2 0x1873 JUMPI PUSH1 0x0 DUP1 REVERT JUMPDEST DUP2 CALLDATALOAD PUSH2 0x4F1 DUP2 PUSH2 0xFB7 JUMP JUMPDEST PUSH1 0x0 DUP1 DUP4 CALLDATALOAD PUSH1 0x1E NOT DUP5 CALLDATASIZE SUB ADD DUP2 SLT PUSH2 0x1895 JUMPI PUSH1 0x0 DUP1 REVERT JUMPDEST DUP4 ADD DUP1 CALLDATALOAD SWAP2 POP PUSH1 0x1 PUSH1 0x1 PUSH1 0x40 SHL SUB DUP3 GT ISZERO PUSH2 0x18AF JUMPI PUSH1 0x0 DUP1 REVERT JUMPDEST PUSH1 0x20 ADD SWAP2 POP CALLDATASIZE DUP2 SWAP1 SUB DUP3 SGT ISZERO PUSH2 0x1010 JUMPI PUSH1 0x0 DUP1 REVERT JUMPDEST PUSH1 0x1 PUSH1 0x1 PUSH1 0xE0 SHL SUB NOT DUP2 CALLDATALOAD DUP2 DUP2 AND SWAP2 PUSH1 0x4 DUP6 LT ISZERO PUSH2 0x18EC JUMPI DUP1 DUP2 DUP7 PUSH1 0x4 SUB PUSH1 0x3 SHL SHL DUP4 AND AND SWAP3 POP JUMPDEST POP POP SWAP3 SWAP2 POP POP JUMP JUMPDEST PUSH1 0x0 PUSH1 0x20 DUP3 DUP5 SUB SLT ISZERO PUSH2 0x1906 JUMPI PUSH1 0x0 DUP1 REVERT JUMPDEST DUP2 MLOAD PUSH2 0x4F1 DUP2 PUSH2 0x11F9 JUMP JUMPDEST PUSH1 0x1 DUP1 PUSH1 0xA0 SHL SUB DUP6 AND DUP2 MSTORE DUP4 PUSH1 0x20 DUP3 ADD MSTORE PUSH1 0x80 PUSH1 0x40 DUP3 ADD MSTORE PUSH1 0x0 PUSH2 0x1938 PUSH1 0x80 DUP4 ADD DUP6 PUSH2 0x140E JUMP JUMPDEST SWAP1 POP PUSH1 0xFF DUP4 AND PUSH1 0x60 DUP4 ADD MSTORE SWAP6 SWAP5 POP POP POP POP POP JUMP JUMPDEST PUSH1 0x0 DUP1 PUSH1 0x40 DUP4 DUP6 SUB SLT ISZERO PUSH2 0x195F JUMPI PUSH1 0x0 DUP1 REVERT JUMPDEST DUP3 MLOAD PUSH2 0x196A DUP2 PUSH2 0x11F9 JUMP JUMPDEST PUSH1 0x20 DUP5 ADD MLOAD SWAP1 SWAP3 POP PUSH1 0x1 PUSH1 0x1 PUSH1 0x40 SHL SUB DUP2 GT ISZERO PUSH2 0x1986 JUMPI PUSH1 0x0 DUP1 REVERT JUMPDEST DUP4 ADD PUSH1 0x1F DUP2 ADD DUP6 SGT PUSH2 0x1997 JUMPI PUSH1 0x0 DUP1 REVERT JUMPDEST DUP1 MLOAD PUSH2 0x19A5 PUSH2 0x1186 DUP3 PUSH2 0x1140 JUMP JUMPDEST DUP2 DUP2 MSTORE DUP7 PUSH1 0x20 DUP4 DUP6 ADD ADD GT ISZERO PUSH2 0x19BA JUMPI PUSH1 0x0 DUP1 REVERT JUMPDEST PUSH2 0x19CB DUP3 PUSH1 0x20 DUP4 ADD PUSH1 0x20 DUP7 ADD PUSH2 0x13EA JUMP JUMPDEST DUP1 SWAP4 POP POP POP POP SWAP3 POP SWAP3 SWAP1 POP JUMP JUMPDEST DUP1 MLOAD PUSH2 0x19E3 DUP2 PUSH2 0xFB7 JUMP JUMPDEST SWAP2 SWAP1 POP JUMP JUMPDEST PUSH1 0x0 DUP1 PUSH1 0x40 DUP4 DUP6 SUB SLT ISZERO PUSH2 0x19FB JUMPI PUSH1 0x0 DUP1 REVERT JUMPDEST DUP3 MLOAD PUSH1 0x1 PUSH1 0x1 PUSH1 0x40 SHL SUB DUP1 DUP3 GT ISZERO PUSH2 0x1A12 JUMPI PUSH1 0x0 DUP1 REVERT JUMPDEST DUP2 DUP6 ADD SWAP2 POP DUP6 PUSH1 0x1F DUP4 ADD SLT PUSH2 0x1A26 JUMPI PUSH1 0x0 DUP1 REVERT JUMPDEST DUP2 MLOAD PUSH1 0x20 DUP3 DUP3 GT ISZERO PUSH2 0x1A3A JUMPI PUSH2 0x1A3A PUSH2 0x10FA JUMP JUMPDEST DUP2 PUSH1 0x5 SHL SWAP3 POP PUSH2 0x1A4B DUP2 DUP5 ADD PUSH2 0x1110 JUMP JUMPDEST DUP3 DUP2 MSTORE SWAP3 DUP5 ADD DUP2 ADD SWAP3 DUP2 DUP2 ADD SWAP1 DUP10 DUP6 GT ISZERO PUSH2 0x1A65 JUMPI PUSH1 0x0 DUP1 REVERT JUMPDEST SWAP5 DUP3 ADD SWAP5 JUMPDEST DUP5 DUP7 LT ISZERO PUSH2 0x1A8F JUMPI DUP6 MLOAD SWAP4 POP PUSH2 0x1A7F DUP5 PUSH2 0xFB7 JUMP JUMPDEST DUP4 DUP3 MSTORE SWAP5 DUP3 ADD SWAP5 SWAP1 DUP3 ADD SWAP1 PUSH2 0x1A6A JUMP JUMPDEST SWAP7 POP PUSH2 0x1A9E SWAP1 POP DUP8 DUP3 ADD PUSH2 0x19D8 JUMP JUMPDEST SWAP5 POP POP POP POP POP SWAP3 POP SWAP3 SWAP1 POP JUMP JUMPDEST DUP5 DUP2 MSTORE PUSH1 0x60 PUSH1 0x20 DUP3 ADD MSTORE PUSH1 0x0 PUSH2 0x1AC4 PUSH1 0x60 DUP4 ADD DUP7 PUSH2 0x140E JUMP JUMPDEST DUP3 DUP2 SUB PUSH1 0x40 DUP5 ADD MSTORE PUSH2 0x1AD7 DUP2 DUP6 DUP8 PUSH2 0x17A7 JUMP JUMPDEST SWAP8 SWAP7 POP POP POP POP POP POP POP JUMP JUMPDEST PUSH1 0x0 DUP1 DUP6 DUP6 GT ISZERO PUSH2 0x1AF2 JUMPI PUSH1 0x0 DUP1 REVERT JUMPDEST DUP4 DUP7 GT ISZERO PUSH2 0x1AFF JUMPI PUSH1 0x0 DUP1 REVERT JUMPDEST POP POP DUP3 ADD SWAP4 SWAP2 SWAP1 SWAP3 SUB SWAP2 POP JUMP JUMPDEST PUSH1 0x1 PUSH1 0x1 PUSH1 0xD0 SHL SUB NOT DUP2 CALLDATALOAD DUP2 DUP2 AND SWAP2 PUSH1 0x6 DUP6 LT ISZERO PUSH2 0x18EC JUMPI PUSH1 0x6 SWAP5 SWAP1 SWAP5 SUB PUSH1 0x3 SHL DUP5 SWAP1 SHL AND SWAP1 SWAP3 AND SWAP3 SWAP2 POP POP JUMP JUMPDEST DUP2 DUP4 DUP3 CALLDATACOPY PUSH1 0x0 SWAP2 ADD SWAP1 DUP2 MSTORE SWAP2 SWAP1 POP JUMP INVALID LOG2 PUSH5 0x6970667358 0x22 SLT KECCAK256 KECCAK256 PUSH9 0x1C353438C038DC7CEB 0x22 EQ DUP8 0xAD DUP10 DUP7 0xBD LOG1 0xEB SAR PC 0x1E 0xD4 STATICCALL 0xA5 0xD8 0xA5 0xD7 PUSH6 0xA8B564736F6C PUSH4 0x43000817 STOP CALLER "},"gasEstimates":{"creation":{"codeDepositCost":"1408000","executionCost":"infinite","totalCost":"infinite"},"external":{"ACROSS_BRIDGE()":"infinite","SUPPORTED_ENTRYPOINT()":"infinite","domainSeparator()":"525","encodeMessageDataForSafe(address,bytes)":"infinite","executeUserOp(address,uint256,bytes,uint8)":"infinite","executeUserOpWithErrorString(address,uint256,bytes,uint8)":"infinite","getMessageHash(bytes)":"infinite","getMessageHashForSafe(address,bytes)":"infinite","getModules()":"infinite","getOperationHash((address,uint256,bytes,bytes,uint256,uint256,uint256,uint256,uint256,bytes,bytes))":"infinite","handleAcrossMessage(address,uint256,bool,address,bytes)":"infinite","handleV3AcrossMessage(address,uint256,address,bytes)":"infinite","isValidSignature(bytes,bytes)":"infinite","isValidSignature(bytes32,bytes)":"infinite","onERC1155BatchReceived(address,address,uint256[],uint256[],bytes)":"infinite","onERC1155Received(address,address,uint256,uint256,bytes)":"infinite","onERC721Received(address,address,uint256,bytes)":"infinite","simulate(address,bytes)":"infinite","supportsInterface(bytes4)":"556","tokensReceived(address,address,address,uint256,bytes,bytes)":"infinite","validateUserOp((address,uint256,bytes,bytes,uint256,uint256,uint256,uint256,uint256,bytes,bytes),bytes32,uint256)":"infinite"}},"methodIdentifiers":{"ACROSS_BRIDGE()":"2f3ab804","SUPPORTED_ENTRYPOINT()":"137e051e","domainSeparator()":"f698da25","encodeMessageDataForSafe(address,bytes)":"23031640","executeUserOp(address,uint256,bytes,uint8)":"7bb37428","executeUserOpWithErrorString(address,uint256,bytes,uint8)":"541d63c8","getMessageHash(bytes)":"0a1028c4","getMessageHashForSafe(address,bytes)":"6ac24784","getModules()":"b2494df3","getOperationHash((address,uint256,bytes,bytes,uint256,uint256,uint256,uint256,uint256,bytes,bytes))":"b25f3776","handleAcrossMessage(address,uint256,bool,address,bytes)":"0ea1f938","handleV3AcrossMessage(address,uint256,address,bytes)":"3a5be8cb","isValidSignature(bytes,bytes)":"20c13b0b","isValidSignature(bytes32,bytes)":"1626ba7e","onERC1155BatchReceived(address,address,uint256[],uint256[],bytes)":"bc197c81","onERC1155Received(address,address,uint256,uint256,bytes)":"f23a6e61","onERC721Received(address,address,uint256,bytes)":"150b7a02","simulate(address,bytes)":"bd61951d","supportsInterface(bytes4)":"01ffc9a7","tokensReceived(address,address,address,uint256,bytes,bytes)":"0023de29","validateUserOp((address,uint256,bytes,bytes,uint256,uint256,uint256,uint256,uint256,bytes,bytes),bytes32,uint256)":"3a871cdd"}},"storageLayout":{"storage":[],"types":null},"userdoc":{"errors":{"InvalidBridge()":[{"notice":"Reverted if address is not bridge"}],"InvalidEntryPoint()":[{"notice":"Reverted if attempting to execute userOp from invalid sender"}]},"kind":"user","methods":{"SUPPORTED_ENTRYPOINT()":{"notice":"The address of the EntryPoint contract supported by this module."},"domainSeparator()":{"notice":"Computes the 32-byte domain separator used in EIP-712 signature verification for Safe operations."},"executeUserOp(address,uint256,bytes,uint8)":{"notice":"Executes a user operation provided by the entry point."},"executeUserOpWithErrorString(address,uint256,bytes,uint8)":{"notice":"Executes a user operation provided by the entry point and returns error message on failure."},"getOperationHash((address,uint256,bytes,bytes,uint256,uint256,uint256,uint256,uint256,bytes,bytes))":{"notice":"Returns the 32-byte Safe operation hash to be signed by owners for the specified ERC-4337 user operation."},"isValidSignature(bytes,bytes)":{"notice":"Legacy EIP-1271 signature validation method."},"isValidSignature(bytes32,bytes)":{"notice":"Implementation of updated EIP-1271 signature validation method."},"onERC1155BatchReceived(address,address,uint256[],uint256[],bytes)":{"notice":"Handles ERC1155 Token batch callback. return Standardized onERC1155BatchReceived return value."},"onERC1155Received(address,address,uint256,uint256,bytes)":{"notice":"Handles ERC1155 Token callback. return Standardized onERC1155Received return value."},"onERC721Received(address,address,uint256,bytes)":{"notice":"Handles ERC721 Token callback.  return Standardized onERC721Received return value."},"supportsInterface(bytes4)":{"notice":"Implements ERC165 interface support for ERC1155TokenReceiver, ERC721TokenReceiver and IERC165."},"tokensReceived(address,address,address,uint256,bytes,bytes)":{"notice":"Handles ERC777 Token callback. return nothing (not standardized)"},"validateUserOp((address,uint256,bytes,bytes,uint256,uint256,uint256,uint256,uint256,bytes,bytes),bytes32,uint256)":{"notice":"Validates a user operation provided by the entry point."}},"notice":"ERC-4337 abstract account module enabling cross-chain userOp execution powered by Across V3 Bridge and Safe","version":1}}}}