{"contracts/OmnaccountModule.sol":{"OmnaccountModule":{"abi":[{"inputs":[{"internalType":"address","name":"entrypoint","type":"address"},{"internalType":"address","name":"spokePool","type":"address"}],"stateMutability":"nonpayable","type":"constructor"},{"inputs":[],"name":"InvalidEntryPoint","type":"error"},{"inputs":[],"name":"SUPPORTED_ENTRYPOINT","outputs":[{"internalType":"address","name":"","type":"address"}],"stateMutability":"view","type":"function"},{"inputs":[],"name":"domainSeparator","outputs":[{"internalType":"bytes32","name":"domainSeparatorHash","type":"bytes32"}],"stateMutability":"view","type":"function"},{"inputs":[{"internalType":"contract Safe","name":"safe","type":"address"},{"internalType":"bytes","name":"message","type":"bytes"}],"name":"encodeMessageDataForSafe","outputs":[{"internalType":"bytes","name":"","type":"bytes"}],"stateMutability":"view","type":"function"},{"inputs":[{"internalType":"address","name":"to","type":"address"},{"internalType":"uint256","name":"value","type":"uint256"},{"internalType":"bytes","name":"data","type":"bytes"},{"internalType":"uint8","name":"operation","type":"uint8"}],"name":"executeUserOp","outputs":[],"stateMutability":"nonpayable","type":"function"},{"inputs":[{"internalType":"address","name":"to","type":"address"},{"internalType":"uint256","name":"value","type":"uint256"},{"internalType":"bytes","name":"data","type":"bytes"},{"internalType":"uint8","name":"operation","type":"uint8"}],"name":"executeUserOpWithErrorString","outputs":[],"stateMutability":"nonpayable","type":"function"},{"inputs":[{"internalType":"bytes","name":"message","type":"bytes"}],"name":"getMessageHash","outputs":[{"internalType":"bytes32","name":"","type":"bytes32"}],"stateMutability":"view","type":"function"},{"inputs":[{"internalType":"contract Safe","name":"safe","type":"address"},{"internalType":"bytes","name":"message","type":"bytes"}],"name":"getMessageHashForSafe","outputs":[{"internalType":"bytes32","name":"","type":"bytes32"}],"stateMutability":"view","type":"function"},{"inputs":[],"name":"getModules","outputs":[{"internalType":"address[]","name":"","type":"address[]"}],"stateMutability":"view","type":"function"},{"inputs":[{"components":[{"internalType":"address","name":"sender","type":"address"},{"internalType":"uint256","name":"nonce","type":"uint256"},{"internalType":"bytes","name":"initCode","type":"bytes"},{"internalType":"bytes","name":"callData","type":"bytes"},{"internalType":"uint256","name":"callGasLimit","type":"uint256"},{"internalType":"uint256","name":"verificationGasLimit","type":"uint256"},{"internalType":"uint256","name":"preVerificationGas","type":"uint256"},{"internalType":"uint256","name":"maxFeePerGas","type":"uint256"},{"internalType":"uint256","name":"maxPriorityFeePerGas","type":"uint256"},{"internalType":"bytes","name":"paymasterAndData","type":"bytes"},{"internalType":"bytes","name":"signature","type":"bytes"}],"internalType":"struct UserOperation","name":"userOp","type":"tuple"}],"name":"getOperationHash","outputs":[{"internalType":"bytes32","name":"operationHash","type":"bytes32"}],"stateMutability":"view","type":"function"},{"inputs":[{"internalType":"bytes32","name":"_dataHash","type":"bytes32"},{"internalType":"bytes","name":"_signature","type":"bytes"}],"name":"isValidSignature","outputs":[{"internalType":"bytes4","name":"","type":"bytes4"}],"stateMutability":"view","type":"function"},{"inputs":[{"internalType":"bytes","name":"_data","type":"bytes"},{"internalType":"bytes","name":"_signature","type":"bytes"}],"name":"isValidSignature","outputs":[{"internalType":"bytes4","name":"","type":"bytes4"}],"stateMutability":"view","type":"function"},{"inputs":[{"internalType":"address","name":"","type":"address"},{"internalType":"address","name":"","type":"address"},{"internalType":"uint256[]","name":"","type":"uint256[]"},{"internalType":"uint256[]","name":"","type":"uint256[]"},{"internalType":"bytes","name":"","type":"bytes"}],"name":"onERC1155BatchReceived","outputs":[{"internalType":"bytes4","name":"","type":"bytes4"}],"stateMutability":"pure","type":"function"},{"inputs":[{"internalType":"address","name":"","type":"address"},{"internalType":"address","name":"","type":"address"},{"internalType":"uint256","name":"","type":"uint256"},{"internalType":"uint256","name":"","type":"uint256"},{"internalType":"bytes","name":"","type":"bytes"}],"name":"onERC1155Received","outputs":[{"internalType":"bytes4","name":"","type":"bytes4"}],"stateMutability":"pure","type":"function"},{"inputs":[{"internalType":"address","name":"","type":"address"},{"internalType":"address","name":"","type":"address"},{"internalType":"uint256","name":"","type":"uint256"},{"internalType":"bytes","name":"","type":"bytes"}],"name":"onERC721Received","outputs":[{"internalType":"bytes4","name":"","type":"bytes4"}],"stateMutability":"pure","type":"function"},{"inputs":[{"internalType":"address","name":"targetContract","type":"address"},{"internalType":"bytes","name":"calldataPayload","type":"bytes"}],"name":"simulate","outputs":[{"internalType":"bytes","name":"response","type":"bytes"}],"stateMutability":"nonpayable","type":"function"},{"inputs":[{"internalType":"bytes4","name":"interfaceId","type":"bytes4"}],"name":"supportsInterface","outputs":[{"internalType":"bool","name":"","type":"bool"}],"stateMutability":"view","type":"function"},{"inputs":[{"internalType":"address","name":"","type":"address"},{"internalType":"address","name":"","type":"address"},{"internalType":"address","name":"","type":"address"},{"internalType":"uint256","name":"","type":"uint256"},{"internalType":"bytes","name":"","type":"bytes"},{"internalType":"bytes","name":"","type":"bytes"}],"name":"tokensReceived","outputs":[],"stateMutability":"pure","type":"function"},{"inputs":[{"components":[{"internalType":"address","name":"sender","type":"address"},{"internalType":"uint256","name":"nonce","type":"uint256"},{"internalType":"bytes","name":"initCode","type":"bytes"},{"internalType":"bytes","name":"callData","type":"bytes"},{"internalType":"uint256","name":"callGasLimit","type":"uint256"},{"internalType":"uint256","name":"verificationGasLimit","type":"uint256"},{"internalType":"uint256","name":"preVerificationGas","type":"uint256"},{"internalType":"uint256","name":"maxFeePerGas","type":"uint256"},{"internalType":"uint256","name":"maxPriorityFeePerGas","type":"uint256"},{"internalType":"bytes","name":"paymasterAndData","type":"bytes"},{"internalType":"bytes","name":"signature","type":"bytes"}],"internalType":"struct UserOperation","name":"userOp","type":"tuple"},{"internalType":"bytes32","name":"","type":"bytes32"},{"internalType":"uint256","name":"missingAccountFunds","type":"uint256"}],"name":"validateUserOp","outputs":[{"internalType":"uint256","name":"validationData","type":"uint256"}],"stateMutability":"nonpayable","type":"function"}],"devdoc":{"author":"KDon.eth","kind":"dev","methods":{"domainSeparator()":{"returns":{"domainSeparatorHash":"The EIP-712 domain separator hash for this contract."}},"encodeMessageDataForSafe(address,bytes)":{"details":"Returns the pre-image of the message hash (see getMessageHashForSafe).","params":{"message":"Message that should be encoded.","safe":"Safe to which the message is targeted."},"returns":{"_0":"Encoded message."}},"executeUserOp(address,uint256,bytes,uint8)":{"params":{"data":"Data payload of the user operation.","operation":"Operation type of the user operation.","to":"Destination address of the user operation.","value":"Ether value of the user operation."}},"executeUserOpWithErrorString(address,uint256,bytes,uint8)":{"params":{"data":"Data payload of the user operation.","operation":"Operation type of the user operation.","to":"Destination address of the user operation.","value":"Ether value of the user operation."}},"getMessageHash(bytes)":{"details":"Returns the hash of a message to be signed by owners.","params":{"message":"Raw message bytes."},"returns":{"_0":"Message hash."}},"getMessageHashForSafe(address,bytes)":{"details":"Returns hash of a message that can be signed by owners.","params":{"message":"Message that should be hashed.","safe":"Safe to which the message is targeted."},"returns":{"_0":"Message hash."}},"getModules()":{"details":"Returns array of first 10 modules.","returns":{"_0":"Array of modules."}},"getOperationHash((address,uint256,bytes,bytes,uint256,uint256,uint256,uint256,uint256,bytes,bytes))":{"details":"The Safe operation timestamps are pre-pended to the signature bytes as `abi.encodePacked(validAfter, validUntil, signatures)`.","params":{"userOp":"The ERC-4337 user operation."},"returns":{"operationHash":"Operation hash."}},"isValidSignature(bytes,bytes)":{"details":"Implementation of ISignatureValidator (see `interfaces/ISignatureValidator.sol`)","params":{"_data":"Arbitrary length data signed on the behalf of address(msg.sender).","_signature":"Signature byte array associated with _data."},"returns":{"_0":"The EIP-1271 magic value."}},"isValidSignature(bytes32,bytes)":{"params":{"_dataHash":"Hash of the data signed on the behalf of address(msg.sender)","_signature":"Signature byte array associated with _dataHash"},"returns":{"_0":"Updated EIP1271 magic value if signature is valid, otherwise 0x0"}},"simulate(address,bytes)":{"details":"Performs a delegatecall on a targetContract in the context of self. Internally reverts execution to avoid side effects (making it static). Catches revert and returns encoded result as bytes.Inspired by https://github.com/gnosis/util-contracts/blob/bb5fe5fb5df6d8400998094fb1b32a178a47c3a1/contracts/StorageAccessible.sol","params":{"calldataPayload":"Calldata that should be sent to the target contract (encoded method name and arguments).","targetContract":"Address of the contract containing the code to execute."}},"supportsInterface(bytes4)":{"params":{"interfaceId":"Id of the interface."},"returns":{"_0":"if the interface is supported."}},"validateUserOp((address,uint256,bytes,bytes,uint256,uint256,uint256,uint256,uint256,bytes,bytes),bytes32,uint256)":{"details":"Must validate caller is the entryPoint.      Must validate the signature and nonce","params":{"missingAccountFunds":"missing funds on the account's deposit in the entrypoint.      This is the minimum amount to transfer to the sender(entryPoint) to be able to make the call.      The excess is left as a deposit in the entrypoint, for future calls.      can be withdrawn anytime using \"entryPoint.withdrawTo()\"      In case there is a paymaster in the request (or the current deposit is high enough), this value will be zero.","userOp":"the operation that is about to be executed.","userOpHash":"hash of the user's request data. can be used as the basis for signature."},"returns":{"validationData":"packaged ValidationData structure. use `_packValidationData` and `_unpackValidationData` to encode and decode      <20-byte> sigAuthorizer - 0 for valid signature, 1 to mark signature failure,         otherwise, an address of an \"authorizer\" contract.      <6-byte> validUntil - last timestamp this operation is valid. 0 for \"indefinite\"      <6-byte> validAfter - first timestamp this operation is valid      If an account doesn't use time-range, it is enough to return SIG_VALIDATION_FAILED value (1) for signature failure.      Note that the validation code cannot use block.timestamp (or block.number) directly."}}},"title":"OmnaccountModule","version":1},"evm":{"bytecode":{"linkReferences":{},"object":"60a06040523480156200001157600080fd5b5060405162001a8f38038062001a8f833981016040819052620000349162000091565b81806001600160a01b0381166200005e57604051632039d3c960e01b815260040160405180910390fd5b6001600160a01b031660805250620000c9915050565b80516001600160a01b03811681146200008c57600080fd5b919050565b60008060408385031215620000a557600080fd5b620000b08362000074565b9150620000c06020840162000074565b90509250929050565b608051611995620000fa60003960008181610182015281816107e501528181610b700152610df801526119956000f3fe608060405234801561001057600080fd5b50600436106101155760003560e01c8063541d63c8116100a2578063b25f377611610071578063b25f37761461029b578063bc197c81146102ae578063bd61951d146102d0578063f23a6e61146102e3578063f698da251461030357600080fd5b8063541d63c81461024d5780636ac24784146102605780637bb3742814610273578063b2494df31461028657600080fd5b8063150b7a02116100e9578063150b7a02146101bc5780631626ba7e146101f457806320c13b0b14610207578063230316401461021a5780633a871cdd1461023a57600080fd5b806223de291461011a57806301ffc9a7146101345780630a1028c41461015c578063137e051e1461017d575b600080fd5b610132610128366004610f18565b5050505050505050565b005b610147610142366004610fde565b61030b565b60405190151581526020015b60405180910390f35b61016f61016a3660046110be565b61035d565b604051908152602001610153565b6101a47f000000000000000000000000000000000000000000000000000000000000000081565b6040516001600160a01b039091168152602001610153565b6101db6101ca3660046110fa565b630a85bd0160e11b95945050505050565b6040516001600160e01b03199091168152602001610153565b6101db61020236600461116c565b610369565b6101db6102153660046111b7565b610427565b61022d61022836600461121a565b610572565b60405161015391906112af565b61016f6102483660046112db565b610684565b61013261025b366004611328565b610880565b61016f61026e36600461121a565b61093c565b610132610281366004611328565b610957565b61028e610a36565b6040516101539190611399565b61016f6102a93660046113e6565b610aa9565b6101db6102bc36600461145e565b63bc197c8160e01b98975050505050505050565b61022d6102de3660046114fb565b610acb565b6101db6102f1366004611536565b63f23a6e6160e01b9695505050505050565b61016f610b15565b60006001600160e01b03198216630271189760e51b148061033c57506001600160e01b03198216630a85bd0160e11b145b8061035757506001600160e01b031982166301ffc9a760e01b145b92915050565b6000610357338361093c565b60408051602080820186905282518083039091018152818301928390526320c13b0b60e01b9092526000913391839183916320c13b0b916103b091899089906044016115da565b602060405180830381865afa1580156103cd573d6000803e3d6000fd5b505050506040513d601f19601f820116820180604052508101906103f1919061160a565b90506001600160e01b031981166320c13b0b60e01b1461041257600061041b565b630b135d3f60e11b5b925050505b9392505050565b600033816104358286610572565b805160208201208551919250906000036104ff57604051635ae6bd3760e01b8152600481018290526001600160a01b03841690635ae6bd3790602401602060405180830381865afa15801561048e573d6000803e3d6000fd5b505050506040513d601f19601f820116820180604052508101906104b29190611627565b6000036104fa5760405162461bcd60e51b815260206004820152601160248201527012185cda081b9bdd08185c1c1c9bdd9959607a1b60448201526064015b60405180910390fd5b610560565b60405163934f3a1160e01b81526001600160a01b0384169063934f3a119061052f90849086908a90600401611640565b60006040518083038186803b15801561054757600080fd5b505afa15801561055b573d6000803e3d6000fd5b505050505b506320c13b0b60e01b95945050505050565b606060007f60b3cbf8b4a223d68d641b3b6ddf9a298e7f33710cf3d3a9d1146b5a6150fbca60001b83805190602001206040516020016105bc929190918252602082015260400190565b604051602081830303815290604052805190602001209050601960f81b600160f81b856001600160a01b031663f698da256040518163ffffffff1660e01b8152600401602060405180830381865afa15801561061c573d6000803e3d6000fd5b505050506040513d601f19601f820116820180604052508101906106409190611627565b6040516001600160f81b0319938416602082015292909116602183015260228201526042810182905260620160405160208183030381529060405291505092915050565b600061069736601319013560601c610b6e565b6106b457604051632039d3c960e01b815260040160405180910390fd5b60006106c3602086018661166b565b90506001600160a01b038116331461070e5760405162461bcd60e51b815260206004820152600e60248201526d24b73b30b634b21031b0b63632b960911b60448201526064016104f1565b61071b6060860186611688565b610724916116ce565b6001600160e01b031916630f766e8560e31b1480610767575061074a6060860186611688565b610753916116ce565b6001600160e01b031916630a83ac7960e31b145b6107bd5760405162461bcd60e51b815260206004820152602160248201527f556e737570706f7274656420657865637574696f6e2066756e6374696f6e20696044820152601960fa1b60648201526084016104f1565b6107c685610ba0565b915082156108785760405163468721a760e01b81526001600160a01b037f0000000000000000000000000000000000000000000000000000000000000000811660048301526024820185905260806044830152600060848301819052606483015282169063468721a79060a4016020604051808303816000875af1158015610852573d6000803e3d6000fd5b505050506040513d601f19601f820116820180604052508101906108769190611713565b505b509392505050565b61089136601319013560601c610b6e565b6108ae57604051632039d3c960e01b815260040160405180910390fd5b604051635229073f60e01b815260009081903390635229073f906108dc90899089908990899060040161172e565b6000604051808303816000875af11580156108fb573d6000803e3d6000fd5b505050506040513d6000823e601f3d908101601f191682016040526109239190810190611769565b915091508161093457805160208201fd5b505050505050565b60006109488383610572565b80519060200120905092915050565b61096836601319013560601c610b6e565b61098557604051632039d3c960e01b815260040160405180910390fd5b60405163468721a760e01b8152339063468721a7906109ae90879087908790879060040161172e565b6020604051808303816000875af11580156109cd573d6000803e3d6000fd5b505050506040513d601f19601f820116820180604052508101906109f19190611713565b610a305760405162461bcd60e51b815260206004820152601060248201526f115e1958dd5d1a5bdb8819985a5b195960821b60448201526064016104f1565b50505050565b604051636617c22960e11b815260016004820152600a60248201526060903390600090829063cc2f845290604401600060405180830381865afa158015610a81573d6000803e3d6000fd5b505050506040513d6000823e601f3d908101601f1916820160405261087891908101906117fd565b600080610ab583610c5d565b5050505090508080519060200120915050919050565b606060405163b4faba0960e01b8152600436036004808301376020600036836000335af1505060203d036040519150808201604052806020833e5060005161042057805160208201fd5b604080517f47e79534a245952e8b16893a336b85a3d9ea9fa8c573f3d803afb92a794692186020820152469181019190915230606082015260009060800160405160208183030381529060405280519060200120905090565b7f00000000000000000000000000000000000000000000000000000000000000006001600160a01b0390811691161490565b600080600080366000610bb287610c5d565b939850919650945092509050610bcb602088018861166b565b8551602087012060405163934f3a1160e01b81526001600160a01b03929092169163934f3a1191610c04918990879087906004016118c0565b60006040518083038186803b158015610c1c57600080fd5b505afa925050508015610c2d575060015b610c4457610c3d60018486610e80565b9550610c53565b610c5060008486610e80565b95505b5050505050919050565b606060008036818181610c74610140890189611688565b9092509050610c876006600083856118f7565b610c9091611921565b60d01c9550610ca3600c600683856118f7565b610cac91611921565b60d01c9450610cbe81600c81856118f7565b9350935050506000604051806101c001604052807f84aa190356f56b8c87825f54884392a9907c23ee0f8e1ea86336b763faf021bd60001b8152602001886000016020810190610d0e919061166b565b6001600160a01b0316815260200188602001358152602001888060400190610d369190611688565b604051610d4492919061194f565b6040519081900390208152602001610d5f60608a018a611688565b604051610d6d92919061194f565b60405180910390208152602001886080013581526020018860a0013581526020018860c0013581526020018860e001358152602001886101000135815260200188806101200190610dbe9190611688565b604051610dcc92919061194f565b6040805191829003909120825265ffffffffffff80891660208401528716908201526001600160a01b037f0000000000000000000000000000000000000000000000000000000000000000166060909101526101c08120909150601960f81b600160f81b610e38610b15565b6040516001600160f81b031993841660208201529290911660218301526022820152604281018290526062016040516020818303038152906040529650505091939590929450565b600060d08265ffffffffffff16901b60a08465ffffffffffff16901b85610ea8576000610eab565b60015b60ff161717949350505050565b6001600160a01b0381168114610ecd57600080fd5b50565b60008083601f840112610ee257600080fd5b5081356001600160401b03811115610ef957600080fd5b602083019150836020828501011115610f1157600080fd5b9250929050565b60008060008060008060008060c0898b031215610f3457600080fd5b8835610f3f81610eb8565b97506020890135610f4f81610eb8565b96506040890135610f5f81610eb8565b95506060890135945060808901356001600160401b0380821115610f8257600080fd5b610f8e8c838d01610ed0565b909650945060a08b0135915080821115610fa757600080fd5b50610fb48b828c01610ed0565b999c989b5096995094979396929594505050565b6001600160e01b031981168114610ecd57600080fd5b600060208284031215610ff057600080fd5b813561042081610fc8565b634e487b7160e01b600052604160045260246000fd5b604051601f8201601f191681016001600160401b038111828210171561103957611039610ffb565b604052919050565b60006001600160401b0382111561105a5761105a610ffb565b50601f01601f191660200190565b600082601f83011261107957600080fd5b813561108c61108782611041565b611011565b8181528460208386010111156110a157600080fd5b816020850160208301376000918101602001919091529392505050565b6000602082840312156110d057600080fd5b81356001600160401b038111156110e657600080fd5b6110f284828501611068565b949350505050565b60008060008060006080868803121561111257600080fd5b853561111d81610eb8565b9450602086013561112d81610eb8565b93506040860135925060608601356001600160401b0381111561114f57600080fd5b61115b88828901610ed0565b969995985093965092949392505050565b60008060006040848603121561118157600080fd5b8335925060208401356001600160401b0381111561119e57600080fd5b6111aa86828701610ed0565b9497909650939450505050565b600080604083850312156111ca57600080fd5b82356001600160401b03808211156111e157600080fd5b6111ed86838701611068565b9350602085013591508082111561120357600080fd5b5061121085828601611068565b9150509250929050565b6000806040838503121561122d57600080fd5b823561123881610eb8565b915060208301356001600160401b0381111561125357600080fd5b61121085828601611068565b60005b8381101561127a578181015183820152602001611262565b50506000910152565b6000815180845261129b81602086016020860161125f565b601f01601f19169290920160200192915050565b6020815260006104206020830184611283565b600061016082840312156112d557600080fd5b50919050565b6000806000606084860312156112f057600080fd5b83356001600160401b0381111561130657600080fd5b611312868287016112c2565b9660208601359650604090950135949350505050565b6000806000806080858703121561133e57600080fd5b843561134981610eb8565b93506020850135925060408501356001600160401b0381111561136b57600080fd5b61137787828801611068565b925050606085013560ff8116811461138e57600080fd5b939692955090935050565b6020808252825182820181905260009190848201906040850190845b818110156113da5783516001600160a01b0316835292840192918401916001016113b5565b50909695505050505050565b6000602082840312156113f857600080fd5b81356001600160401b0381111561140e57600080fd5b6110f2848285016112c2565b60008083601f84011261142c57600080fd5b5081356001600160401b0381111561144357600080fd5b6020830191508360208260051b8501011115610f1157600080fd5b60008060008060008060008060a0898b03121561147a57600080fd5b883561148581610eb8565b9750602089013561149581610eb8565b965060408901356001600160401b03808211156114b157600080fd5b6114bd8c838d0161141a565b909850965060608b01359150808211156114d657600080fd5b6114e28c838d0161141a565b909650945060808b0135915080821115610fa757600080fd5b60008060006040848603121561151057600080fd5b833561151b81610eb8565b925060208401356001600160401b0381111561119e57600080fd5b60008060008060008060a0878903121561154f57600080fd5b863561155a81610eb8565b9550602087013561156a81610eb8565b9450604087013593506060870135925060808701356001600160401b0381111561159357600080fd5b61159f89828a01610ed0565b979a9699509497509295939492505050565b81835281816020850137506000828201602090810191909152601f909101601f19169091010190565b6040815260006115ed6040830186611283565b82810360208401526116008185876115b1565b9695505050505050565b60006020828403121561161c57600080fd5b815161042081610fc8565b60006020828403121561163957600080fd5b5051919050565b8381526060602082015260006116596060830185611283565b82810360408401526116008185611283565b60006020828403121561167d57600080fd5b813561042081610eb8565b6000808335601e1984360301811261169f57600080fd5b8301803591506001600160401b038211156116b957600080fd5b602001915036819003821315610f1157600080fd5b6001600160e01b031981358181169160048510156116f65780818660040360031b1b83161692505b505092915050565b8051801515811461170e57600080fd5b919050565b60006020828403121561172557600080fd5b610420826116fe565b60018060a01b03851681528360208201526080604082015260006117556080830185611283565b905060ff8316606083015295945050505050565b6000806040838503121561177c57600080fd5b611785836116fe565b915060208301516001600160401b038111156117a057600080fd5b8301601f810185136117b157600080fd5b80516117bf61108782611041565b8181528660208385010111156117d457600080fd5b6117e582602083016020860161125f565b8093505050509250929050565b805161170e81610eb8565b6000806040838503121561181057600080fd5b82516001600160401b038082111561182757600080fd5b818501915085601f83011261183b57600080fd5b815160208282111561184f5761184f610ffb565b8160051b9250611860818401611011565b828152928401810192818101908985111561187a57600080fd5b948201945b848610156118a4578551935061189484610eb8565b838252948201949082019061187f565b96506118b390508782016117f2565b9450505050509250929050565b8481526060602082015260006118d96060830186611283565b82810360408401526118ec8185876115b1565b979650505050505050565b6000808585111561190757600080fd5b8386111561191457600080fd5b5050820193919092039150565b6001600160d01b031981358181169160068510156116f65760069490940360031b84901b1690921692915050565b818382376000910190815291905056fea26469706673582212206d2ebf82f60a58b143246a537f398a1fe6b9e006d835967246d611b1ce5c0f8964736f6c63430008170033","opcodes":"PUSH1 0xA0 PUSH1 0x40 MSTORE CALLVALUE DUP1 ISZERO PUSH3 0x11 JUMPI PUSH1 0x0 DUP1 REVERT JUMPDEST POP PUSH1 0x40 MLOAD PUSH3 0x1A8F CODESIZE SUB DUP1 PUSH3 0x1A8F DUP4 CODECOPY DUP2 ADD PUSH1 0x40 DUP2 SWAP1 MSTORE PUSH3 0x34 SWAP2 PUSH3 0x91 JUMP JUMPDEST DUP2 DUP1 PUSH1 0x1 PUSH1 0x1 PUSH1 0xA0 SHL SUB DUP2 AND PUSH3 0x5E JUMPI PUSH1 0x40 MLOAD PUSH4 0x2039D3C9 PUSH1 0xE0 SHL DUP2 MSTORE PUSH1 0x4 ADD PUSH1 0x40 MLOAD DUP1 SWAP2 SUB SWAP1 REVERT JUMPDEST PUSH1 0x1 PUSH1 0x1 PUSH1 0xA0 SHL SUB AND PUSH1 0x80 MSTORE POP PUSH3 0xC9 SWAP2 POP POP JUMP JUMPDEST DUP1 MLOAD PUSH1 0x1 PUSH1 0x1 PUSH1 0xA0 SHL SUB DUP2 AND DUP2 EQ PUSH3 0x8C JUMPI PUSH1 0x0 DUP1 REVERT JUMPDEST SWAP2 SWAP1 POP JUMP JUMPDEST PUSH1 0x0 DUP1 PUSH1 0x40 DUP4 DUP6 SUB SLT ISZERO PUSH3 0xA5 JUMPI PUSH1 0x0 DUP1 REVERT JUMPDEST PUSH3 0xB0 DUP4 PUSH3 0x74 JUMP JUMPDEST SWAP2 POP PUSH3 0xC0 PUSH1 0x20 DUP5 ADD PUSH3 0x74 JUMP JUMPDEST SWAP1 POP SWAP3 POP SWAP3 SWAP1 POP JUMP JUMPDEST PUSH1 0x80 MLOAD PUSH2 0x1995 PUSH3 0xFA PUSH1 0x0 CODECOPY PUSH1 0x0 DUP2 DUP2 PUSH2 0x182 ADD MSTORE DUP2 DUP2 PUSH2 0x7E5 ADD MSTORE DUP2 DUP2 PUSH2 0xB70 ADD MSTORE PUSH2 0xDF8 ADD MSTORE PUSH2 0x1995 PUSH1 0x0 RETURN INVALID PUSH1 0x80 PUSH1 0x40 MSTORE CALLVALUE DUP1 ISZERO PUSH2 0x10 JUMPI PUSH1 0x0 DUP1 REVERT JUMPDEST POP PUSH1 0x4 CALLDATASIZE LT PUSH2 0x115 JUMPI PUSH1 0x0 CALLDATALOAD PUSH1 0xE0 SHR DUP1 PUSH4 0x541D63C8 GT PUSH2 0xA2 JUMPI DUP1 PUSH4 0xB25F3776 GT PUSH2 0x71 JUMPI DUP1 PUSH4 0xB25F3776 EQ PUSH2 0x29B JUMPI DUP1 PUSH4 0xBC197C81 EQ PUSH2 0x2AE JUMPI DUP1 PUSH4 0xBD61951D EQ PUSH2 0x2D0 JUMPI DUP1 PUSH4 0xF23A6E61 EQ PUSH2 0x2E3 JUMPI DUP1 PUSH4 0xF698DA25 EQ PUSH2 0x303 JUMPI PUSH1 0x0 DUP1 REVERT JUMPDEST DUP1 PUSH4 0x541D63C8 EQ PUSH2 0x24D JUMPI DUP1 PUSH4 0x6AC24784 EQ PUSH2 0x260 JUMPI DUP1 PUSH4 0x7BB37428 EQ PUSH2 0x273 JUMPI DUP1 PUSH4 0xB2494DF3 EQ PUSH2 0x286 JUMPI PUSH1 0x0 DUP1 REVERT JUMPDEST DUP1 PUSH4 0x150B7A02 GT PUSH2 0xE9 JUMPI DUP1 PUSH4 0x150B7A02 EQ PUSH2 0x1BC JUMPI DUP1 PUSH4 0x1626BA7E EQ PUSH2 0x1F4 JUMPI DUP1 PUSH4 0x20C13B0B EQ PUSH2 0x207 JUMPI DUP1 PUSH4 0x23031640 EQ PUSH2 0x21A JUMPI DUP1 PUSH4 0x3A871CDD EQ PUSH2 0x23A JUMPI PUSH1 0x0 DUP1 REVERT JUMPDEST DUP1 PUSH3 0x23DE29 EQ PUSH2 0x11A JUMPI DUP1 PUSH4 0x1FFC9A7 EQ PUSH2 0x134 JUMPI DUP1 PUSH4 0xA1028C4 EQ PUSH2 0x15C JUMPI DUP1 PUSH4 0x137E051E EQ PUSH2 0x17D JUMPI JUMPDEST PUSH1 0x0 DUP1 REVERT JUMPDEST PUSH2 0x132 PUSH2 0x128 CALLDATASIZE PUSH1 0x4 PUSH2 0xF18 JUMP JUMPDEST POP POP POP POP POP POP POP POP JUMP JUMPDEST STOP JUMPDEST PUSH2 0x147 PUSH2 0x142 CALLDATASIZE PUSH1 0x4 PUSH2 0xFDE JUMP JUMPDEST PUSH2 0x30B JUMP JUMPDEST PUSH1 0x40 MLOAD SWAP1 ISZERO ISZERO DUP2 MSTORE PUSH1 0x20 ADD JUMPDEST PUSH1 0x40 MLOAD DUP1 SWAP2 SUB SWAP1 RETURN JUMPDEST PUSH2 0x16F PUSH2 0x16A CALLDATASIZE PUSH1 0x4 PUSH2 0x10BE JUMP JUMPDEST PUSH2 0x35D JUMP JUMPDEST PUSH1 0x40 MLOAD SWAP1 DUP2 MSTORE PUSH1 0x20 ADD PUSH2 0x153 JUMP JUMPDEST PUSH2 0x1A4 PUSH32 0x0 DUP2 JUMP JUMPDEST PUSH1 0x40 MLOAD PUSH1 0x1 PUSH1 0x1 PUSH1 0xA0 SHL SUB SWAP1 SWAP2 AND DUP2 MSTORE PUSH1 0x20 ADD PUSH2 0x153 JUMP JUMPDEST PUSH2 0x1DB PUSH2 0x1CA CALLDATASIZE PUSH1 0x4 PUSH2 0x10FA JUMP JUMPDEST PUSH4 0xA85BD01 PUSH1 0xE1 SHL SWAP6 SWAP5 POP POP POP POP POP JUMP JUMPDEST PUSH1 0x40 MLOAD PUSH1 0x1 PUSH1 0x1 PUSH1 0xE0 SHL SUB NOT SWAP1 SWAP2 AND DUP2 MSTORE PUSH1 0x20 ADD PUSH2 0x153 JUMP JUMPDEST PUSH2 0x1DB PUSH2 0x202 CALLDATASIZE PUSH1 0x4 PUSH2 0x116C JUMP JUMPDEST PUSH2 0x369 JUMP JUMPDEST PUSH2 0x1DB PUSH2 0x215 CALLDATASIZE PUSH1 0x4 PUSH2 0x11B7 JUMP JUMPDEST PUSH2 0x427 JUMP JUMPDEST PUSH2 0x22D PUSH2 0x228 CALLDATASIZE PUSH1 0x4 PUSH2 0x121A JUMP JUMPDEST PUSH2 0x572 JUMP JUMPDEST PUSH1 0x40 MLOAD PUSH2 0x153 SWAP2 SWAP1 PUSH2 0x12AF JUMP JUMPDEST PUSH2 0x16F PUSH2 0x248 CALLDATASIZE PUSH1 0x4 PUSH2 0x12DB JUMP JUMPDEST PUSH2 0x684 JUMP JUMPDEST PUSH2 0x132 PUSH2 0x25B CALLDATASIZE PUSH1 0x4 PUSH2 0x1328 JUMP JUMPDEST PUSH2 0x880 JUMP JUMPDEST PUSH2 0x16F PUSH2 0x26E CALLDATASIZE PUSH1 0x4 PUSH2 0x121A JUMP JUMPDEST PUSH2 0x93C JUMP JUMPDEST PUSH2 0x132 PUSH2 0x281 CALLDATASIZE PUSH1 0x4 PUSH2 0x1328 JUMP JUMPDEST PUSH2 0x957 JUMP JUMPDEST PUSH2 0x28E PUSH2 0xA36 JUMP JUMPDEST PUSH1 0x40 MLOAD PUSH2 0x153 SWAP2 SWAP1 PUSH2 0x1399 JUMP JUMPDEST PUSH2 0x16F PUSH2 0x2A9 CALLDATASIZE PUSH1 0x4 PUSH2 0x13E6 JUMP JUMPDEST PUSH2 0xAA9 JUMP JUMPDEST PUSH2 0x1DB PUSH2 0x2BC CALLDATASIZE PUSH1 0x4 PUSH2 0x145E JUMP JUMPDEST PUSH4 0xBC197C81 PUSH1 0xE0 SHL SWAP9 SWAP8 POP POP POP POP POP POP POP POP JUMP JUMPDEST PUSH2 0x22D PUSH2 0x2DE CALLDATASIZE PUSH1 0x4 PUSH2 0x14FB JUMP JUMPDEST PUSH2 0xACB JUMP JUMPDEST PUSH2 0x1DB PUSH2 0x2F1 CALLDATASIZE PUSH1 0x4 PUSH2 0x1536 JUMP JUMPDEST PUSH4 0xF23A6E61 PUSH1 0xE0 SHL SWAP7 SWAP6 POP POP POP POP POP POP JUMP JUMPDEST PUSH2 0x16F PUSH2 0xB15 JUMP JUMPDEST PUSH1 0x0 PUSH1 0x1 PUSH1 0x1 PUSH1 0xE0 SHL SUB NOT DUP3 AND PUSH4 0x2711897 PUSH1 0xE5 SHL EQ DUP1 PUSH2 0x33C JUMPI POP PUSH1 0x1 PUSH1 0x1 PUSH1 0xE0 SHL SUB NOT DUP3 AND PUSH4 0xA85BD01 PUSH1 0xE1 SHL EQ JUMPDEST DUP1 PUSH2 0x357 JUMPI POP PUSH1 0x1 PUSH1 0x1 PUSH1 0xE0 SHL SUB NOT DUP3 AND PUSH4 0x1FFC9A7 PUSH1 0xE0 SHL EQ JUMPDEST SWAP3 SWAP2 POP POP JUMP JUMPDEST PUSH1 0x0 PUSH2 0x357 CALLER DUP4 PUSH2 0x93C JUMP JUMPDEST PUSH1 0x40 DUP1 MLOAD PUSH1 0x20 DUP1 DUP3 ADD DUP7 SWAP1 MSTORE DUP3 MLOAD DUP1 DUP4 SUB SWAP1 SWAP2 ADD DUP2 MSTORE DUP2 DUP4 ADD SWAP3 DUP4 SWAP1 MSTORE PUSH4 0x20C13B0B PUSH1 0xE0 SHL SWAP1 SWAP3 MSTORE PUSH1 0x0 SWAP2 CALLER SWAP2 DUP4 SWAP2 DUP4 SWAP2 PUSH4 0x20C13B0B SWAP2 PUSH2 0x3B0 SWAP2 DUP10 SWAP1 DUP10 SWAP1 PUSH1 0x44 ADD PUSH2 0x15DA JUMP JUMPDEST PUSH1 0x20 PUSH1 0x40 MLOAD DUP1 DUP4 SUB DUP2 DUP7 GAS STATICCALL ISZERO DUP1 ISZERO PUSH2 0x3CD JUMPI RETURNDATASIZE PUSH1 0x0 DUP1 RETURNDATACOPY RETURNDATASIZE PUSH1 0x0 REVERT JUMPDEST POP POP POP POP PUSH1 0x40 MLOAD RETURNDATASIZE PUSH1 0x1F NOT PUSH1 0x1F DUP3 ADD AND DUP3 ADD DUP1 PUSH1 0x40 MSTORE POP DUP2 ADD SWAP1 PUSH2 0x3F1 SWAP2 SWAP1 PUSH2 0x160A JUMP JUMPDEST SWAP1 POP PUSH1 0x1 PUSH1 0x1 PUSH1 0xE0 SHL SUB NOT DUP2 AND PUSH4 0x20C13B0B PUSH1 0xE0 SHL EQ PUSH2 0x412 JUMPI PUSH1 0x0 PUSH2 0x41B JUMP JUMPDEST PUSH4 0xB135D3F PUSH1 0xE1 SHL JUMPDEST SWAP3 POP POP POP JUMPDEST SWAP4 SWAP3 POP POP POP JUMP JUMPDEST PUSH1 0x0 CALLER DUP2 PUSH2 0x435 DUP3 DUP7 PUSH2 0x572 JUMP JUMPDEST DUP1 MLOAD PUSH1 0x20 DUP3 ADD KECCAK256 DUP6 MLOAD SWAP2 SWAP3 POP SWAP1 PUSH1 0x0 SUB PUSH2 0x4FF JUMPI PUSH1 0x40 MLOAD PUSH4 0x5AE6BD37 PUSH1 0xE0 SHL DUP2 MSTORE PUSH1 0x4 DUP2 ADD DUP3 SWAP1 MSTORE PUSH1 0x1 PUSH1 0x1 PUSH1 0xA0 SHL SUB DUP5 AND SWAP1 PUSH4 0x5AE6BD37 SWAP1 PUSH1 0x24 ADD PUSH1 0x20 PUSH1 0x40 MLOAD DUP1 DUP4 SUB DUP2 DUP7 GAS STATICCALL ISZERO DUP1 ISZERO PUSH2 0x48E JUMPI RETURNDATASIZE PUSH1 0x0 DUP1 RETURNDATACOPY RETURNDATASIZE PUSH1 0x0 REVERT JUMPDEST POP POP POP POP PUSH1 0x40 MLOAD RETURNDATASIZE PUSH1 0x1F NOT PUSH1 0x1F DUP3 ADD AND DUP3 ADD DUP1 PUSH1 0x40 MSTORE POP DUP2 ADD SWAP1 PUSH2 0x4B2 SWAP2 SWAP1 PUSH2 0x1627 JUMP JUMPDEST PUSH1 0x0 SUB PUSH2 0x4FA JUMPI PUSH1 0x40 MLOAD PUSH3 0x461BCD PUSH1 0xE5 SHL DUP2 MSTORE PUSH1 0x20 PUSH1 0x4 DUP3 ADD MSTORE PUSH1 0x11 PUSH1 0x24 DUP3 ADD MSTORE PUSH17 0x12185CDA081B9BDD08185C1C1C9BDD9959 PUSH1 0x7A SHL PUSH1 0x44 DUP3 ADD MSTORE PUSH1 0x64 ADD JUMPDEST PUSH1 0x40 MLOAD DUP1 SWAP2 SUB SWAP1 REVERT JUMPDEST PUSH2 0x560 JUMP JUMPDEST PUSH1 0x40 MLOAD PUSH4 0x934F3A11 PUSH1 0xE0 SHL DUP2 MSTORE PUSH1 0x1 PUSH1 0x1 PUSH1 0xA0 SHL SUB DUP5 AND SWAP1 PUSH4 0x934F3A11 SWAP1 PUSH2 0x52F SWAP1 DUP5 SWAP1 DUP7 SWAP1 DUP11 SWAP1 PUSH1 0x4 ADD PUSH2 0x1640 JUMP JUMPDEST PUSH1 0x0 PUSH1 0x40 MLOAD DUP1 DUP4 SUB DUP2 DUP7 DUP1 EXTCODESIZE ISZERO DUP1 ISZERO PUSH2 0x547 JUMPI PUSH1 0x0 DUP1 REVERT JUMPDEST POP GAS STATICCALL ISZERO DUP1 ISZERO PUSH2 0x55B JUMPI RETURNDATASIZE PUSH1 0x0 DUP1 RETURNDATACOPY RETURNDATASIZE PUSH1 0x0 REVERT JUMPDEST POP POP POP POP JUMPDEST POP PUSH4 0x20C13B0B PUSH1 0xE0 SHL SWAP6 SWAP5 POP POP POP POP POP JUMP JUMPDEST PUSH1 0x60 PUSH1 0x0 PUSH32 0x60B3CBF8B4A223D68D641B3B6DDF9A298E7F33710CF3D3A9D1146B5A6150FBCA PUSH1 0x0 SHL DUP4 DUP1 MLOAD SWAP1 PUSH1 0x20 ADD KECCAK256 PUSH1 0x40 MLOAD PUSH1 0x20 ADD PUSH2 0x5BC SWAP3 SWAP2 SWAP1 SWAP2 DUP3 MSTORE PUSH1 0x20 DUP3 ADD MSTORE PUSH1 0x40 ADD SWAP1 JUMP JUMPDEST PUSH1 0x40 MLOAD PUSH1 0x20 DUP2 DUP4 SUB SUB DUP2 MSTORE SWAP1 PUSH1 0x40 MSTORE DUP1 MLOAD SWAP1 PUSH1 0x20 ADD KECCAK256 SWAP1 POP PUSH1 0x19 PUSH1 0xF8 SHL PUSH1 0x1 PUSH1 0xF8 SHL DUP6 PUSH1 0x1 PUSH1 0x1 PUSH1 0xA0 SHL SUB AND PUSH4 0xF698DA25 PUSH1 0x40 MLOAD DUP2 PUSH4 0xFFFFFFFF AND PUSH1 0xE0 SHL DUP2 MSTORE PUSH1 0x4 ADD PUSH1 0x20 PUSH1 0x40 MLOAD DUP1 DUP4 SUB DUP2 DUP7 GAS STATICCALL ISZERO DUP1 ISZERO PUSH2 0x61C JUMPI RETURNDATASIZE PUSH1 0x0 DUP1 RETURNDATACOPY RETURNDATASIZE PUSH1 0x0 REVERT JUMPDEST POP POP POP POP PUSH1 0x40 MLOAD RETURNDATASIZE PUSH1 0x1F NOT PUSH1 0x1F DUP3 ADD AND DUP3 ADD DUP1 PUSH1 0x40 MSTORE POP DUP2 ADD SWAP1 PUSH2 0x640 SWAP2 SWAP1 PUSH2 0x1627 JUMP JUMPDEST PUSH1 0x40 MLOAD PUSH1 0x1 PUSH1 0x1 PUSH1 0xF8 SHL SUB NOT SWAP4 DUP5 AND PUSH1 0x20 DUP3 ADD MSTORE SWAP3 SWAP1 SWAP2 AND PUSH1 0x21 DUP4 ADD MSTORE PUSH1 0x22 DUP3 ADD MSTORE PUSH1 0x42 DUP2 ADD DUP3 SWAP1 MSTORE PUSH1 0x62 ADD PUSH1 0x40 MLOAD PUSH1 0x20 DUP2 DUP4 SUB SUB DUP2 MSTORE SWAP1 PUSH1 0x40 MSTORE SWAP2 POP POP SWAP3 SWAP2 POP POP JUMP JUMPDEST PUSH1 0x0 PUSH2 0x697 CALLDATASIZE PUSH1 0x13 NOT ADD CALLDATALOAD PUSH1 0x60 SHR PUSH2 0xB6E JUMP JUMPDEST PUSH2 0x6B4 JUMPI PUSH1 0x40 MLOAD PUSH4 0x2039D3C9 PUSH1 0xE0 SHL DUP2 MSTORE PUSH1 0x4 ADD PUSH1 0x40 MLOAD DUP1 SWAP2 SUB SWAP1 REVERT JUMPDEST PUSH1 0x0 PUSH2 0x6C3 PUSH1 0x20 DUP7 ADD DUP7 PUSH2 0x166B JUMP JUMPDEST SWAP1 POP PUSH1 0x1 PUSH1 0x1 PUSH1 0xA0 SHL SUB DUP2 AND CALLER EQ PUSH2 0x70E JUMPI PUSH1 0x40 MLOAD PUSH3 0x461BCD PUSH1 0xE5 SHL DUP2 MSTORE PUSH1 0x20 PUSH1 0x4 DUP3 ADD MSTORE PUSH1 0xE PUSH1 0x24 DUP3 ADD MSTORE PUSH14 0x24B73B30B634B21031B0B63632B9 PUSH1 0x91 SHL PUSH1 0x44 DUP3 ADD MSTORE PUSH1 0x64 ADD PUSH2 0x4F1 JUMP JUMPDEST PUSH2 0x71B PUSH1 0x60 DUP7 ADD DUP7 PUSH2 0x1688 JUMP JUMPDEST PUSH2 0x724 SWAP2 PUSH2 0x16CE JUMP JUMPDEST PUSH1 0x1 PUSH1 0x1 PUSH1 0xE0 SHL SUB NOT AND PUSH4 0xF766E85 PUSH1 0xE3 SHL EQ DUP1 PUSH2 0x767 JUMPI POP PUSH2 0x74A PUSH1 0x60 DUP7 ADD DUP7 PUSH2 0x1688 JUMP JUMPDEST PUSH2 0x753 SWAP2 PUSH2 0x16CE JUMP JUMPDEST PUSH1 0x1 PUSH1 0x1 PUSH1 0xE0 SHL SUB NOT AND PUSH4 0xA83AC79 PUSH1 0xE3 SHL EQ JUMPDEST PUSH2 0x7BD JUMPI PUSH1 0x40 MLOAD PUSH3 0x461BCD PUSH1 0xE5 SHL DUP2 MSTORE PUSH1 0x20 PUSH1 0x4 DUP3 ADD MSTORE PUSH1 0x21 PUSH1 0x24 DUP3 ADD MSTORE PUSH32 0x556E737570706F7274656420657865637574696F6E2066756E6374696F6E2069 PUSH1 0x44 DUP3 ADD MSTORE PUSH1 0x19 PUSH1 0xFA SHL PUSH1 0x64 DUP3 ADD MSTORE PUSH1 0x84 ADD PUSH2 0x4F1 JUMP JUMPDEST PUSH2 0x7C6 DUP6 PUSH2 0xBA0 JUMP JUMPDEST SWAP2 POP DUP3 ISZERO PUSH2 0x878 JUMPI PUSH1 0x40 MLOAD PUSH4 0x468721A7 PUSH1 0xE0 SHL DUP2 MSTORE PUSH1 0x1 PUSH1 0x1 PUSH1 0xA0 SHL SUB PUSH32 0x0 DUP2 AND PUSH1 0x4 DUP4 ADD MSTORE PUSH1 0x24 DUP3 ADD DUP6 SWAP1 MSTORE PUSH1 0x80 PUSH1 0x44 DUP4 ADD MSTORE PUSH1 0x0 PUSH1 0x84 DUP4 ADD DUP2 SWAP1 MSTORE PUSH1 0x64 DUP4 ADD MSTORE DUP3 AND SWAP1 PUSH4 0x468721A7 SWAP1 PUSH1 0xA4 ADD PUSH1 0x20 PUSH1 0x40 MLOAD DUP1 DUP4 SUB DUP2 PUSH1 0x0 DUP8 GAS CALL ISZERO DUP1 ISZERO PUSH2 0x852 JUMPI RETURNDATASIZE PUSH1 0x0 DUP1 RETURNDATACOPY RETURNDATASIZE PUSH1 0x0 REVERT JUMPDEST POP POP POP POP PUSH1 0x40 MLOAD RETURNDATASIZE PUSH1 0x1F NOT PUSH1 0x1F DUP3 ADD AND DUP3 ADD DUP1 PUSH1 0x40 MSTORE POP DUP2 ADD SWAP1 PUSH2 0x876 SWAP2 SWAP1 PUSH2 0x1713 JUMP JUMPDEST POP JUMPDEST POP SWAP4 SWAP3 POP POP POP JUMP JUMPDEST PUSH2 0x891 CALLDATASIZE PUSH1 0x13 NOT ADD CALLDATALOAD PUSH1 0x60 SHR PUSH2 0xB6E JUMP JUMPDEST PUSH2 0x8AE JUMPI PUSH1 0x40 MLOAD PUSH4 0x2039D3C9 PUSH1 0xE0 SHL DUP2 MSTORE PUSH1 0x4 ADD PUSH1 0x40 MLOAD DUP1 SWAP2 SUB SWAP1 REVERT JUMPDEST PUSH1 0x40 MLOAD PUSH4 0x5229073F PUSH1 0xE0 SHL DUP2 MSTORE PUSH1 0x0 SWAP1 DUP2 SWAP1 CALLER SWAP1 PUSH4 0x5229073F SWAP1 PUSH2 0x8DC SWAP1 DUP10 SWAP1 DUP10 SWAP1 DUP10 SWAP1 DUP10 SWAP1 PUSH1 0x4 ADD PUSH2 0x172E JUMP JUMPDEST PUSH1 0x0 PUSH1 0x40 MLOAD DUP1 DUP4 SUB DUP2 PUSH1 0x0 DUP8 GAS CALL ISZERO DUP1 ISZERO PUSH2 0x8FB JUMPI RETURNDATASIZE PUSH1 0x0 DUP1 RETURNDATACOPY RETURNDATASIZE PUSH1 0x0 REVERT JUMPDEST POP POP POP POP PUSH1 0x40 MLOAD RETURNDATASIZE PUSH1 0x0 DUP3 RETURNDATACOPY PUSH1 0x1F RETURNDATASIZE SWAP1 DUP2 ADD PUSH1 0x1F NOT AND DUP3 ADD PUSH1 0x40 MSTORE PUSH2 0x923 SWAP2 SWAP1 DUP2 ADD SWAP1 PUSH2 0x1769 JUMP JUMPDEST SWAP2 POP SWAP2 POP DUP2 PUSH2 0x934 JUMPI DUP1 MLOAD PUSH1 0x20 DUP3 ADD REVERT JUMPDEST POP POP POP POP POP POP JUMP JUMPDEST PUSH1 0x0 PUSH2 0x948 DUP4 DUP4 PUSH2 0x572 JUMP JUMPDEST DUP1 MLOAD SWAP1 PUSH1 0x20 ADD KECCAK256 SWAP1 POP SWAP3 SWAP2 POP POP JUMP JUMPDEST PUSH2 0x968 CALLDATASIZE PUSH1 0x13 NOT ADD CALLDATALOAD PUSH1 0x60 SHR PUSH2 0xB6E JUMP JUMPDEST PUSH2 0x985 JUMPI PUSH1 0x40 MLOAD PUSH4 0x2039D3C9 PUSH1 0xE0 SHL DUP2 MSTORE PUSH1 0x4 ADD PUSH1 0x40 MLOAD DUP1 SWAP2 SUB SWAP1 REVERT JUMPDEST PUSH1 0x40 MLOAD PUSH4 0x468721A7 PUSH1 0xE0 SHL DUP2 MSTORE CALLER SWAP1 PUSH4 0x468721A7 SWAP1 PUSH2 0x9AE SWAP1 DUP8 SWAP1 DUP8 SWAP1 DUP8 SWAP1 DUP8 SWAP1 PUSH1 0x4 ADD PUSH2 0x172E JUMP JUMPDEST PUSH1 0x20 PUSH1 0x40 MLOAD DUP1 DUP4 SUB DUP2 PUSH1 0x0 DUP8 GAS CALL ISZERO DUP1 ISZERO PUSH2 0x9CD JUMPI RETURNDATASIZE PUSH1 0x0 DUP1 RETURNDATACOPY RETURNDATASIZE PUSH1 0x0 REVERT JUMPDEST POP POP POP POP PUSH1 0x40 MLOAD RETURNDATASIZE PUSH1 0x1F NOT PUSH1 0x1F DUP3 ADD AND DUP3 ADD DUP1 PUSH1 0x40 MSTORE POP DUP2 ADD SWAP1 PUSH2 0x9F1 SWAP2 SWAP1 PUSH2 0x1713 JUMP JUMPDEST PUSH2 0xA30 JUMPI PUSH1 0x40 MLOAD PUSH3 0x461BCD PUSH1 0xE5 SHL DUP2 MSTORE PUSH1 0x20 PUSH1 0x4 DUP3 ADD MSTORE PUSH1 0x10 PUSH1 0x24 DUP3 ADD MSTORE PUSH16 0x115E1958DD5D1A5BDB8819985A5B1959 PUSH1 0x82 SHL PUSH1 0x44 DUP3 ADD MSTORE PUSH1 0x64 ADD PUSH2 0x4F1 JUMP JUMPDEST POP POP POP POP JUMP JUMPDEST PUSH1 0x40 MLOAD PUSH4 0x6617C229 PUSH1 0xE1 SHL DUP2 MSTORE PUSH1 0x1 PUSH1 0x4 DUP3 ADD MSTORE PUSH1 0xA PUSH1 0x24 DUP3 ADD MSTORE PUSH1 0x60 SWAP1 CALLER SWAP1 PUSH1 0x0 SWAP1 DUP3 SWAP1 PUSH4 0xCC2F8452 SWAP1 PUSH1 0x44 ADD PUSH1 0x0 PUSH1 0x40 MLOAD DUP1 DUP4 SUB DUP2 DUP7 GAS STATICCALL ISZERO DUP1 ISZERO PUSH2 0xA81 JUMPI RETURNDATASIZE PUSH1 0x0 DUP1 RETURNDATACOPY RETURNDATASIZE PUSH1 0x0 REVERT JUMPDEST POP POP POP POP PUSH1 0x40 MLOAD RETURNDATASIZE PUSH1 0x0 DUP3 RETURNDATACOPY PUSH1 0x1F RETURNDATASIZE SWAP1 DUP2 ADD PUSH1 0x1F NOT AND DUP3 ADD PUSH1 0x40 MSTORE PUSH2 0x878 SWAP2 SWAP1 DUP2 ADD SWAP1 PUSH2 0x17FD JUMP JUMPDEST PUSH1 0x0 DUP1 PUSH2 0xAB5 DUP4 PUSH2 0xC5D JUMP JUMPDEST POP POP POP POP SWAP1 POP DUP1 DUP1 MLOAD SWAP1 PUSH1 0x20 ADD KECCAK256 SWAP2 POP POP SWAP2 SWAP1 POP JUMP JUMPDEST PUSH1 0x60 PUSH1 0x40 MLOAD PUSH4 0xB4FABA09 PUSH1 0xE0 SHL DUP2 MSTORE PUSH1 0x4 CALLDATASIZE SUB PUSH1 0x4 DUP1 DUP4 ADD CALLDATACOPY PUSH1 0x20 PUSH1 0x0 CALLDATASIZE DUP4 PUSH1 0x0 CALLER GAS CALL POP POP PUSH1 0x20 RETURNDATASIZE SUB PUSH1 0x40 MLOAD SWAP2 POP DUP1 DUP3 ADD PUSH1 0x40 MSTORE DUP1 PUSH1 0x20 DUP4 RETURNDATACOPY POP PUSH1 0x0 MLOAD PUSH2 0x420 JUMPI DUP1 MLOAD PUSH1 0x20 DUP3 ADD REVERT JUMPDEST PUSH1 0x40 DUP1 MLOAD PUSH32 0x47E79534A245952E8B16893A336B85A3D9EA9FA8C573F3D803AFB92A79469218 PUSH1 0x20 DUP3 ADD MSTORE CHAINID SWAP2 DUP2 ADD SWAP2 SWAP1 SWAP2 MSTORE ADDRESS PUSH1 0x60 DUP3 ADD MSTORE PUSH1 0x0 SWAP1 PUSH1 0x80 ADD PUSH1 0x40 MLOAD PUSH1 0x20 DUP2 DUP4 SUB SUB DUP2 MSTORE SWAP1 PUSH1 0x40 MSTORE DUP1 MLOAD SWAP1 PUSH1 0x20 ADD KECCAK256 SWAP1 POP SWAP1 JUMP JUMPDEST PUSH32 0x0 PUSH1 0x1 PUSH1 0x1 PUSH1 0xA0 SHL SUB SWAP1 DUP2 AND SWAP2 AND EQ SWAP1 JUMP JUMPDEST PUSH1 0x0 DUP1 PUSH1 0x0 DUP1 CALLDATASIZE PUSH1 0x0 PUSH2 0xBB2 DUP8 PUSH2 0xC5D JUMP JUMPDEST SWAP4 SWAP9 POP SWAP2 SWAP7 POP SWAP5 POP SWAP3 POP SWAP1 POP PUSH2 0xBCB PUSH1 0x20 DUP9 ADD DUP9 PUSH2 0x166B JUMP JUMPDEST DUP6 MLOAD PUSH1 0x20 DUP8 ADD KECCAK256 PUSH1 0x40 MLOAD PUSH4 0x934F3A11 PUSH1 0xE0 SHL DUP2 MSTORE PUSH1 0x1 PUSH1 0x1 PUSH1 0xA0 SHL SUB SWAP3 SWAP1 SWAP3 AND SWAP2 PUSH4 0x934F3A11 SWAP2 PUSH2 0xC04 SWAP2 DUP10 SWAP1 DUP8 SWAP1 DUP8 SWAP1 PUSH1 0x4 ADD PUSH2 0x18C0 JUMP JUMPDEST PUSH1 0x0 PUSH1 0x40 MLOAD DUP1 DUP4 SUB DUP2 DUP7 DUP1 EXTCODESIZE ISZERO DUP1 ISZERO PUSH2 0xC1C JUMPI PUSH1 0x0 DUP1 REVERT JUMPDEST POP GAS STATICCALL SWAP3 POP POP POP DUP1 ISZERO PUSH2 0xC2D JUMPI POP PUSH1 0x1 JUMPDEST PUSH2 0xC44 JUMPI PUSH2 0xC3D PUSH1 0x1 DUP5 DUP7 PUSH2 0xE80 JUMP JUMPDEST SWAP6 POP PUSH2 0xC53 JUMP JUMPDEST PUSH2 0xC50 PUSH1 0x0 DUP5 DUP7 PUSH2 0xE80 JUMP JUMPDEST SWAP6 POP JUMPDEST POP POP POP POP POP SWAP2 SWAP1 POP JUMP JUMPDEST PUSH1 0x60 PUSH1 0x0 DUP1 CALLDATASIZE DUP2 DUP2 DUP2 PUSH2 0xC74 PUSH2 0x140 DUP10 ADD DUP10 PUSH2 0x1688 JUMP JUMPDEST SWAP1 SWAP3 POP SWAP1 POP PUSH2 0xC87 PUSH1 0x6 PUSH1 0x0 DUP4 DUP6 PUSH2 0x18F7 JUMP JUMPDEST PUSH2 0xC90 SWAP2 PUSH2 0x1921 JUMP JUMPDEST PUSH1 0xD0 SHR SWAP6 POP PUSH2 0xCA3 PUSH1 0xC PUSH1 0x6 DUP4 DUP6 PUSH2 0x18F7 JUMP JUMPDEST PUSH2 0xCAC SWAP2 PUSH2 0x1921 JUMP JUMPDEST PUSH1 0xD0 SHR SWAP5 POP PUSH2 0xCBE DUP2 PUSH1 0xC DUP2 DUP6 PUSH2 0x18F7 JUMP JUMPDEST SWAP4 POP SWAP4 POP POP POP PUSH1 0x0 PUSH1 0x40 MLOAD DUP1 PUSH2 0x1C0 ADD PUSH1 0x40 MSTORE DUP1 PUSH32 0x84AA190356F56B8C87825F54884392A9907C23EE0F8E1EA86336B763FAF021BD PUSH1 0x0 SHL DUP2 MSTORE PUSH1 0x20 ADD DUP9 PUSH1 0x0 ADD PUSH1 0x20 DUP2 ADD SWAP1 PUSH2 0xD0E SWAP2 SWAP1 PUSH2 0x166B JUMP JUMPDEST PUSH1 0x1 PUSH1 0x1 PUSH1 0xA0 SHL SUB AND DUP2 MSTORE PUSH1 0x20 ADD DUP9 PUSH1 0x20 ADD CALLDATALOAD DUP2 MSTORE PUSH1 0x20 ADD DUP9 DUP1 PUSH1 0x40 ADD SWAP1 PUSH2 0xD36 SWAP2 SWAP1 PUSH2 0x1688 JUMP JUMPDEST PUSH1 0x40 MLOAD PUSH2 0xD44 SWAP3 SWAP2 SWAP1 PUSH2 0x194F JUMP JUMPDEST PUSH1 0x40 MLOAD SWAP1 DUP2 SWAP1 SUB SWAP1 KECCAK256 DUP2 MSTORE PUSH1 0x20 ADD PUSH2 0xD5F PUSH1 0x60 DUP11 ADD DUP11 PUSH2 0x1688 JUMP JUMPDEST PUSH1 0x40 MLOAD PUSH2 0xD6D SWAP3 SWAP2 SWAP1 PUSH2 0x194F JUMP JUMPDEST PUSH1 0x40 MLOAD DUP1 SWAP2 SUB SWAP1 KECCAK256 DUP2 MSTORE PUSH1 0x20 ADD DUP9 PUSH1 0x80 ADD CALLDATALOAD DUP2 MSTORE PUSH1 0x20 ADD DUP9 PUSH1 0xA0 ADD CALLDATALOAD DUP2 MSTORE PUSH1 0x20 ADD DUP9 PUSH1 0xC0 ADD CALLDATALOAD DUP2 MSTORE PUSH1 0x20 ADD DUP9 PUSH1 0xE0 ADD CALLDATALOAD DUP2 MSTORE PUSH1 0x20 ADD DUP9 PUSH2 0x100 ADD CALLDATALOAD DUP2 MSTORE PUSH1 0x20 ADD DUP9 DUP1 PUSH2 0x120 ADD SWAP1 PUSH2 0xDBE SWAP2 SWAP1 PUSH2 0x1688 JUMP JUMPDEST PUSH1 0x40 MLOAD PUSH2 0xDCC SWAP3 SWAP2 SWAP1 PUSH2 0x194F JUMP JUMPDEST PUSH1 0x40 DUP1 MLOAD SWAP2 DUP3 SWAP1 SUB SWAP1 SWAP2 KECCAK256 DUP3 MSTORE PUSH6 0xFFFFFFFFFFFF DUP1 DUP10 AND PUSH1 0x20 DUP5 ADD MSTORE DUP8 AND SWAP1 DUP3 ADD MSTORE PUSH1 0x1 PUSH1 0x1 PUSH1 0xA0 SHL SUB PUSH32 0x0 AND PUSH1 0x60 SWAP1 SWAP2 ADD MSTORE PUSH2 0x1C0 DUP2 KECCAK256 SWAP1 SWAP2 POP PUSH1 0x19 PUSH1 0xF8 SHL PUSH1 0x1 PUSH1 0xF8 SHL PUSH2 0xE38 PUSH2 0xB15 JUMP JUMPDEST PUSH1 0x40 MLOAD PUSH1 0x1 PUSH1 0x1 PUSH1 0xF8 SHL SUB NOT SWAP4 DUP5 AND PUSH1 0x20 DUP3 ADD MSTORE SWAP3 SWAP1 SWAP2 AND PUSH1 0x21 DUP4 ADD MSTORE PUSH1 0x22 DUP3 ADD MSTORE PUSH1 0x42 DUP2 ADD DUP3 SWAP1 MSTORE PUSH1 0x62 ADD PUSH1 0x40 MLOAD PUSH1 0x20 DUP2 DUP4 SUB SUB DUP2 MSTORE SWAP1 PUSH1 0x40 MSTORE SWAP7 POP POP POP SWAP2 SWAP4 SWAP6 SWAP1 SWAP3 SWAP5 POP JUMP JUMPDEST PUSH1 0x0 PUSH1 0xD0 DUP3 PUSH6 0xFFFFFFFFFFFF AND SWAP1 SHL PUSH1 0xA0 DUP5 PUSH6 0xFFFFFFFFFFFF AND SWAP1 SHL DUP6 PUSH2 0xEA8 JUMPI PUSH1 0x0 PUSH2 0xEAB JUMP JUMPDEST PUSH1 0x1 JUMPDEST PUSH1 0xFF AND OR OR SWAP5 SWAP4 POP POP POP POP JUMP JUMPDEST PUSH1 0x1 PUSH1 0x1 PUSH1 0xA0 SHL SUB DUP2 AND DUP2 EQ PUSH2 0xECD JUMPI PUSH1 0x0 DUP1 REVERT JUMPDEST POP JUMP JUMPDEST PUSH1 0x0 DUP1 DUP4 PUSH1 0x1F DUP5 ADD SLT PUSH2 0xEE2 JUMPI PUSH1 0x0 DUP1 REVERT JUMPDEST POP DUP2 CALLDATALOAD PUSH1 0x1 PUSH1 0x1 PUSH1 0x40 SHL SUB DUP2 GT ISZERO PUSH2 0xEF9 JUMPI PUSH1 0x0 DUP1 REVERT JUMPDEST PUSH1 0x20 DUP4 ADD SWAP2 POP DUP4 PUSH1 0x20 DUP3 DUP6 ADD ADD GT ISZERO PUSH2 0xF11 JUMPI PUSH1 0x0 DUP1 REVERT JUMPDEST SWAP3 POP SWAP3 SWAP1 POP JUMP JUMPDEST PUSH1 0x0 DUP1 PUSH1 0x0 DUP1 PUSH1 0x0 DUP1 PUSH1 0x0 DUP1 PUSH1 0xC0 DUP10 DUP12 SUB SLT ISZERO PUSH2 0xF34 JUMPI PUSH1 0x0 DUP1 REVERT JUMPDEST DUP9 CALLDATALOAD PUSH2 0xF3F DUP2 PUSH2 0xEB8 JUMP JUMPDEST SWAP8 POP PUSH1 0x20 DUP10 ADD CALLDATALOAD PUSH2 0xF4F DUP2 PUSH2 0xEB8 JUMP JUMPDEST SWAP7 POP PUSH1 0x40 DUP10 ADD CALLDATALOAD PUSH2 0xF5F DUP2 PUSH2 0xEB8 JUMP JUMPDEST SWAP6 POP PUSH1 0x60 DUP10 ADD CALLDATALOAD SWAP5 POP PUSH1 0x80 DUP10 ADD CALLDATALOAD PUSH1 0x1 PUSH1 0x1 PUSH1 0x40 SHL SUB DUP1 DUP3 GT ISZERO PUSH2 0xF82 JUMPI PUSH1 0x0 DUP1 REVERT JUMPDEST PUSH2 0xF8E DUP13 DUP4 DUP14 ADD PUSH2 0xED0 JUMP JUMPDEST SWAP1 SWAP7 POP SWAP5 POP PUSH1 0xA0 DUP12 ADD CALLDATALOAD SWAP2 POP DUP1 DUP3 GT ISZERO PUSH2 0xFA7 JUMPI PUSH1 0x0 DUP1 REVERT JUMPDEST POP PUSH2 0xFB4 DUP12 DUP3 DUP13 ADD PUSH2 0xED0 JUMP JUMPDEST SWAP10 SWAP13 SWAP9 SWAP12 POP SWAP7 SWAP10 POP SWAP5 SWAP8 SWAP4 SWAP7 SWAP3 SWAP6 SWAP5 POP POP POP JUMP JUMPDEST PUSH1 0x1 PUSH1 0x1 PUSH1 0xE0 SHL SUB NOT DUP2 AND DUP2 EQ PUSH2 0xECD JUMPI PUSH1 0x0 DUP1 REVERT JUMPDEST PUSH1 0x0 PUSH1 0x20 DUP3 DUP5 SUB SLT ISZERO PUSH2 0xFF0 JUMPI PUSH1 0x0 DUP1 REVERT JUMPDEST DUP2 CALLDATALOAD PUSH2 0x420 DUP2 PUSH2 0xFC8 JUMP JUMPDEST PUSH4 0x4E487B71 PUSH1 0xE0 SHL PUSH1 0x0 MSTORE PUSH1 0x41 PUSH1 0x4 MSTORE PUSH1 0x24 PUSH1 0x0 REVERT JUMPDEST PUSH1 0x40 MLOAD PUSH1 0x1F DUP3 ADD PUSH1 0x1F NOT AND DUP2 ADD PUSH1 0x1 PUSH1 0x1 PUSH1 0x40 SHL SUB DUP2 GT DUP3 DUP3 LT OR ISZERO PUSH2 0x1039 JUMPI PUSH2 0x1039 PUSH2 0xFFB JUMP JUMPDEST PUSH1 0x40 MSTORE SWAP2 SWAP1 POP JUMP JUMPDEST PUSH1 0x0 PUSH1 0x1 PUSH1 0x1 PUSH1 0x40 SHL SUB DUP3 GT ISZERO PUSH2 0x105A JUMPI PUSH2 0x105A PUSH2 0xFFB JUMP JUMPDEST POP PUSH1 0x1F ADD PUSH1 0x1F NOT AND PUSH1 0x20 ADD SWAP1 JUMP JUMPDEST PUSH1 0x0 DUP3 PUSH1 0x1F DUP4 ADD SLT PUSH2 0x1079 JUMPI PUSH1 0x0 DUP1 REVERT JUMPDEST DUP2 CALLDATALOAD PUSH2 0x108C PUSH2 0x1087 DUP3 PUSH2 0x1041 JUMP JUMPDEST PUSH2 0x1011 JUMP JUMPDEST DUP2 DUP2 MSTORE DUP5 PUSH1 0x20 DUP4 DUP7 ADD ADD GT ISZERO PUSH2 0x10A1 JUMPI PUSH1 0x0 DUP1 REVERT JUMPDEST DUP2 PUSH1 0x20 DUP6 ADD PUSH1 0x20 DUP4 ADD CALLDATACOPY PUSH1 0x0 SWAP2 DUP2 ADD PUSH1 0x20 ADD SWAP2 SWAP1 SWAP2 MSTORE SWAP4 SWAP3 POP POP POP JUMP JUMPDEST PUSH1 0x0 PUSH1 0x20 DUP3 DUP5 SUB SLT ISZERO PUSH2 0x10D0 JUMPI PUSH1 0x0 DUP1 REVERT JUMPDEST DUP2 CALLDATALOAD PUSH1 0x1 PUSH1 0x1 PUSH1 0x40 SHL SUB DUP2 GT ISZERO PUSH2 0x10E6 JUMPI PUSH1 0x0 DUP1 REVERT JUMPDEST PUSH2 0x10F2 DUP5 DUP3 DUP6 ADD PUSH2 0x1068 JUMP JUMPDEST SWAP5 SWAP4 POP POP POP POP JUMP JUMPDEST PUSH1 0x0 DUP1 PUSH1 0x0 DUP1 PUSH1 0x0 PUSH1 0x80 DUP7 DUP9 SUB SLT ISZERO PUSH2 0x1112 JUMPI PUSH1 0x0 DUP1 REVERT JUMPDEST DUP6 CALLDATALOAD PUSH2 0x111D DUP2 PUSH2 0xEB8 JUMP JUMPDEST SWAP5 POP PUSH1 0x20 DUP7 ADD CALLDATALOAD PUSH2 0x112D DUP2 PUSH2 0xEB8 JUMP JUMPDEST SWAP4 POP PUSH1 0x40 DUP7 ADD CALLDATALOAD SWAP3 POP PUSH1 0x60 DUP7 ADD CALLDATALOAD PUSH1 0x1 PUSH1 0x1 PUSH1 0x40 SHL SUB DUP2 GT ISZERO PUSH2 0x114F JUMPI PUSH1 0x0 DUP1 REVERT JUMPDEST PUSH2 0x115B DUP9 DUP3 DUP10 ADD PUSH2 0xED0 JUMP JUMPDEST SWAP7 SWAP10 SWAP6 SWAP9 POP SWAP4 SWAP7 POP SWAP3 SWAP5 SWAP4 SWAP3 POP POP POP JUMP JUMPDEST PUSH1 0x0 DUP1 PUSH1 0x0 PUSH1 0x40 DUP5 DUP7 SUB SLT ISZERO PUSH2 0x1181 JUMPI PUSH1 0x0 DUP1 REVERT JUMPDEST DUP4 CALLDATALOAD SWAP3 POP PUSH1 0x20 DUP5 ADD CALLDATALOAD PUSH1 0x1 PUSH1 0x1 PUSH1 0x40 SHL SUB DUP2 GT ISZERO PUSH2 0x119E JUMPI PUSH1 0x0 DUP1 REVERT JUMPDEST PUSH2 0x11AA DUP7 DUP3 DUP8 ADD PUSH2 0xED0 JUMP JUMPDEST SWAP5 SWAP8 SWAP1 SWAP7 POP SWAP4 SWAP5 POP POP POP POP JUMP JUMPDEST PUSH1 0x0 DUP1 PUSH1 0x40 DUP4 DUP6 SUB SLT ISZERO PUSH2 0x11CA JUMPI PUSH1 0x0 DUP1 REVERT JUMPDEST DUP3 CALLDATALOAD PUSH1 0x1 PUSH1 0x1 PUSH1 0x40 SHL SUB DUP1 DUP3 GT ISZERO PUSH2 0x11E1 JUMPI PUSH1 0x0 DUP1 REVERT JUMPDEST PUSH2 0x11ED DUP7 DUP4 DUP8 ADD PUSH2 0x1068 JUMP JUMPDEST SWAP4 POP PUSH1 0x20 DUP6 ADD CALLDATALOAD SWAP2 POP DUP1 DUP3 GT ISZERO PUSH2 0x1203 JUMPI PUSH1 0x0 DUP1 REVERT JUMPDEST POP PUSH2 0x1210 DUP6 DUP3 DUP7 ADD PUSH2 0x1068 JUMP JUMPDEST SWAP2 POP POP SWAP3 POP SWAP3 SWAP1 POP JUMP JUMPDEST PUSH1 0x0 DUP1 PUSH1 0x40 DUP4 DUP6 SUB SLT ISZERO PUSH2 0x122D JUMPI PUSH1 0x0 DUP1 REVERT JUMPDEST DUP3 CALLDATALOAD PUSH2 0x1238 DUP2 PUSH2 0xEB8 JUMP JUMPDEST SWAP2 POP PUSH1 0x20 DUP4 ADD CALLDATALOAD PUSH1 0x1 PUSH1 0x1 PUSH1 0x40 SHL SUB DUP2 GT ISZERO PUSH2 0x1253 JUMPI PUSH1 0x0 DUP1 REVERT JUMPDEST PUSH2 0x1210 DUP6 DUP3 DUP7 ADD PUSH2 0x1068 JUMP JUMPDEST PUSH1 0x0 JUMPDEST DUP4 DUP2 LT ISZERO PUSH2 0x127A JUMPI DUP2 DUP2 ADD MLOAD DUP4 DUP3 ADD MSTORE PUSH1 0x20 ADD PUSH2 0x1262 JUMP JUMPDEST POP POP PUSH1 0x0 SWAP2 ADD MSTORE JUMP JUMPDEST PUSH1 0x0 DUP2 MLOAD DUP1 DUP5 MSTORE PUSH2 0x129B DUP2 PUSH1 0x20 DUP7 ADD PUSH1 0x20 DUP7 ADD PUSH2 0x125F JUMP JUMPDEST PUSH1 0x1F ADD PUSH1 0x1F NOT AND SWAP3 SWAP1 SWAP3 ADD PUSH1 0x20 ADD SWAP3 SWAP2 POP POP JUMP JUMPDEST PUSH1 0x20 DUP2 MSTORE PUSH1 0x0 PUSH2 0x420 PUSH1 0x20 DUP4 ADD DUP5 PUSH2 0x1283 JUMP JUMPDEST PUSH1 0x0 PUSH2 0x160 DUP3 DUP5 SUB SLT ISZERO PUSH2 0x12D5 JUMPI PUSH1 0x0 DUP1 REVERT JUMPDEST POP SWAP2 SWAP1 POP JUMP JUMPDEST PUSH1 0x0 DUP1 PUSH1 0x0 PUSH1 0x60 DUP5 DUP7 SUB SLT ISZERO PUSH2 0x12F0 JUMPI PUSH1 0x0 DUP1 REVERT JUMPDEST DUP4 CALLDATALOAD PUSH1 0x1 PUSH1 0x1 PUSH1 0x40 SHL SUB DUP2 GT ISZERO PUSH2 0x1306 JUMPI PUSH1 0x0 DUP1 REVERT JUMPDEST PUSH2 0x1312 DUP7 DUP3 DUP8 ADD PUSH2 0x12C2 JUMP JUMPDEST SWAP7 PUSH1 0x20 DUP7 ADD CALLDATALOAD SWAP7 POP PUSH1 0x40 SWAP1 SWAP6 ADD CALLDATALOAD SWAP5 SWAP4 POP POP POP POP JUMP JUMPDEST PUSH1 0x0 DUP1 PUSH1 0x0 DUP1 PUSH1 0x80 DUP6 DUP8 SUB SLT ISZERO PUSH2 0x133E JUMPI PUSH1 0x0 DUP1 REVERT JUMPDEST DUP5 CALLDATALOAD PUSH2 0x1349 DUP2 PUSH2 0xEB8 JUMP JUMPDEST SWAP4 POP PUSH1 0x20 DUP6 ADD CALLDATALOAD SWAP3 POP PUSH1 0x40 DUP6 ADD CALLDATALOAD PUSH1 0x1 PUSH1 0x1 PUSH1 0x40 SHL SUB DUP2 GT ISZERO PUSH2 0x136B JUMPI PUSH1 0x0 DUP1 REVERT JUMPDEST PUSH2 0x1377 DUP8 DUP3 DUP9 ADD PUSH2 0x1068 JUMP JUMPDEST SWAP3 POP POP PUSH1 0x60 DUP6 ADD CALLDATALOAD PUSH1 0xFF DUP2 AND DUP2 EQ PUSH2 0x138E JUMPI PUSH1 0x0 DUP1 REVERT JUMPDEST SWAP4 SWAP7 SWAP3 SWAP6 POP SWAP1 SWAP4 POP POP JUMP JUMPDEST PUSH1 0x20 DUP1 DUP3 MSTORE DUP3 MLOAD DUP3 DUP3 ADD DUP2 SWAP1 MSTORE PUSH1 0x0 SWAP2 SWAP1 DUP5 DUP3 ADD SWAP1 PUSH1 0x40 DUP6 ADD SWAP1 DUP5 JUMPDEST DUP2 DUP2 LT ISZERO PUSH2 0x13DA JUMPI DUP4 MLOAD PUSH1 0x1 PUSH1 0x1 PUSH1 0xA0 SHL SUB AND DUP4 MSTORE SWAP3 DUP5 ADD SWAP3 SWAP2 DUP5 ADD SWAP2 PUSH1 0x1 ADD PUSH2 0x13B5 JUMP JUMPDEST POP SWAP1 SWAP7 SWAP6 POP POP POP POP POP POP JUMP JUMPDEST PUSH1 0x0 PUSH1 0x20 DUP3 DUP5 SUB SLT ISZERO PUSH2 0x13F8 JUMPI PUSH1 0x0 DUP1 REVERT JUMPDEST DUP2 CALLDATALOAD PUSH1 0x1 PUSH1 0x1 PUSH1 0x40 SHL SUB DUP2 GT ISZERO PUSH2 0x140E JUMPI PUSH1 0x0 DUP1 REVERT JUMPDEST PUSH2 0x10F2 DUP5 DUP3 DUP6 ADD PUSH2 0x12C2 JUMP JUMPDEST PUSH1 0x0 DUP1 DUP4 PUSH1 0x1F DUP5 ADD SLT PUSH2 0x142C JUMPI PUSH1 0x0 DUP1 REVERT JUMPDEST POP DUP2 CALLDATALOAD PUSH1 0x1 PUSH1 0x1 PUSH1 0x40 SHL SUB DUP2 GT ISZERO PUSH2 0x1443 JUMPI PUSH1 0x0 DUP1 REVERT JUMPDEST PUSH1 0x20 DUP4 ADD SWAP2 POP DUP4 PUSH1 0x20 DUP3 PUSH1 0x5 SHL DUP6 ADD ADD GT ISZERO PUSH2 0xF11 JUMPI PUSH1 0x0 DUP1 REVERT JUMPDEST PUSH1 0x0 DUP1 PUSH1 0x0 DUP1 PUSH1 0x0 DUP1 PUSH1 0x0 DUP1 PUSH1 0xA0 DUP10 DUP12 SUB SLT ISZERO PUSH2 0x147A JUMPI PUSH1 0x0 DUP1 REVERT JUMPDEST DUP9 CALLDATALOAD PUSH2 0x1485 DUP2 PUSH2 0xEB8 JUMP JUMPDEST SWAP8 POP PUSH1 0x20 DUP10 ADD CALLDATALOAD PUSH2 0x1495 DUP2 PUSH2 0xEB8 JUMP JUMPDEST SWAP7 POP PUSH1 0x40 DUP10 ADD CALLDATALOAD PUSH1 0x1 PUSH1 0x1 PUSH1 0x40 SHL SUB DUP1 DUP3 GT ISZERO PUSH2 0x14B1 JUMPI PUSH1 0x0 DUP1 REVERT JUMPDEST PUSH2 0x14BD DUP13 DUP4 DUP14 ADD PUSH2 0x141A JUMP JUMPDEST SWAP1 SWAP9 POP SWAP7 POP PUSH1 0x60 DUP12 ADD CALLDATALOAD SWAP2 POP DUP1 DUP3 GT ISZERO PUSH2 0x14D6 JUMPI PUSH1 0x0 DUP1 REVERT JUMPDEST PUSH2 0x14E2 DUP13 DUP4 DUP14 ADD PUSH2 0x141A JUMP JUMPDEST SWAP1 SWAP7 POP SWAP5 POP PUSH1 0x80 DUP12 ADD CALLDATALOAD SWAP2 POP DUP1 DUP3 GT ISZERO PUSH2 0xFA7 JUMPI PUSH1 0x0 DUP1 REVERT JUMPDEST PUSH1 0x0 DUP1 PUSH1 0x0 PUSH1 0x40 DUP5 DUP7 SUB SLT ISZERO PUSH2 0x1510 JUMPI PUSH1 0x0 DUP1 REVERT JUMPDEST DUP4 CALLDATALOAD PUSH2 0x151B DUP2 PUSH2 0xEB8 JUMP JUMPDEST SWAP3 POP PUSH1 0x20 DUP5 ADD CALLDATALOAD PUSH1 0x1 PUSH1 0x1 PUSH1 0x40 SHL SUB DUP2 GT ISZERO PUSH2 0x119E JUMPI PUSH1 0x0 DUP1 REVERT JUMPDEST PUSH1 0x0 DUP1 PUSH1 0x0 DUP1 PUSH1 0x0 DUP1 PUSH1 0xA0 DUP8 DUP10 SUB SLT ISZERO PUSH2 0x154F JUMPI PUSH1 0x0 DUP1 REVERT JUMPDEST DUP7 CALLDATALOAD PUSH2 0x155A DUP2 PUSH2 0xEB8 JUMP JUMPDEST SWAP6 POP PUSH1 0x20 DUP8 ADD CALLDATALOAD PUSH2 0x156A DUP2 PUSH2 0xEB8 JUMP JUMPDEST SWAP5 POP PUSH1 0x40 DUP8 ADD CALLDATALOAD SWAP4 POP PUSH1 0x60 DUP8 ADD CALLDATALOAD SWAP3 POP PUSH1 0x80 DUP8 ADD CALLDATALOAD PUSH1 0x1 PUSH1 0x1 PUSH1 0x40 SHL SUB DUP2 GT ISZERO PUSH2 0x1593 JUMPI PUSH1 0x0 DUP1 REVERT JUMPDEST PUSH2 0x159F DUP10 DUP3 DUP11 ADD PUSH2 0xED0 JUMP JUMPDEST SWAP8 SWAP11 SWAP7 SWAP10 POP SWAP5 SWAP8 POP SWAP3 SWAP6 SWAP4 SWAP5 SWAP3 POP POP POP JUMP JUMPDEST DUP2 DUP4 MSTORE DUP2 DUP2 PUSH1 0x20 DUP6 ADD CALLDATACOPY POP PUSH1 0x0 DUP3 DUP3 ADD PUSH1 0x20 SWAP1 DUP2 ADD SWAP2 SWAP1 SWAP2 MSTORE PUSH1 0x1F SWAP1 SWAP2 ADD PUSH1 0x1F NOT AND SWAP1 SWAP2 ADD ADD SWAP1 JUMP JUMPDEST PUSH1 0x40 DUP2 MSTORE PUSH1 0x0 PUSH2 0x15ED PUSH1 0x40 DUP4 ADD DUP7 PUSH2 0x1283 JUMP JUMPDEST DUP3 DUP2 SUB PUSH1 0x20 DUP5 ADD MSTORE PUSH2 0x1600 DUP2 DUP6 DUP8 PUSH2 0x15B1 JUMP JUMPDEST SWAP7 SWAP6 POP POP POP POP POP POP JUMP JUMPDEST PUSH1 0x0 PUSH1 0x20 DUP3 DUP5 SUB SLT ISZERO PUSH2 0x161C JUMPI PUSH1 0x0 DUP1 REVERT JUMPDEST DUP2 MLOAD PUSH2 0x420 DUP2 PUSH2 0xFC8 JUMP JUMPDEST PUSH1 0x0 PUSH1 0x20 DUP3 DUP5 SUB SLT ISZERO PUSH2 0x1639 JUMPI PUSH1 0x0 DUP1 REVERT JUMPDEST POP MLOAD SWAP2 SWAP1 POP JUMP JUMPDEST DUP4 DUP2 MSTORE PUSH1 0x60 PUSH1 0x20 DUP3 ADD MSTORE PUSH1 0x0 PUSH2 0x1659 PUSH1 0x60 DUP4 ADD DUP6 PUSH2 0x1283 JUMP JUMPDEST DUP3 DUP2 SUB PUSH1 0x40 DUP5 ADD MSTORE PUSH2 0x1600 DUP2 DUP6 PUSH2 0x1283 JUMP JUMPDEST PUSH1 0x0 PUSH1 0x20 DUP3 DUP5 SUB SLT ISZERO PUSH2 0x167D JUMPI PUSH1 0x0 DUP1 REVERT JUMPDEST DUP2 CALLDATALOAD PUSH2 0x420 DUP2 PUSH2 0xEB8 JUMP JUMPDEST PUSH1 0x0 DUP1 DUP4 CALLDATALOAD PUSH1 0x1E NOT DUP5 CALLDATASIZE SUB ADD DUP2 SLT PUSH2 0x169F JUMPI PUSH1 0x0 DUP1 REVERT JUMPDEST DUP4 ADD DUP1 CALLDATALOAD SWAP2 POP PUSH1 0x1 PUSH1 0x1 PUSH1 0x40 SHL SUB DUP3 GT ISZERO PUSH2 0x16B9 JUMPI PUSH1 0x0 DUP1 REVERT JUMPDEST PUSH1 0x20 ADD SWAP2 POP CALLDATASIZE DUP2 SWAP1 SUB DUP3 SGT ISZERO PUSH2 0xF11 JUMPI PUSH1 0x0 DUP1 REVERT JUMPDEST PUSH1 0x1 PUSH1 0x1 PUSH1 0xE0 SHL SUB NOT DUP2 CALLDATALOAD DUP2 DUP2 AND SWAP2 PUSH1 0x4 DUP6 LT ISZERO PUSH2 0x16F6 JUMPI DUP1 DUP2 DUP7 PUSH1 0x4 SUB PUSH1 0x3 SHL SHL DUP4 AND AND SWAP3 POP JUMPDEST POP POP SWAP3 SWAP2 POP POP JUMP JUMPDEST DUP1 MLOAD DUP1 ISZERO ISZERO DUP2 EQ PUSH2 0x170E JUMPI PUSH1 0x0 DUP1 REVERT JUMPDEST SWAP2 SWAP1 POP JUMP JUMPDEST PUSH1 0x0 PUSH1 0x20 DUP3 DUP5 SUB SLT ISZERO PUSH2 0x1725 JUMPI PUSH1 0x0 DUP1 REVERT JUMPDEST PUSH2 0x420 DUP3 PUSH2 0x16FE JUMP JUMPDEST PUSH1 0x1 DUP1 PUSH1 0xA0 SHL SUB DUP6 AND DUP2 MSTORE DUP4 PUSH1 0x20 DUP3 ADD MSTORE PUSH1 0x80 PUSH1 0x40 DUP3 ADD MSTORE PUSH1 0x0 PUSH2 0x1755 PUSH1 0x80 DUP4 ADD DUP6 PUSH2 0x1283 JUMP JUMPDEST SWAP1 POP PUSH1 0xFF DUP4 AND PUSH1 0x60 DUP4 ADD MSTORE SWAP6 SWAP5 POP POP POP POP POP JUMP JUMPDEST PUSH1 0x0 DUP1 PUSH1 0x40 DUP4 DUP6 SUB SLT ISZERO PUSH2 0x177C JUMPI PUSH1 0x0 DUP1 REVERT JUMPDEST PUSH2 0x1785 DUP4 PUSH2 0x16FE JUMP JUMPDEST SWAP2 POP PUSH1 0x20 DUP4 ADD MLOAD PUSH1 0x1 PUSH1 0x1 PUSH1 0x40 SHL SUB DUP2 GT ISZERO PUSH2 0x17A0 JUMPI PUSH1 0x0 DUP1 REVERT JUMPDEST DUP4 ADD PUSH1 0x1F DUP2 ADD DUP6 SGT PUSH2 0x17B1 JUMPI PUSH1 0x0 DUP1 REVERT JUMPDEST DUP1 MLOAD PUSH2 0x17BF PUSH2 0x1087 DUP3 PUSH2 0x1041 JUMP JUMPDEST DUP2 DUP2 MSTORE DUP7 PUSH1 0x20 DUP4 DUP6 ADD ADD GT ISZERO PUSH2 0x17D4 JUMPI PUSH1 0x0 DUP1 REVERT JUMPDEST PUSH2 0x17E5 DUP3 PUSH1 0x20 DUP4 ADD PUSH1 0x20 DUP7 ADD PUSH2 0x125F JUMP JUMPDEST DUP1 SWAP4 POP POP POP POP SWAP3 POP SWAP3 SWAP1 POP JUMP JUMPDEST DUP1 MLOAD PUSH2 0x170E DUP2 PUSH2 0xEB8 JUMP JUMPDEST PUSH1 0x0 DUP1 PUSH1 0x40 DUP4 DUP6 SUB SLT ISZERO PUSH2 0x1810 JUMPI PUSH1 0x0 DUP1 REVERT JUMPDEST DUP3 MLOAD PUSH1 0x1 PUSH1 0x1 PUSH1 0x40 SHL SUB DUP1 DUP3 GT ISZERO PUSH2 0x1827 JUMPI PUSH1 0x0 DUP1 REVERT JUMPDEST DUP2 DUP6 ADD SWAP2 POP DUP6 PUSH1 0x1F DUP4 ADD SLT PUSH2 0x183B JUMPI PUSH1 0x0 DUP1 REVERT JUMPDEST DUP2 MLOAD PUSH1 0x20 DUP3 DUP3 GT ISZERO PUSH2 0x184F JUMPI PUSH2 0x184F PUSH2 0xFFB JUMP JUMPDEST DUP2 PUSH1 0x5 SHL SWAP3 POP PUSH2 0x1860 DUP2 DUP5 ADD PUSH2 0x1011 JUMP JUMPDEST DUP3 DUP2 MSTORE SWAP3 DUP5 ADD DUP2 ADD SWAP3 DUP2 DUP2 ADD SWAP1 DUP10 DUP6 GT ISZERO PUSH2 0x187A JUMPI PUSH1 0x0 DUP1 REVERT JUMPDEST SWAP5 DUP3 ADD SWAP5 JUMPDEST DUP5 DUP7 LT ISZERO PUSH2 0x18A4 JUMPI DUP6 MLOAD SWAP4 POP PUSH2 0x1894 DUP5 PUSH2 0xEB8 JUMP JUMPDEST DUP4 DUP3 MSTORE SWAP5 DUP3 ADD SWAP5 SWAP1 DUP3 ADD SWAP1 PUSH2 0x187F JUMP JUMPDEST SWAP7 POP PUSH2 0x18B3 SWAP1 POP DUP8 DUP3 ADD PUSH2 0x17F2 JUMP JUMPDEST SWAP5 POP POP POP POP POP SWAP3 POP SWAP3 SWAP1 POP JUMP JUMPDEST DUP5 DUP2 MSTORE PUSH1 0x60 PUSH1 0x20 DUP3 ADD MSTORE PUSH1 0x0 PUSH2 0x18D9 PUSH1 0x60 DUP4 ADD DUP7 PUSH2 0x1283 JUMP JUMPDEST DUP3 DUP2 SUB PUSH1 0x40 DUP5 ADD MSTORE PUSH2 0x18EC DUP2 DUP6 DUP8 PUSH2 0x15B1 JUMP JUMPDEST SWAP8 SWAP7 POP POP POP POP POP POP POP JUMP JUMPDEST PUSH1 0x0 DUP1 DUP6 DUP6 GT ISZERO PUSH2 0x1907 JUMPI PUSH1 0x0 DUP1 REVERT JUMPDEST DUP4 DUP7 GT ISZERO PUSH2 0x1914 JUMPI PUSH1 0x0 DUP1 REVERT JUMPDEST POP POP DUP3 ADD SWAP4 SWAP2 SWAP1 SWAP3 SUB SWAP2 POP JUMP JUMPDEST PUSH1 0x1 PUSH1 0x1 PUSH1 0xD0 SHL SUB NOT DUP2 CALLDATALOAD DUP2 DUP2 AND SWAP2 PUSH1 0x6 DUP6 LT ISZERO PUSH2 0x16F6 JUMPI PUSH1 0x6 SWAP5 SWAP1 SWAP5 SUB PUSH1 0x3 SHL DUP5 SWAP1 SHL AND SWAP1 SWAP3 AND SWAP3 SWAP2 POP POP JUMP JUMPDEST DUP2 DUP4 DUP3 CALLDATACOPY PUSH1 0x0 SWAP2 ADD SWAP1 DUP2 MSTORE SWAP2 SWAP1 POP JUMP INVALID LOG2 PUSH5 0x6970667358 0x22 SLT KECCAK256 PUSH14 0x2EBF82F60A58B143246A537F398A 0x1F 0xE6 0xB9 0xE0 MOD 0xD8 CALLDATALOAD SWAP7 PUSH19 0x46D611B1CE5C0F8964736F6C63430008170033 "},"gasEstimates":{"creation":{"codeDepositCost":"1309800","executionCost":"infinite","totalCost":"infinite"},"external":{"SUPPORTED_ENTRYPOINT()":"infinite","domainSeparator()":"503","encodeMessageDataForSafe(address,bytes)":"infinite","executeUserOp(address,uint256,bytes,uint8)":"infinite","executeUserOpWithErrorString(address,uint256,bytes,uint8)":"infinite","getMessageHash(bytes)":"infinite","getMessageHashForSafe(address,bytes)":"infinite","getModules()":"infinite","getOperationHash((address,uint256,bytes,bytes,uint256,uint256,uint256,uint256,uint256,bytes,bytes))":"infinite","isValidSignature(bytes,bytes)":"infinite","isValidSignature(bytes32,bytes)":"infinite","onERC1155BatchReceived(address,address,uint256[],uint256[],bytes)":"infinite","onERC1155Received(address,address,uint256,uint256,bytes)":"infinite","onERC721Received(address,address,uint256,bytes)":"infinite","simulate(address,bytes)":"infinite","supportsInterface(bytes4)":"556","tokensReceived(address,address,address,uint256,bytes,bytes)":"infinite","validateUserOp((address,uint256,bytes,bytes,uint256,uint256,uint256,uint256,uint256,bytes,bytes),bytes32,uint256)":"infinite"}},"methodIdentifiers":{"SUPPORTED_ENTRYPOINT()":"137e051e","domainSeparator()":"f698da25","encodeMessageDataForSafe(address,bytes)":"23031640","executeUserOp(address,uint256,bytes,uint8)":"7bb37428","executeUserOpWithErrorString(address,uint256,bytes,uint8)":"541d63c8","getMessageHash(bytes)":"0a1028c4","getMessageHashForSafe(address,bytes)":"6ac24784","getModules()":"b2494df3","getOperationHash((address,uint256,bytes,bytes,uint256,uint256,uint256,uint256,uint256,bytes,bytes))":"b25f3776","isValidSignature(bytes,bytes)":"20c13b0b","isValidSignature(bytes32,bytes)":"1626ba7e","onERC1155BatchReceived(address,address,uint256[],uint256[],bytes)":"bc197c81","onERC1155Received(address,address,uint256,uint256,bytes)":"f23a6e61","onERC721Received(address,address,uint256,bytes)":"150b7a02","simulate(address,bytes)":"bd61951d","supportsInterface(bytes4)":"01ffc9a7","tokensReceived(address,address,address,uint256,bytes,bytes)":"0023de29","validateUserOp((address,uint256,bytes,bytes,uint256,uint256,uint256,uint256,uint256,bytes,bytes),bytes32,uint256)":"3a871cdd"}},"storageLayout":{"storage":[],"types":null},"userdoc":{"errors":{"InvalidEntryPoint()":[{"notice":"Reverted if attempting to execute userOp from invalid sender"}]},"kind":"user","methods":{"SUPPORTED_ENTRYPOINT()":{"notice":"The address of the EntryPoint contract supported by this module."},"domainSeparator()":{"notice":"Computes the 32-byte domain separator used in EIP-712 signature verification for Safe operations."},"executeUserOp(address,uint256,bytes,uint8)":{"notice":"Executes a user operation provided by the entry point."},"executeUserOpWithErrorString(address,uint256,bytes,uint8)":{"notice":"Executes a user operation provided by the entry point and returns error message on failure."},"getOperationHash((address,uint256,bytes,bytes,uint256,uint256,uint256,uint256,uint256,bytes,bytes))":{"notice":"Returns the 32-byte Safe operation hash to be signed by owners for the specified ERC-4337 user operation."},"isValidSignature(bytes,bytes)":{"notice":"Legacy EIP-1271 signature validation method."},"isValidSignature(bytes32,bytes)":{"notice":"Implementation of updated EIP-1271 signature validation method."},"onERC1155BatchReceived(address,address,uint256[],uint256[],bytes)":{"notice":"Handles ERC1155 Token batch callback. return Standardized onERC1155BatchReceived return value."},"onERC1155Received(address,address,uint256,uint256,bytes)":{"notice":"Handles ERC1155 Token callback. return Standardized onERC1155Received return value."},"onERC721Received(address,address,uint256,bytes)":{"notice":"Handles ERC721 Token callback.  return Standardized onERC721Received return value."},"supportsInterface(bytes4)":{"notice":"Implements ERC165 interface support for ERC1155TokenReceiver, ERC721TokenReceiver and IERC165."},"tokensReceived(address,address,address,uint256,bytes,bytes)":{"notice":"Handles ERC777 Token callback. return nothing (not standardized)"},"validateUserOp((address,uint256,bytes,bytes,uint256,uint256,uint256,uint256,uint256,bytes,bytes),bytes32,uint256)":{"notice":"Validates a user operation provided by the entry point."}},"notice":"ERC-4337 abstract account module enabling cross-chain userOp execution powered by Across V3 Bridge and Safe","version":1}}}}