{"@safe-global/safe-contracts/contracts/handler/CompatibilityFallbackHandler.sol":{"CompatibilityFallbackHandler":{"abi":[{"inputs":[{"internalType":"contract Safe","name":"safe","type":"address"},{"internalType":"bytes","name":"message","type":"bytes"}],"name":"encodeMessageDataForSafe","outputs":[{"internalType":"bytes","name":"","type":"bytes"}],"stateMutability":"view","type":"function"},{"inputs":[{"internalType":"bytes","name":"message","type":"bytes"}],"name":"getMessageHash","outputs":[{"internalType":"bytes32","name":"","type":"bytes32"}],"stateMutability":"view","type":"function"},{"inputs":[{"internalType":"contract Safe","name":"safe","type":"address"},{"internalType":"bytes","name":"message","type":"bytes"}],"name":"getMessageHashForSafe","outputs":[{"internalType":"bytes32","name":"","type":"bytes32"}],"stateMutability":"view","type":"function"},{"inputs":[],"name":"getModules","outputs":[{"internalType":"address[]","name":"","type":"address[]"}],"stateMutability":"view","type":"function"},{"inputs":[{"internalType":"bytes32","name":"_dataHash","type":"bytes32"},{"internalType":"bytes","name":"_signature","type":"bytes"}],"name":"isValidSignature","outputs":[{"internalType":"bytes4","name":"","type":"bytes4"}],"stateMutability":"view","type":"function"},{"inputs":[{"internalType":"bytes","name":"_data","type":"bytes"},{"internalType":"bytes","name":"_signature","type":"bytes"}],"name":"isValidSignature","outputs":[{"internalType":"bytes4","name":"","type":"bytes4"}],"stateMutability":"view","type":"function"},{"inputs":[{"internalType":"address","name":"","type":"address"},{"internalType":"address","name":"","type":"address"},{"internalType":"uint256[]","name":"","type":"uint256[]"},{"internalType":"uint256[]","name":"","type":"uint256[]"},{"internalType":"bytes","name":"","type":"bytes"}],"name":"onERC1155BatchReceived","outputs":[{"internalType":"bytes4","name":"","type":"bytes4"}],"stateMutability":"pure","type":"function"},{"inputs":[{"internalType":"address","name":"","type":"address"},{"internalType":"address","name":"","type":"address"},{"internalType":"uint256","name":"","type":"uint256"},{"internalType":"uint256","name":"","type":"uint256"},{"internalType":"bytes","name":"","type":"bytes"}],"name":"onERC1155Received","outputs":[{"internalType":"bytes4","name":"","type":"bytes4"}],"stateMutability":"pure","type":"function"},{"inputs":[{"internalType":"address","name":"","type":"address"},{"internalType":"address","name":"","type":"address"},{"internalType":"uint256","name":"","type":"uint256"},{"internalType":"bytes","name":"","type":"bytes"}],"name":"onERC721Received","outputs":[{"internalType":"bytes4","name":"","type":"bytes4"}],"stateMutability":"pure","type":"function"},{"inputs":[{"internalType":"address","name":"targetContract","type":"address"},{"internalType":"bytes","name":"calldataPayload","type":"bytes"}],"name":"simulate","outputs":[{"internalType":"bytes","name":"response","type":"bytes"}],"stateMutability":"nonpayable","type":"function"},{"inputs":[{"internalType":"bytes4","name":"interfaceId","type":"bytes4"}],"name":"supportsInterface","outputs":[{"internalType":"bool","name":"","type":"bool"}],"stateMutability":"view","type":"function"},{"inputs":[{"internalType":"address","name":"","type":"address"},{"internalType":"address","name":"","type":"address"},{"internalType":"address","name":"","type":"address"},{"internalType":"uint256","name":"","type":"uint256"},{"internalType":"bytes","name":"","type":"bytes"},{"internalType":"bytes","name":"","type":"bytes"}],"name":"tokensReceived","outputs":[],"stateMutability":"pure","type":"function"}],"devdoc":{"author":"Richard Meissner - @rmeissner","kind":"dev","methods":{"encodeMessageDataForSafe(address,bytes)":{"details":"Returns the pre-image of the message hash (see getMessageHashForSafe).","params":{"message":"Message that should be encoded.","safe":"Safe to which the message is targeted."},"returns":{"_0":"Encoded message."}},"getMessageHash(bytes)":{"details":"Returns the hash of a message to be signed by owners.","params":{"message":"Raw message bytes."},"returns":{"_0":"Message hash."}},"getMessageHashForSafe(address,bytes)":{"details":"Returns hash of a message that can be signed by owners.","params":{"message":"Message that should be hashed.","safe":"Safe to which the message is targeted."},"returns":{"_0":"Message hash."}},"getModules()":{"details":"Returns array of first 10 modules.","returns":{"_0":"Array of modules."}},"isValidSignature(bytes,bytes)":{"details":"Implementation of ISignatureValidator (see `interfaces/ISignatureValidator.sol`)","params":{"_data":"Arbitrary length data signed on the behalf of address(msg.sender).","_signature":"Signature byte array associated with _data."},"returns":{"_0":"The EIP-1271 magic value."}},"isValidSignature(bytes32,bytes)":{"params":{"_dataHash":"Hash of the data signed on the behalf of address(msg.sender)","_signature":"Signature byte array associated with _dataHash"},"returns":{"_0":"Updated EIP1271 magic value if signature is valid, otherwise 0x0"}},"simulate(address,bytes)":{"details":"Performs a delegatecall on a targetContract in the context of self. Internally reverts execution to avoid side effects (making it static). Catches revert and returns encoded result as bytes.Inspired by https://github.com/gnosis/util-contracts/blob/bb5fe5fb5df6d8400998094fb1b32a178a47c3a1/contracts/StorageAccessible.sol","params":{"calldataPayload":"Calldata that should be sent to the target contract (encoded method name and arguments).","targetContract":"Address of the contract containing the code to execute."}},"supportsInterface(bytes4)":{"params":{"interfaceId":"Id of the interface."},"returns":{"_0":"if the interface is supported."}}},"title":"Compatibility Fallback Handler - Provides compatibility between pre 1.3.0 and 1.3.0+ Safe contracts.","version":1},"evm":{"bytecode":{"linkReferences":{},"object":"608060405234801561001057600080fd5b50610dfe806100206000396000f3fe608060405234801561001057600080fd5b50600436106100b35760003560e01c8063230316401161007157806323031640146101795780636ac2478414610199578063b2494df3146101ac578063bc197c81146101c1578063bd61951d146101e3578063f23a6e61146101f657600080fd5b806223de29146100b857806301ffc9a7146100d25780630a1028c4146100fa578063150b7a021461011b5780631626ba7e1461015357806320c13b0b14610166575b600080fd5b6100d06100c63660046106ce565b5050505050505050565b005b6100e56100e0366004610794565b610216565b60405190151581526020015b60405180910390f35b61010d610108366004610866565b610268565b6040519081526020016100f1565b61013a6101293660046108a2565b630a85bd0160e11b95945050505050565b6040516001600160e01b031990911681526020016100f1565b61013a610161366004610914565b610274565b61013a61017436600461095f565b610332565b61018c6101873660046109c2565b61047c565b6040516100f19190610a4d565b61010d6101a73660046109c2565b61058e565b6101b46105a9565b6040516100f19190610a60565b61013a6101cf366004610af1565b63bc197c8160e01b98975050505050505050565b61018c6101f1366004610b8e565b610624565b61013a610204366004610bc9565b63f23a6e6160e01b9695505050505050565b60006001600160e01b03198216630271189760e51b148061024757506001600160e01b03198216630a85bd0160e11b145b8061026257506001600160e01b031982166301ffc9a760e01b145b92915050565b6000610262338361058e565b60408051602080820186905282518083039091018152818301928390526320c13b0b60e01b9092526000913391839183916320c13b0b916102bb9189908990604401610c44565b602060405180830381865afa1580156102d8573d6000803e3d6000fd5b505050506040513d601f19601f820116820180604052508101906102fc9190610c8a565b90506001600160e01b031981166320c13b0b60e01b1461031d576000610326565b630b135d3f60e11b5b925050505b9392505050565b60003381610340828661047c565b8051602082012085519192509060000361040957604051635ae6bd3760e01b8152600481018290526001600160a01b03841690635ae6bd3790602401602060405180830381865afa158015610399573d6000803e3d6000fd5b505050506040513d601f19601f820116820180604052508101906103bd9190610ca7565b6000036104045760405162461bcd60e51b815260206004820152601160248201527012185cda081b9bdd08185c1c1c9bdd9959607a1b604482015260640160405180910390fd5b61046a565b60405163934f3a1160e01b81526001600160a01b0384169063934f3a119061043990849086908a90600401610cc0565b60006040518083038186803b15801561045157600080fd5b505afa158015610465573d6000803e3d6000fd5b505050505b506320c13b0b60e01b95945050505050565b606060007f60b3cbf8b4a223d68d641b3b6ddf9a298e7f33710cf3d3a9d1146b5a6150fbca60001b83805190602001206040516020016104c6929190918252602082015260400190565b604051602081830303815290604052805190602001209050601960f81b600160f81b856001600160a01b031663f698da256040518163ffffffff1660e01b8152600401602060405180830381865afa158015610526573d6000803e3d6000fd5b505050506040513d601f19601f8201168201806040525081019061054a9190610ca7565b6040516001600160f81b0319938416602082015292909116602183015260228201526042810182905260620160405160208183030381529060405291505092915050565b600061059a838361047c565b80519060200120905092915050565b604051636617c22960e11b815260016004820152600a60248201526060903390600090829063cc2f845290604401600060405180830381865afa1580156105f4573d6000803e3d6000fd5b505050506040513d6000823e601f3d908101601f1916820160405261061c9190810190610d05565b509392505050565b606060405163b4faba0960e01b8152600436036004808301376020600036836000335af1505060203d036040519150808201604052806020833e5060005161032b57805160208201fd5b6001600160a01b038116811461068357600080fd5b50565b60008083601f84011261069857600080fd5b5081356001600160401b038111156106af57600080fd5b6020830191508360208285010111156106c757600080fd5b9250929050565b60008060008060008060008060c0898b0312156106ea57600080fd5b88356106f58161066e565b975060208901356107058161066e565b965060408901356107158161066e565b95506060890135945060808901356001600160401b038082111561073857600080fd5b6107448c838d01610686565b909650945060a08b013591508082111561075d57600080fd5b5061076a8b828c01610686565b999c989b5096995094979396929594505050565b6001600160e01b03198116811461068357600080fd5b6000602082840312156107a657600080fd5b813561032b8161077e565b634e487b7160e01b600052604160045260246000fd5b604051601f8201601f191681016001600160401b03811182821017156107ef576107ef6107b1565b604052919050565b600082601f83011261080857600080fd5b81356001600160401b03811115610821576108216107b1565b610834601f8201601f19166020016107c7565b81815284602083860101111561084957600080fd5b816020850160208301376000918101602001919091529392505050565b60006020828403121561087857600080fd5b81356001600160401b0381111561088e57600080fd5b61089a848285016107f7565b949350505050565b6000806000806000608086880312156108ba57600080fd5b85356108c58161066e565b945060208601356108d58161066e565b93506040860135925060608601356001600160401b038111156108f757600080fd5b61090388828901610686565b969995985093965092949392505050565b60008060006040848603121561092957600080fd5b8335925060208401356001600160401b0381111561094657600080fd5b61095286828701610686565b9497909650939450505050565b6000806040838503121561097257600080fd5b82356001600160401b038082111561098957600080fd5b610995868387016107f7565b935060208501359150808211156109ab57600080fd5b506109b8858286016107f7565b9150509250929050565b600080604083850312156109d557600080fd5b82356109e08161066e565b915060208301356001600160401b038111156109fb57600080fd5b6109b8858286016107f7565b6000815180845260005b81811015610a2d57602081850181015186830182015201610a11565b506000602082860101526020601f19601f83011685010191505092915050565b60208152600061032b6020830184610a07565b6020808252825182820181905260009190848201906040850190845b81811015610aa15783516001600160a01b031683529284019291840191600101610a7c565b50909695505050505050565b60008083601f840112610abf57600080fd5b5081356001600160401b03811115610ad657600080fd5b6020830191508360208260051b85010111156106c757600080fd5b60008060008060008060008060a0898b031215610b0d57600080fd5b8835610b188161066e565b97506020890135610b288161066e565b965060408901356001600160401b0380821115610b4457600080fd5b610b508c838d01610aad565b909850965060608b0135915080821115610b6957600080fd5b610b758c838d01610aad565b909650945060808b013591508082111561075d57600080fd5b600080600060408486031215610ba357600080fd5b8335610bae8161066e565b925060208401356001600160401b0381111561094657600080fd5b60008060008060008060a08789031215610be257600080fd5b8635610bed8161066e565b95506020870135610bfd8161066e565b9450604087013593506060870135925060808701356001600160401b03811115610c2657600080fd5b610c3289828a01610686565b979a9699509497509295939492505050565b604081526000610c576040830186610a07565b8281036020840152838152838560208301376000602085830101526020601f19601f860116820101915050949350505050565b600060208284031215610c9c57600080fd5b815161032b8161077e565b600060208284031215610cb957600080fd5b5051919050565b838152606060208201526000610cd96060830185610a07565b8281036040840152610ceb8185610a07565b9695505050505050565b8051610d008161066e565b919050565b60008060408385031215610d1857600080fd5b82516001600160401b0380821115610d2f57600080fd5b818501915085601f830112610d4357600080fd5b8151602082821115610d5757610d576107b1565b8160051b9250610d688184016107c7565b8281529284018101928181019089851115610d8257600080fd5b948201945b84861015610dac5785519350610d9c8461066e565b8382529482019490820190610d87565b9650610dbb9050878201610cf5565b945050505050925092905056fea2646970667358221220e767bd389afc790344b025f640b9f5efe677e1fb2429b37c469a30c2c9eafcef64736f6c63430008170033","opcodes":"PUSH1 0x80 PUSH1 0x40 MSTORE CALLVALUE DUP1 ISZERO PUSH2 0x10 JUMPI PUSH1 0x0 DUP1 REVERT JUMPDEST POP PUSH2 0xDFE DUP1 PUSH2 0x20 PUSH1 0x0 CODECOPY PUSH1 0x0 RETURN INVALID PUSH1 0x80 PUSH1 0x40 MSTORE CALLVALUE DUP1 ISZERO PUSH2 0x10 JUMPI PUSH1 0x0 DUP1 REVERT JUMPDEST POP PUSH1 0x4 CALLDATASIZE LT PUSH2 0xB3 JUMPI PUSH1 0x0 CALLDATALOAD PUSH1 0xE0 SHR DUP1 PUSH4 0x23031640 GT PUSH2 0x71 JUMPI DUP1 PUSH4 0x23031640 EQ PUSH2 0x179 JUMPI DUP1 PUSH4 0x6AC24784 EQ PUSH2 0x199 JUMPI DUP1 PUSH4 0xB2494DF3 EQ PUSH2 0x1AC JUMPI DUP1 PUSH4 0xBC197C81 EQ PUSH2 0x1C1 JUMPI DUP1 PUSH4 0xBD61951D EQ PUSH2 0x1E3 JUMPI DUP1 PUSH4 0xF23A6E61 EQ PUSH2 0x1F6 JUMPI PUSH1 0x0 DUP1 REVERT JUMPDEST DUP1 PUSH3 0x23DE29 EQ PUSH2 0xB8 JUMPI DUP1 PUSH4 0x1FFC9A7 EQ PUSH2 0xD2 JUMPI DUP1 PUSH4 0xA1028C4 EQ PUSH2 0xFA JUMPI DUP1 PUSH4 0x150B7A02 EQ PUSH2 0x11B JUMPI DUP1 PUSH4 0x1626BA7E EQ PUSH2 0x153 JUMPI DUP1 PUSH4 0x20C13B0B EQ PUSH2 0x166 JUMPI JUMPDEST PUSH1 0x0 DUP1 REVERT JUMPDEST PUSH2 0xD0 PUSH2 0xC6 CALLDATASIZE PUSH1 0x4 PUSH2 0x6CE JUMP JUMPDEST POP POP POP POP POP POP POP POP JUMP JUMPDEST STOP JUMPDEST PUSH2 0xE5 PUSH2 0xE0 CALLDATASIZE PUSH1 0x4 PUSH2 0x794 JUMP JUMPDEST PUSH2 0x216 JUMP JUMPDEST PUSH1 0x40 MLOAD SWAP1 ISZERO ISZERO DUP2 MSTORE PUSH1 0x20 ADD JUMPDEST PUSH1 0x40 MLOAD DUP1 SWAP2 SUB SWAP1 RETURN JUMPDEST PUSH2 0x10D PUSH2 0x108 CALLDATASIZE PUSH1 0x4 PUSH2 0x866 JUMP JUMPDEST PUSH2 0x268 JUMP JUMPDEST PUSH1 0x40 MLOAD SWAP1 DUP2 MSTORE PUSH1 0x20 ADD PUSH2 0xF1 JUMP JUMPDEST PUSH2 0x13A PUSH2 0x129 CALLDATASIZE PUSH1 0x4 PUSH2 0x8A2 JUMP JUMPDEST PUSH4 0xA85BD01 PUSH1 0xE1 SHL SWAP6 SWAP5 POP POP POP POP POP JUMP JUMPDEST PUSH1 0x40 MLOAD PUSH1 0x1 PUSH1 0x1 PUSH1 0xE0 SHL SUB NOT SWAP1 SWAP2 AND DUP2 MSTORE PUSH1 0x20 ADD PUSH2 0xF1 JUMP JUMPDEST PUSH2 0x13A PUSH2 0x161 CALLDATASIZE PUSH1 0x4 PUSH2 0x914 JUMP JUMPDEST PUSH2 0x274 JUMP JUMPDEST PUSH2 0x13A PUSH2 0x174 CALLDATASIZE PUSH1 0x4 PUSH2 0x95F JUMP JUMPDEST PUSH2 0x332 JUMP JUMPDEST PUSH2 0x18C PUSH2 0x187 CALLDATASIZE PUSH1 0x4 PUSH2 0x9C2 JUMP JUMPDEST PUSH2 0x47C JUMP JUMPDEST PUSH1 0x40 MLOAD PUSH2 0xF1 SWAP2 SWAP1 PUSH2 0xA4D JUMP JUMPDEST PUSH2 0x10D PUSH2 0x1A7 CALLDATASIZE PUSH1 0x4 PUSH2 0x9C2 JUMP JUMPDEST PUSH2 0x58E JUMP JUMPDEST PUSH2 0x1B4 PUSH2 0x5A9 JUMP JUMPDEST PUSH1 0x40 MLOAD PUSH2 0xF1 SWAP2 SWAP1 PUSH2 0xA60 JUMP JUMPDEST PUSH2 0x13A PUSH2 0x1CF CALLDATASIZE PUSH1 0x4 PUSH2 0xAF1 JUMP JUMPDEST PUSH4 0xBC197C81 PUSH1 0xE0 SHL SWAP9 SWAP8 POP POP POP POP POP POP POP POP JUMP JUMPDEST PUSH2 0x18C PUSH2 0x1F1 CALLDATASIZE PUSH1 0x4 PUSH2 0xB8E JUMP JUMPDEST PUSH2 0x624 JUMP JUMPDEST PUSH2 0x13A PUSH2 0x204 CALLDATASIZE PUSH1 0x4 PUSH2 0xBC9 JUMP JUMPDEST PUSH4 0xF23A6E61 PUSH1 0xE0 SHL SWAP7 SWAP6 POP POP POP POP POP POP JUMP JUMPDEST PUSH1 0x0 PUSH1 0x1 PUSH1 0x1 PUSH1 0xE0 SHL SUB NOT DUP3 AND PUSH4 0x2711897 PUSH1 0xE5 SHL EQ DUP1 PUSH2 0x247 JUMPI POP PUSH1 0x1 PUSH1 0x1 PUSH1 0xE0 SHL SUB NOT DUP3 AND PUSH4 0xA85BD01 PUSH1 0xE1 SHL EQ JUMPDEST DUP1 PUSH2 0x262 JUMPI POP PUSH1 0x1 PUSH1 0x1 PUSH1 0xE0 SHL SUB NOT DUP3 AND PUSH4 0x1FFC9A7 PUSH1 0xE0 SHL EQ JUMPDEST SWAP3 SWAP2 POP POP JUMP JUMPDEST PUSH1 0x0 PUSH2 0x262 CALLER DUP4 PUSH2 0x58E JUMP JUMPDEST PUSH1 0x40 DUP1 MLOAD PUSH1 0x20 DUP1 DUP3 ADD DUP7 SWAP1 MSTORE DUP3 MLOAD DUP1 DUP4 SUB SWAP1 SWAP2 ADD DUP2 MSTORE DUP2 DUP4 ADD SWAP3 DUP4 SWAP1 MSTORE PUSH4 0x20C13B0B PUSH1 0xE0 SHL SWAP1 SWAP3 MSTORE PUSH1 0x0 SWAP2 CALLER SWAP2 DUP4 SWAP2 DUP4 SWAP2 PUSH4 0x20C13B0B SWAP2 PUSH2 0x2BB SWAP2 DUP10 SWAP1 DUP10 SWAP1 PUSH1 0x44 ADD PUSH2 0xC44 JUMP JUMPDEST PUSH1 0x20 PUSH1 0x40 MLOAD DUP1 DUP4 SUB DUP2 DUP7 GAS STATICCALL ISZERO DUP1 ISZERO PUSH2 0x2D8 JUMPI RETURNDATASIZE PUSH1 0x0 DUP1 RETURNDATACOPY RETURNDATASIZE PUSH1 0x0 REVERT JUMPDEST POP POP POP POP PUSH1 0x40 MLOAD RETURNDATASIZE PUSH1 0x1F NOT PUSH1 0x1F DUP3 ADD AND DUP3 ADD DUP1 PUSH1 0x40 MSTORE POP DUP2 ADD SWAP1 PUSH2 0x2FC SWAP2 SWAP1 PUSH2 0xC8A JUMP JUMPDEST SWAP1 POP PUSH1 0x1 PUSH1 0x1 PUSH1 0xE0 SHL SUB NOT DUP2 AND PUSH4 0x20C13B0B PUSH1 0xE0 SHL EQ PUSH2 0x31D JUMPI PUSH1 0x0 PUSH2 0x326 JUMP JUMPDEST PUSH4 0xB135D3F PUSH1 0xE1 SHL JUMPDEST SWAP3 POP POP POP JUMPDEST SWAP4 SWAP3 POP POP POP JUMP JUMPDEST PUSH1 0x0 CALLER DUP2 PUSH2 0x340 DUP3 DUP7 PUSH2 0x47C JUMP JUMPDEST DUP1 MLOAD PUSH1 0x20 DUP3 ADD KECCAK256 DUP6 MLOAD SWAP2 SWAP3 POP SWAP1 PUSH1 0x0 SUB PUSH2 0x409 JUMPI PUSH1 0x40 MLOAD PUSH4 0x5AE6BD37 PUSH1 0xE0 SHL DUP2 MSTORE PUSH1 0x4 DUP2 ADD DUP3 SWAP1 MSTORE PUSH1 0x1 PUSH1 0x1 PUSH1 0xA0 SHL SUB DUP5 AND SWAP1 PUSH4 0x5AE6BD37 SWAP1 PUSH1 0x24 ADD PUSH1 0x20 PUSH1 0x40 MLOAD DUP1 DUP4 SUB DUP2 DUP7 GAS STATICCALL ISZERO DUP1 ISZERO PUSH2 0x399 JUMPI RETURNDATASIZE PUSH1 0x0 DUP1 RETURNDATACOPY RETURNDATASIZE PUSH1 0x0 REVERT JUMPDEST POP POP POP POP PUSH1 0x40 MLOAD RETURNDATASIZE PUSH1 0x1F NOT PUSH1 0x1F DUP3 ADD AND DUP3 ADD DUP1 PUSH1 0x40 MSTORE POP DUP2 ADD SWAP1 PUSH2 0x3BD SWAP2 SWAP1 PUSH2 0xCA7 JUMP JUMPDEST PUSH1 0x0 SUB PUSH2 0x404 JUMPI PUSH1 0x40 MLOAD PUSH3 0x461BCD PUSH1 0xE5 SHL DUP2 MSTORE PUSH1 0x20 PUSH1 0x4 DUP3 ADD MSTORE PUSH1 0x11 PUSH1 0x24 DUP3 ADD MSTORE PUSH17 0x12185CDA081B9BDD08185C1C1C9BDD9959 PUSH1 0x7A SHL PUSH1 0x44 DUP3 ADD MSTORE PUSH1 0x64 ADD PUSH1 0x40 MLOAD DUP1 SWAP2 SUB SWAP1 REVERT JUMPDEST PUSH2 0x46A JUMP JUMPDEST PUSH1 0x40 MLOAD PUSH4 0x934F3A11 PUSH1 0xE0 SHL DUP2 MSTORE PUSH1 0x1 PUSH1 0x1 PUSH1 0xA0 SHL SUB DUP5 AND SWAP1 PUSH4 0x934F3A11 SWAP1 PUSH2 0x439 SWAP1 DUP5 SWAP1 DUP7 SWAP1 DUP11 SWAP1 PUSH1 0x4 ADD PUSH2 0xCC0 JUMP JUMPDEST PUSH1 0x0 PUSH1 0x40 MLOAD DUP1 DUP4 SUB DUP2 DUP7 DUP1 EXTCODESIZE ISZERO DUP1 ISZERO PUSH2 0x451 JUMPI PUSH1 0x0 DUP1 REVERT JUMPDEST POP GAS STATICCALL ISZERO DUP1 ISZERO PUSH2 0x465 JUMPI RETURNDATASIZE PUSH1 0x0 DUP1 RETURNDATACOPY RETURNDATASIZE PUSH1 0x0 REVERT JUMPDEST POP POP POP POP JUMPDEST POP PUSH4 0x20C13B0B PUSH1 0xE0 SHL SWAP6 SWAP5 POP POP POP POP POP JUMP JUMPDEST PUSH1 0x60 PUSH1 0x0 PUSH32 0x60B3CBF8B4A223D68D641B3B6DDF9A298E7F33710CF3D3A9D1146B5A6150FBCA PUSH1 0x0 SHL DUP4 DUP1 MLOAD SWAP1 PUSH1 0x20 ADD KECCAK256 PUSH1 0x40 MLOAD PUSH1 0x20 ADD PUSH2 0x4C6 SWAP3 SWAP2 SWAP1 SWAP2 DUP3 MSTORE PUSH1 0x20 DUP3 ADD MSTORE PUSH1 0x40 ADD SWAP1 JUMP JUMPDEST PUSH1 0x40 MLOAD PUSH1 0x20 DUP2 DUP4 SUB SUB DUP2 MSTORE SWAP1 PUSH1 0x40 MSTORE DUP1 MLOAD SWAP1 PUSH1 0x20 ADD KECCAK256 SWAP1 POP PUSH1 0x19 PUSH1 0xF8 SHL PUSH1 0x1 PUSH1 0xF8 SHL DUP6 PUSH1 0x1 PUSH1 0x1 PUSH1 0xA0 SHL SUB AND PUSH4 0xF698DA25 PUSH1 0x40 MLOAD DUP2 PUSH4 0xFFFFFFFF AND PUSH1 0xE0 SHL DUP2 MSTORE PUSH1 0x4 ADD PUSH1 0x20 PUSH1 0x40 MLOAD DUP1 DUP4 SUB DUP2 DUP7 GAS STATICCALL ISZERO DUP1 ISZERO PUSH2 0x526 JUMPI RETURNDATASIZE PUSH1 0x0 DUP1 RETURNDATACOPY RETURNDATASIZE PUSH1 0x0 REVERT JUMPDEST POP POP POP POP PUSH1 0x40 MLOAD RETURNDATASIZE PUSH1 0x1F NOT PUSH1 0x1F DUP3 ADD AND DUP3 ADD DUP1 PUSH1 0x40 MSTORE POP DUP2 ADD SWAP1 PUSH2 0x54A SWAP2 SWAP1 PUSH2 0xCA7 JUMP JUMPDEST PUSH1 0x40 MLOAD PUSH1 0x1 PUSH1 0x1 PUSH1 0xF8 SHL SUB NOT SWAP4 DUP5 AND PUSH1 0x20 DUP3 ADD MSTORE SWAP3 SWAP1 SWAP2 AND PUSH1 0x21 DUP4 ADD MSTORE PUSH1 0x22 DUP3 ADD MSTORE PUSH1 0x42 DUP2 ADD DUP3 SWAP1 MSTORE PUSH1 0x62 ADD PUSH1 0x40 MLOAD PUSH1 0x20 DUP2 DUP4 SUB SUB DUP2 MSTORE SWAP1 PUSH1 0x40 MSTORE SWAP2 POP POP SWAP3 SWAP2 POP POP JUMP JUMPDEST PUSH1 0x0 PUSH2 0x59A DUP4 DUP4 PUSH2 0x47C JUMP JUMPDEST DUP1 MLOAD SWAP1 PUSH1 0x20 ADD KECCAK256 SWAP1 POP SWAP3 SWAP2 POP POP JUMP JUMPDEST PUSH1 0x40 MLOAD PUSH4 0x6617C229 PUSH1 0xE1 SHL DUP2 MSTORE PUSH1 0x1 PUSH1 0x4 DUP3 ADD MSTORE PUSH1 0xA PUSH1 0x24 DUP3 ADD MSTORE PUSH1 0x60 SWAP1 CALLER SWAP1 PUSH1 0x0 SWAP1 DUP3 SWAP1 PUSH4 0xCC2F8452 SWAP1 PUSH1 0x44 ADD PUSH1 0x0 PUSH1 0x40 MLOAD DUP1 DUP4 SUB DUP2 DUP7 GAS STATICCALL ISZERO DUP1 ISZERO PUSH2 0x5F4 JUMPI RETURNDATASIZE PUSH1 0x0 DUP1 RETURNDATACOPY RETURNDATASIZE PUSH1 0x0 REVERT JUMPDEST POP POP POP POP PUSH1 0x40 MLOAD RETURNDATASIZE PUSH1 0x0 DUP3 RETURNDATACOPY PUSH1 0x1F RETURNDATASIZE SWAP1 DUP2 ADD PUSH1 0x1F NOT AND DUP3 ADD PUSH1 0x40 MSTORE PUSH2 0x61C SWAP2 SWAP1 DUP2 ADD SWAP1 PUSH2 0xD05 JUMP JUMPDEST POP SWAP4 SWAP3 POP POP POP JUMP JUMPDEST PUSH1 0x60 PUSH1 0x40 MLOAD PUSH4 0xB4FABA09 PUSH1 0xE0 SHL DUP2 MSTORE PUSH1 0x4 CALLDATASIZE SUB PUSH1 0x4 DUP1 DUP4 ADD CALLDATACOPY PUSH1 0x20 PUSH1 0x0 CALLDATASIZE DUP4 PUSH1 0x0 CALLER GAS CALL POP POP PUSH1 0x20 RETURNDATASIZE SUB PUSH1 0x40 MLOAD SWAP2 POP DUP1 DUP3 ADD PUSH1 0x40 MSTORE DUP1 PUSH1 0x20 DUP4 RETURNDATACOPY POP PUSH1 0x0 MLOAD PUSH2 0x32B JUMPI DUP1 MLOAD PUSH1 0x20 DUP3 ADD REVERT JUMPDEST PUSH1 0x1 PUSH1 0x1 PUSH1 0xA0 SHL SUB DUP2 AND DUP2 EQ PUSH2 0x683 JUMPI PUSH1 0x0 DUP1 REVERT JUMPDEST POP JUMP JUMPDEST PUSH1 0x0 DUP1 DUP4 PUSH1 0x1F DUP5 ADD SLT PUSH2 0x698 JUMPI PUSH1 0x0 DUP1 REVERT JUMPDEST POP DUP2 CALLDATALOAD PUSH1 0x1 PUSH1 0x1 PUSH1 0x40 SHL SUB DUP2 GT ISZERO PUSH2 0x6AF JUMPI PUSH1 0x0 DUP1 REVERT JUMPDEST PUSH1 0x20 DUP4 ADD SWAP2 POP DUP4 PUSH1 0x20 DUP3 DUP6 ADD ADD GT ISZERO PUSH2 0x6C7 JUMPI PUSH1 0x0 DUP1 REVERT JUMPDEST SWAP3 POP SWAP3 SWAP1 POP JUMP JUMPDEST PUSH1 0x0 DUP1 PUSH1 0x0 DUP1 PUSH1 0x0 DUP1 PUSH1 0x0 DUP1 PUSH1 0xC0 DUP10 DUP12 SUB SLT ISZERO PUSH2 0x6EA JUMPI PUSH1 0x0 DUP1 REVERT JUMPDEST DUP9 CALLDATALOAD PUSH2 0x6F5 DUP2 PUSH2 0x66E JUMP JUMPDEST SWAP8 POP PUSH1 0x20 DUP10 ADD CALLDATALOAD PUSH2 0x705 DUP2 PUSH2 0x66E JUMP JUMPDEST SWAP7 POP PUSH1 0x40 DUP10 ADD CALLDATALOAD PUSH2 0x715 DUP2 PUSH2 0x66E JUMP JUMPDEST SWAP6 POP PUSH1 0x60 DUP10 ADD CALLDATALOAD SWAP5 POP PUSH1 0x80 DUP10 ADD CALLDATALOAD PUSH1 0x1 PUSH1 0x1 PUSH1 0x40 SHL SUB DUP1 DUP3 GT ISZERO PUSH2 0x738 JUMPI PUSH1 0x0 DUP1 REVERT JUMPDEST PUSH2 0x744 DUP13 DUP4 DUP14 ADD PUSH2 0x686 JUMP JUMPDEST SWAP1 SWAP7 POP SWAP5 POP PUSH1 0xA0 DUP12 ADD CALLDATALOAD SWAP2 POP DUP1 DUP3 GT ISZERO PUSH2 0x75D JUMPI PUSH1 0x0 DUP1 REVERT JUMPDEST POP PUSH2 0x76A DUP12 DUP3 DUP13 ADD PUSH2 0x686 JUMP JUMPDEST SWAP10 SWAP13 SWAP9 SWAP12 POP SWAP7 SWAP10 POP SWAP5 SWAP8 SWAP4 SWAP7 SWAP3 SWAP6 SWAP5 POP POP POP JUMP JUMPDEST PUSH1 0x1 PUSH1 0x1 PUSH1 0xE0 SHL SUB NOT DUP2 AND DUP2 EQ PUSH2 0x683 JUMPI PUSH1 0x0 DUP1 REVERT JUMPDEST PUSH1 0x0 PUSH1 0x20 DUP3 DUP5 SUB SLT ISZERO PUSH2 0x7A6 JUMPI PUSH1 0x0 DUP1 REVERT JUMPDEST DUP2 CALLDATALOAD PUSH2 0x32B DUP2 PUSH2 0x77E JUMP JUMPDEST PUSH4 0x4E487B71 PUSH1 0xE0 SHL PUSH1 0x0 MSTORE PUSH1 0x41 PUSH1 0x4 MSTORE PUSH1 0x24 PUSH1 0x0 REVERT JUMPDEST PUSH1 0x40 MLOAD PUSH1 0x1F DUP3 ADD PUSH1 0x1F NOT AND DUP2 ADD PUSH1 0x1 PUSH1 0x1 PUSH1 0x40 SHL SUB DUP2 GT DUP3 DUP3 LT OR ISZERO PUSH2 0x7EF JUMPI PUSH2 0x7EF PUSH2 0x7B1 JUMP JUMPDEST PUSH1 0x40 MSTORE SWAP2 SWAP1 POP JUMP JUMPDEST PUSH1 0x0 DUP3 PUSH1 0x1F DUP4 ADD SLT PUSH2 0x808 JUMPI PUSH1 0x0 DUP1 REVERT JUMPDEST DUP2 CALLDATALOAD PUSH1 0x1 PUSH1 0x1 PUSH1 0x40 SHL SUB DUP2 GT ISZERO PUSH2 0x821 JUMPI PUSH2 0x821 PUSH2 0x7B1 JUMP JUMPDEST PUSH2 0x834 PUSH1 0x1F DUP3 ADD PUSH1 0x1F NOT AND PUSH1 0x20 ADD PUSH2 0x7C7 JUMP JUMPDEST DUP2 DUP2 MSTORE DUP5 PUSH1 0x20 DUP4 DUP7 ADD ADD GT ISZERO PUSH2 0x849 JUMPI PUSH1 0x0 DUP1 REVERT JUMPDEST DUP2 PUSH1 0x20 DUP6 ADD PUSH1 0x20 DUP4 ADD CALLDATACOPY PUSH1 0x0 SWAP2 DUP2 ADD PUSH1 0x20 ADD SWAP2 SWAP1 SWAP2 MSTORE SWAP4 SWAP3 POP POP POP JUMP JUMPDEST PUSH1 0x0 PUSH1 0x20 DUP3 DUP5 SUB SLT ISZERO PUSH2 0x878 JUMPI PUSH1 0x0 DUP1 REVERT JUMPDEST DUP2 CALLDATALOAD PUSH1 0x1 PUSH1 0x1 PUSH1 0x40 SHL SUB DUP2 GT ISZERO PUSH2 0x88E JUMPI PUSH1 0x0 DUP1 REVERT JUMPDEST PUSH2 0x89A DUP5 DUP3 DUP6 ADD PUSH2 0x7F7 JUMP JUMPDEST SWAP5 SWAP4 POP POP POP POP JUMP JUMPDEST PUSH1 0x0 DUP1 PUSH1 0x0 DUP1 PUSH1 0x0 PUSH1 0x80 DUP7 DUP9 SUB SLT ISZERO PUSH2 0x8BA JUMPI PUSH1 0x0 DUP1 REVERT JUMPDEST DUP6 CALLDATALOAD PUSH2 0x8C5 DUP2 PUSH2 0x66E JUMP JUMPDEST SWAP5 POP PUSH1 0x20 DUP7 ADD CALLDATALOAD PUSH2 0x8D5 DUP2 PUSH2 0x66E JUMP JUMPDEST SWAP4 POP PUSH1 0x40 DUP7 ADD CALLDATALOAD SWAP3 POP PUSH1 0x60 DUP7 ADD CALLDATALOAD PUSH1 0x1 PUSH1 0x1 PUSH1 0x40 SHL SUB DUP2 GT ISZERO PUSH2 0x8F7 JUMPI PUSH1 0x0 DUP1 REVERT JUMPDEST PUSH2 0x903 DUP9 DUP3 DUP10 ADD PUSH2 0x686 JUMP JUMPDEST SWAP7 SWAP10 SWAP6 SWAP9 POP SWAP4 SWAP7 POP SWAP3 SWAP5 SWAP4 SWAP3 POP POP POP JUMP JUMPDEST PUSH1 0x0 DUP1 PUSH1 0x0 PUSH1 0x40 DUP5 DUP7 SUB SLT ISZERO PUSH2 0x929 JUMPI PUSH1 0x0 DUP1 REVERT JUMPDEST DUP4 CALLDATALOAD SWAP3 POP PUSH1 0x20 DUP5 ADD CALLDATALOAD PUSH1 0x1 PUSH1 0x1 PUSH1 0x40 SHL SUB DUP2 GT ISZERO PUSH2 0x946 JUMPI PUSH1 0x0 DUP1 REVERT JUMPDEST PUSH2 0x952 DUP7 DUP3 DUP8 ADD PUSH2 0x686 JUMP JUMPDEST SWAP5 SWAP8 SWAP1 SWAP7 POP SWAP4 SWAP5 POP POP POP POP JUMP JUMPDEST PUSH1 0x0 DUP1 PUSH1 0x40 DUP4 DUP6 SUB SLT ISZERO PUSH2 0x972 JUMPI PUSH1 0x0 DUP1 REVERT JUMPDEST DUP3 CALLDATALOAD PUSH1 0x1 PUSH1 0x1 PUSH1 0x40 SHL SUB DUP1 DUP3 GT ISZERO PUSH2 0x989 JUMPI PUSH1 0x0 DUP1 REVERT JUMPDEST PUSH2 0x995 DUP7 DUP4 DUP8 ADD PUSH2 0x7F7 JUMP JUMPDEST SWAP4 POP PUSH1 0x20 DUP6 ADD CALLDATALOAD SWAP2 POP DUP1 DUP3 GT ISZERO PUSH2 0x9AB JUMPI PUSH1 0x0 DUP1 REVERT JUMPDEST POP PUSH2 0x9B8 DUP6 DUP3 DUP7 ADD PUSH2 0x7F7 JUMP JUMPDEST SWAP2 POP POP SWAP3 POP SWAP3 SWAP1 POP JUMP JUMPDEST PUSH1 0x0 DUP1 PUSH1 0x40 DUP4 DUP6 SUB SLT ISZERO PUSH2 0x9D5 JUMPI PUSH1 0x0 DUP1 REVERT JUMPDEST DUP3 CALLDATALOAD PUSH2 0x9E0 DUP2 PUSH2 0x66E JUMP JUMPDEST SWAP2 POP PUSH1 0x20 DUP4 ADD CALLDATALOAD PUSH1 0x1 PUSH1 0x1 PUSH1 0x40 SHL SUB DUP2 GT ISZERO PUSH2 0x9FB JUMPI PUSH1 0x0 DUP1 REVERT JUMPDEST PUSH2 0x9B8 DUP6 DUP3 DUP7 ADD PUSH2 0x7F7 JUMP JUMPDEST PUSH1 0x0 DUP2 MLOAD DUP1 DUP5 MSTORE PUSH1 0x0 JUMPDEST DUP2 DUP2 LT ISZERO PUSH2 0xA2D JUMPI PUSH1 0x20 DUP2 DUP6 ADD DUP2 ADD MLOAD DUP7 DUP4 ADD DUP3 ADD MSTORE ADD PUSH2 0xA11 JUMP JUMPDEST POP PUSH1 0x0 PUSH1 0x20 DUP3 DUP7 ADD ADD MSTORE PUSH1 0x20 PUSH1 0x1F NOT PUSH1 0x1F DUP4 ADD AND DUP6 ADD ADD SWAP2 POP POP SWAP3 SWAP2 POP POP JUMP JUMPDEST PUSH1 0x20 DUP2 MSTORE PUSH1 0x0 PUSH2 0x32B PUSH1 0x20 DUP4 ADD DUP5 PUSH2 0xA07 JUMP JUMPDEST PUSH1 0x20 DUP1 DUP3 MSTORE DUP3 MLOAD DUP3 DUP3 ADD DUP2 SWAP1 MSTORE PUSH1 0x0 SWAP2 SWAP1 DUP5 DUP3 ADD SWAP1 PUSH1 0x40 DUP6 ADD SWAP1 DUP5 JUMPDEST DUP2 DUP2 LT ISZERO PUSH2 0xAA1 JUMPI DUP4 MLOAD PUSH1 0x1 PUSH1 0x1 PUSH1 0xA0 SHL SUB AND DUP4 MSTORE SWAP3 DUP5 ADD SWAP3 SWAP2 DUP5 ADD SWAP2 PUSH1 0x1 ADD PUSH2 0xA7C JUMP JUMPDEST POP SWAP1 SWAP7 SWAP6 POP POP POP POP POP POP JUMP JUMPDEST PUSH1 0x0 DUP1 DUP4 PUSH1 0x1F DUP5 ADD SLT PUSH2 0xABF JUMPI PUSH1 0x0 DUP1 REVERT JUMPDEST POP DUP2 CALLDATALOAD PUSH1 0x1 PUSH1 0x1 PUSH1 0x40 SHL SUB DUP2 GT ISZERO PUSH2 0xAD6 JUMPI PUSH1 0x0 DUP1 REVERT JUMPDEST PUSH1 0x20 DUP4 ADD SWAP2 POP DUP4 PUSH1 0x20 DUP3 PUSH1 0x5 SHL DUP6 ADD ADD GT ISZERO PUSH2 0x6C7 JUMPI PUSH1 0x0 DUP1 REVERT JUMPDEST PUSH1 0x0 DUP1 PUSH1 0x0 DUP1 PUSH1 0x0 DUP1 PUSH1 0x0 DUP1 PUSH1 0xA0 DUP10 DUP12 SUB SLT ISZERO PUSH2 0xB0D JUMPI PUSH1 0x0 DUP1 REVERT JUMPDEST DUP9 CALLDATALOAD PUSH2 0xB18 DUP2 PUSH2 0x66E JUMP JUMPDEST SWAP8 POP PUSH1 0x20 DUP10 ADD CALLDATALOAD PUSH2 0xB28 DUP2 PUSH2 0x66E JUMP JUMPDEST SWAP7 POP PUSH1 0x40 DUP10 ADD CALLDATALOAD PUSH1 0x1 PUSH1 0x1 PUSH1 0x40 SHL SUB DUP1 DUP3 GT ISZERO PUSH2 0xB44 JUMPI PUSH1 0x0 DUP1 REVERT JUMPDEST PUSH2 0xB50 DUP13 DUP4 DUP14 ADD PUSH2 0xAAD JUMP JUMPDEST SWAP1 SWAP9 POP SWAP7 POP PUSH1 0x60 DUP12 ADD CALLDATALOAD SWAP2 POP DUP1 DUP3 GT ISZERO PUSH2 0xB69 JUMPI PUSH1 0x0 DUP1 REVERT JUMPDEST PUSH2 0xB75 DUP13 DUP4 DUP14 ADD PUSH2 0xAAD JUMP JUMPDEST SWAP1 SWAP7 POP SWAP5 POP PUSH1 0x80 DUP12 ADD CALLDATALOAD SWAP2 POP DUP1 DUP3 GT ISZERO PUSH2 0x75D JUMPI PUSH1 0x0 DUP1 REVERT JUMPDEST PUSH1 0x0 DUP1 PUSH1 0x0 PUSH1 0x40 DUP5 DUP7 SUB SLT ISZERO PUSH2 0xBA3 JUMPI PUSH1 0x0 DUP1 REVERT JUMPDEST DUP4 CALLDATALOAD PUSH2 0xBAE DUP2 PUSH2 0x66E JUMP JUMPDEST SWAP3 POP PUSH1 0x20 DUP5 ADD CALLDATALOAD PUSH1 0x1 PUSH1 0x1 PUSH1 0x40 SHL SUB DUP2 GT ISZERO PUSH2 0x946 JUMPI PUSH1 0x0 DUP1 REVERT JUMPDEST PUSH1 0x0 DUP1 PUSH1 0x0 DUP1 PUSH1 0x0 DUP1 PUSH1 0xA0 DUP8 DUP10 SUB SLT ISZERO PUSH2 0xBE2 JUMPI PUSH1 0x0 DUP1 REVERT JUMPDEST DUP7 CALLDATALOAD PUSH2 0xBED DUP2 PUSH2 0x66E JUMP JUMPDEST SWAP6 POP PUSH1 0x20 DUP8 ADD CALLDATALOAD PUSH2 0xBFD DUP2 PUSH2 0x66E JUMP JUMPDEST SWAP5 POP PUSH1 0x40 DUP8 ADD CALLDATALOAD SWAP4 POP PUSH1 0x60 DUP8 ADD CALLDATALOAD SWAP3 POP PUSH1 0x80 DUP8 ADD CALLDATALOAD PUSH1 0x1 PUSH1 0x1 PUSH1 0x40 SHL SUB DUP2 GT ISZERO PUSH2 0xC26 JUMPI PUSH1 0x0 DUP1 REVERT JUMPDEST PUSH2 0xC32 DUP10 DUP3 DUP11 ADD PUSH2 0x686 JUMP JUMPDEST SWAP8 SWAP11 SWAP7 SWAP10 POP SWAP5 SWAP8 POP SWAP3 SWAP6 SWAP4 SWAP5 SWAP3 POP POP POP JUMP JUMPDEST PUSH1 0x40 DUP2 MSTORE PUSH1 0x0 PUSH2 0xC57 PUSH1 0x40 DUP4 ADD DUP7 PUSH2 0xA07 JUMP JUMPDEST DUP3 DUP2 SUB PUSH1 0x20 DUP5 ADD MSTORE DUP4 DUP2 MSTORE DUP4 DUP6 PUSH1 0x20 DUP4 ADD CALLDATACOPY PUSH1 0x0 PUSH1 0x20 DUP6 DUP4 ADD ADD MSTORE PUSH1 0x20 PUSH1 0x1F NOT PUSH1 0x1F DUP7 ADD AND DUP3 ADD ADD SWAP2 POP POP SWAP5 SWAP4 POP POP POP POP JUMP JUMPDEST PUSH1 0x0 PUSH1 0x20 DUP3 DUP5 SUB SLT ISZERO PUSH2 0xC9C JUMPI PUSH1 0x0 DUP1 REVERT JUMPDEST DUP2 MLOAD PUSH2 0x32B DUP2 PUSH2 0x77E JUMP JUMPDEST PUSH1 0x0 PUSH1 0x20 DUP3 DUP5 SUB SLT ISZERO PUSH2 0xCB9 JUMPI PUSH1 0x0 DUP1 REVERT JUMPDEST POP MLOAD SWAP2 SWAP1 POP JUMP JUMPDEST DUP4 DUP2 MSTORE PUSH1 0x60 PUSH1 0x20 DUP3 ADD MSTORE PUSH1 0x0 PUSH2 0xCD9 PUSH1 0x60 DUP4 ADD DUP6 PUSH2 0xA07 JUMP JUMPDEST DUP3 DUP2 SUB PUSH1 0x40 DUP5 ADD MSTORE PUSH2 0xCEB DUP2 DUP6 PUSH2 0xA07 JUMP JUMPDEST SWAP7 SWAP6 POP POP POP POP POP POP JUMP JUMPDEST DUP1 MLOAD PUSH2 0xD00 DUP2 PUSH2 0x66E JUMP JUMPDEST SWAP2 SWAP1 POP JUMP JUMPDEST PUSH1 0x0 DUP1 PUSH1 0x40 DUP4 DUP6 SUB SLT ISZERO PUSH2 0xD18 JUMPI PUSH1 0x0 DUP1 REVERT JUMPDEST DUP3 MLOAD PUSH1 0x1 PUSH1 0x1 PUSH1 0x40 SHL SUB DUP1 DUP3 GT ISZERO PUSH2 0xD2F JUMPI PUSH1 0x0 DUP1 REVERT JUMPDEST DUP2 DUP6 ADD SWAP2 POP DUP6 PUSH1 0x1F DUP4 ADD SLT PUSH2 0xD43 JUMPI PUSH1 0x0 DUP1 REVERT JUMPDEST DUP2 MLOAD PUSH1 0x20 DUP3 DUP3 GT ISZERO PUSH2 0xD57 JUMPI PUSH2 0xD57 PUSH2 0x7B1 JUMP JUMPDEST DUP2 PUSH1 0x5 SHL SWAP3 POP PUSH2 0xD68 DUP2 DUP5 ADD PUSH2 0x7C7 JUMP JUMPDEST DUP3 DUP2 MSTORE SWAP3 DUP5 ADD DUP2 ADD SWAP3 DUP2 DUP2 ADD SWAP1 DUP10 DUP6 GT ISZERO PUSH2 0xD82 JUMPI PUSH1 0x0 DUP1 REVERT JUMPDEST SWAP5 DUP3 ADD SWAP5 JUMPDEST DUP5 DUP7 LT ISZERO PUSH2 0xDAC JUMPI DUP6 MLOAD SWAP4 POP PUSH2 0xD9C DUP5 PUSH2 0x66E JUMP JUMPDEST DUP4 DUP3 MSTORE SWAP5 DUP3 ADD SWAP5 SWAP1 DUP3 ADD SWAP1 PUSH2 0xD87 JUMP JUMPDEST SWAP7 POP PUSH2 0xDBB SWAP1 POP DUP8 DUP3 ADD PUSH2 0xCF5 JUMP JUMPDEST SWAP5 POP POP POP POP POP SWAP3 POP SWAP3 SWAP1 POP JUMP INVALID LOG2 PUSH5 0x6970667358 0x22 SLT KECCAK256 0xE7 PUSH8 0xBD389AFC790344B0 0x25 0xF6 BLOCKHASH 0xB9 CREATE2 0xEF 0xE6 PUSH24 0xE1FB2429B37C469A30C2C9EAFCEF64736F6C634300081700 CALLER "},"gasEstimates":{"creation":{"codeDepositCost":"716400","executionCost":"747","totalCost":"717147"},"external":{"encodeMessageDataForSafe(address,bytes)":"infinite","getMessageHash(bytes)":"infinite","getMessageHashForSafe(address,bytes)":"infinite","getModules()":"infinite","isValidSignature(bytes,bytes)":"infinite","isValidSignature(bytes32,bytes)":"infinite","onERC1155BatchReceived(address,address,uint256[],uint256[],bytes)":"infinite","onERC1155Received(address,address,uint256,uint256,bytes)":"infinite","onERC721Received(address,address,uint256,bytes)":"infinite","simulate(address,bytes)":"infinite","supportsInterface(bytes4)":"533","tokensReceived(address,address,address,uint256,bytes,bytes)":"infinite"}},"methodIdentifiers":{"encodeMessageDataForSafe(address,bytes)":"23031640","getMessageHash(bytes)":"0a1028c4","getMessageHashForSafe(address,bytes)":"6ac24784","getModules()":"b2494df3","isValidSignature(bytes,bytes)":"20c13b0b","isValidSignature(bytes32,bytes)":"1626ba7e","onERC1155BatchReceived(address,address,uint256[],uint256[],bytes)":"bc197c81","onERC1155Received(address,address,uint256,uint256,bytes)":"f23a6e61","onERC721Received(address,address,uint256,bytes)":"150b7a02","simulate(address,bytes)":"bd61951d","supportsInterface(bytes4)":"01ffc9a7","tokensReceived(address,address,address,uint256,bytes,bytes)":"0023de29"}},"storageLayout":{"storage":[],"types":null},"userdoc":{"kind":"user","methods":{"isValidSignature(bytes,bytes)":{"notice":"Legacy EIP-1271 signature validation method."},"isValidSignature(bytes32,bytes)":{"notice":"Implementation of updated EIP-1271 signature validation method."},"onERC1155BatchReceived(address,address,uint256[],uint256[],bytes)":{"notice":"Handles ERC1155 Token batch callback. return Standardized onERC1155BatchReceived return value."},"onERC1155Received(address,address,uint256,uint256,bytes)":{"notice":"Handles ERC1155 Token callback. return Standardized onERC1155Received return value."},"onERC721Received(address,address,uint256,bytes)":{"notice":"Handles ERC721 Token callback.  return Standardized onERC721Received return value."},"supportsInterface(bytes4)":{"notice":"Implements ERC165 interface support for ERC1155TokenReceiver, ERC721TokenReceiver and IERC165."},"tokensReceived(address,address,address,uint256,bytes,bytes)":{"notice":"Handles ERC777 Token callback. return nothing (not standardized)"}},"version":1}}}}