{"@chainlink/contracts-ccip/src/v0.8/ccip/libraries/Client.sol":{"Client":{"abi":[{"inputs":[],"name":"EVM_EXTRA_ARGS_V1_TAG","outputs":[{"internalType":"bytes4","name":"","type":"bytes4"}],"stateMutability":"view","type":"function"}],"devdoc":{"kind":"dev","methods":{},"version":1},"evm":{"bytecode":{"linkReferences":{},"object":"6098610038600b82828239805160001a607314602b57634e487b7160e01b600052600060045260246000fd5b30600052607381538281f3fe730000000000000000000000000000000000000000301460806040526004361060335760003560e01c80633ab8c0d0146038575b600080fd5b60456397a657c960e01b81565b6040516001600160e01b0319909116815260200160405180910390f3fea2646970667358221220fa03968361da1166fbada50708d0771644f1a6167fbf3456ace1c49696ffb9dc64736f6c63430008170033","opcodes":"PUSH1 0x98 PUSH2 0x38 PUSH1 0xB DUP3 DUP3 DUP3 CODECOPY DUP1 MLOAD PUSH1 0x0 BYTE PUSH1 0x73 EQ PUSH1 0x2B JUMPI PUSH4 0x4E487B71 PUSH1 0xE0 SHL PUSH1 0x0 MSTORE PUSH1 0x0 PUSH1 0x4 MSTORE PUSH1 0x24 PUSH1 0x0 REVERT JUMPDEST ADDRESS PUSH1 0x0 MSTORE PUSH1 0x73 DUP2 MSTORE8 DUP3 DUP2 RETURN INVALID PUSH20 0x0 ADDRESS EQ PUSH1 0x80 PUSH1 0x40 MSTORE PUSH1 0x4 CALLDATASIZE LT PUSH1 0x33 JUMPI PUSH1 0x0 CALLDATALOAD PUSH1 0xE0 SHR DUP1 PUSH4 0x3AB8C0D0 EQ PUSH1 0x38 JUMPI JUMPDEST PUSH1 0x0 DUP1 REVERT JUMPDEST PUSH1 0x45 PUSH4 0x97A657C9 PUSH1 0xE0 SHL DUP2 JUMP JUMPDEST PUSH1 0x40 MLOAD PUSH1 0x1 PUSH1 0x1 PUSH1 0xE0 SHL SUB NOT SWAP1 SWAP2 AND DUP2 MSTORE PUSH1 0x20 ADD PUSH1 0x40 MLOAD DUP1 SWAP2 SUB SWAP1 RETURN INVALID LOG2 PUSH5 0x6970667358 0x22 SLT KECCAK256 STATICCALL SUB SWAP7 DUP4 PUSH2 0xDA11 PUSH7 0xFBADA50708D077 AND PREVRANDAO CALL 0xA6 AND PUSH32 0xBF3456ACE1C49696FFB9DC64736F6C6343000817003300000000000000000000 "},"gasEstimates":{"creation":{"codeDepositCost":"30400","executionCost":"115","totalCost":"30515"},"external":{"EVM_EXTRA_ARGS_V1_TAG()":"175"},"internal":{"_argsToBytes(struct Client.EVMExtraArgsV1 memory)":"infinite"}},"methodIdentifiers":{"EVM_EXTRA_ARGS_V1_TAG()":"3ab8c0d0"}},"storageLayout":{"storage":[],"types":null},"userdoc":{"kind":"user","methods":{},"version":1}}}}