{
  "_format": "hh-sol-artifact-1",
  "contractName": "CompatibilityFallbackHandler",
  "sourceName": "@safe-global/safe-contracts/contracts/handler/CompatibilityFallbackHandler.sol",
  "abi": [
    {
      "inputs": [
        {
          "internalType": "contract Safe",
          "name": "safe",
          "type": "address"
        },
        {
          "internalType": "bytes",
          "name": "message",
          "type": "bytes"
        }
      ],
      "name": "encodeMessageDataForSafe",
      "outputs": [
        {
          "internalType": "bytes",
          "name": "",
          "type": "bytes"
        }
      ],
      "stateMutability": "view",
      "type": "function"
    },
    {
      "inputs": [
        {
          "internalType": "bytes",
          "name": "message",
          "type": "bytes"
        }
      ],
      "name": "getMessageHash",
      "outputs": [
        {
          "internalType": "bytes32",
          "name": "",
          "type": "bytes32"
        }
      ],
      "stateMutability": "view",
      "type": "function"
    },
    {
      "inputs": [
        {
          "internalType": "contract Safe",
          "name": "safe",
          "type": "address"
        },
        {
          "internalType": "bytes",
          "name": "message",
          "type": "bytes"
        }
      ],
      "name": "getMessageHashForSafe",
      "outputs": [
        {
          "internalType": "bytes32",
          "name": "",
          "type": "bytes32"
        }
      ],
      "stateMutability": "view",
      "type": "function"
    },
    {
      "inputs": [],
      "name": "getModules",
      "outputs": [
        {
          "internalType": "address[]",
          "name": "",
          "type": "address[]"
        }
      ],
      "stateMutability": "view",
      "type": "function"
    },
    {
      "inputs": [
        {
          "internalType": "bytes32",
          "name": "_dataHash",
          "type": "bytes32"
        },
        {
          "internalType": "bytes",
          "name": "_signature",
          "type": "bytes"
        }
      ],
      "name": "isValidSignature",
      "outputs": [
        {
          "internalType": "bytes4",
          "name": "",
          "type": "bytes4"
        }
      ],
      "stateMutability": "view",
      "type": "function"
    },
    {
      "inputs": [
        {
          "internalType": "bytes",
          "name": "_data",
          "type": "bytes"
        },
        {
          "internalType": "bytes",
          "name": "_signature",
          "type": "bytes"
        }
      ],
      "name": "isValidSignature",
      "outputs": [
        {
          "internalType": "bytes4",
          "name": "",
          "type": "bytes4"
        }
      ],
      "stateMutability": "view",
      "type": "function"
    },
    {
      "inputs": [
        {
          "internalType": "address",
          "name": "",
          "type": "address"
        },
        {
          "internalType": "address",
          "name": "",
          "type": "address"
        },
        {
          "internalType": "uint256[]",
          "name": "",
          "type": "uint256[]"
        },
        {
          "internalType": "uint256[]",
          "name": "",
          "type": "uint256[]"
        },
        {
          "internalType": "bytes",
          "name": "",
          "type": "bytes"
        }
      ],
      "name": "onERC1155BatchReceived",
      "outputs": [
        {
          "internalType": "bytes4",
          "name": "",
          "type": "bytes4"
        }
      ],
      "stateMutability": "pure",
      "type": "function"
    },
    {
      "inputs": [
        {
          "internalType": "address",
          "name": "",
          "type": "address"
        },
        {
          "internalType": "address",
          "name": "",
          "type": "address"
        },
        {
          "internalType": "uint256",
          "name": "",
          "type": "uint256"
        },
        {
          "internalType": "uint256",
          "name": "",
          "type": "uint256"
        },
        {
          "internalType": "bytes",
          "name": "",
          "type": "bytes"
        }
      ],
      "name": "onERC1155Received",
      "outputs": [
        {
          "internalType": "bytes4",
          "name": "",
          "type": "bytes4"
        }
      ],
      "stateMutability": "pure",
      "type": "function"
    },
    {
      "inputs": [
        {
          "internalType": "address",
          "name": "",
          "type": "address"
        },
        {
          "internalType": "address",
          "name": "",
          "type": "address"
        },
        {
          "internalType": "uint256",
          "name": "",
          "type": "uint256"
        },
        {
          "internalType": "bytes",
          "name": "",
          "type": "bytes"
        }
      ],
      "name": "onERC721Received",
      "outputs": [
        {
          "internalType": "bytes4",
          "name": "",
          "type": "bytes4"
        }
      ],
      "stateMutability": "pure",
      "type": "function"
    },
    {
      "inputs": [
        {
          "internalType": "address",
          "name": "targetContract",
          "type": "address"
        },
        {
          "internalType": "bytes",
          "name": "calldataPayload",
          "type": "bytes"
        }
      ],
      "name": "simulate",
      "outputs": [
        {
          "internalType": "bytes",
          "name": "response",
          "type": "bytes"
        }
      ],
      "stateMutability": "nonpayable",
      "type": "function"
    },
    {
      "inputs": [
        {
          "internalType": "bytes4",
          "name": "interfaceId",
          "type": "bytes4"
        }
      ],
      "name": "supportsInterface",
      "outputs": [
        {
          "internalType": "bool",
          "name": "",
          "type": "bool"
        }
      ],
      "stateMutability": "view",
      "type": "function"
    },
    {
      "inputs": [
        {
          "internalType": "address",
          "name": "",
          "type": "address"
        },
        {
          "internalType": "address",
          "name": "",
          "type": "address"
        },
        {
          "internalType": "address",
          "name": "",
          "type": "address"
        },
        {
          "internalType": "uint256",
          "name": "",
          "type": "uint256"
        },
        {
          "internalType": "bytes",
          "name": "",
          "type": "bytes"
        },
        {
          "internalType": "bytes",
          "name": "",
          "type": "bytes"
        }
      ],
      "name": "tokensReceived",
      "outputs": [],
      "stateMutability": "pure",
      "type": "function"
    }
  ],
  "bytecode": "0x608060405234801561001057600080fd5b50610dfe806100206000396000f3fe608060405234801561001057600080fd5b50600436106100b35760003560e01c8063230316401161007157806323031640146101795780636ac2478414610199578063b2494df3146101ac578063bc197c81146101c1578063bd61951d146101e3578063f23a6e61146101f657600080fd5b806223de29146100b857806301ffc9a7146100d25780630a1028c4146100fa578063150b7a021461011b5780631626ba7e1461015357806320c13b0b14610166575b600080fd5b6100d06100c63660046106ce565b5050505050505050565b005b6100e56100e0366004610794565b610216565b60405190151581526020015b60405180910390f35b61010d610108366004610866565b610268565b6040519081526020016100f1565b61013a6101293660046108a2565b630a85bd0160e11b95945050505050565b6040516001600160e01b031990911681526020016100f1565b61013a610161366004610914565b610274565b61013a61017436600461095f565b610332565b61018c6101873660046109c2565b61047c565b6040516100f19190610a4d565b61010d6101a73660046109c2565b61058e565b6101b46105a9565b6040516100f19190610a60565b61013a6101cf366004610af1565b63bc197c8160e01b98975050505050505050565b61018c6101f1366004610b8e565b610624565b61013a610204366004610bc9565b63f23a6e6160e01b9695505050505050565b60006001600160e01b03198216630271189760e51b148061024757506001600160e01b03198216630a85bd0160e11b145b8061026257506001600160e01b031982166301ffc9a760e01b145b92915050565b6000610262338361058e565b60408051602080820186905282518083039091018152818301928390526320c13b0b60e01b9092526000913391839183916320c13b0b916102bb9189908990604401610c44565b602060405180830381865afa1580156102d8573d6000803e3d6000fd5b505050506040513d601f19601f820116820180604052508101906102fc9190610c8a565b90506001600160e01b031981166320c13b0b60e01b1461031d576000610326565b630b135d3f60e11b5b925050505b9392505050565b60003381610340828661047c565b8051602082012085519192509060000361040957604051635ae6bd3760e01b8152600481018290526001600160a01b03841690635ae6bd3790602401602060405180830381865afa158015610399573d6000803e3d6000fd5b505050506040513d601f19601f820116820180604052508101906103bd9190610ca7565b6000036104045760405162461bcd60e51b815260206004820152601160248201527012185cda081b9bdd08185c1c1c9bdd9959607a1b604482015260640160405180910390fd5b61046a565b60405163934f3a1160e01b81526001600160a01b0384169063934f3a119061043990849086908a90600401610cc0565b60006040518083038186803b15801561045157600080fd5b505afa158015610465573d6000803e3d6000fd5b505050505b506320c13b0b60e01b95945050505050565b606060007f60b3cbf8b4a223d68d641b3b6ddf9a298e7f33710cf3d3a9d1146b5a6150fbca60001b83805190602001206040516020016104c6929190918252602082015260400190565b604051602081830303815290604052805190602001209050601960f81b600160f81b856001600160a01b031663f698da256040518163ffffffff1660e01b8152600401602060405180830381865afa158015610526573d6000803e3d6000fd5b505050506040513d601f19601f8201168201806040525081019061054a9190610ca7565b6040516001600160f81b0319938416602082015292909116602183015260228201526042810182905260620160405160208183030381529060405291505092915050565b600061059a838361047c565b80519060200120905092915050565b604051636617c22960e11b815260016004820152600a60248201526060903390600090829063cc2f845290604401600060405180830381865afa1580156105f4573d6000803e3d6000fd5b505050506040513d6000823e601f3d908101601f1916820160405261061c9190810190610d05565b509392505050565b606060405163b4faba0960e01b8152600436036004808301376020600036836000335af1505060203d036040519150808201604052806020833e5060005161032b57805160208201fd5b6001600160a01b038116811461068357600080fd5b50565b60008083601f84011261069857600080fd5b5081356001600160401b038111156106af57600080fd5b6020830191508360208285010111156106c757600080fd5b9250929050565b60008060008060008060008060c0898b0312156106ea57600080fd5b88356106f58161066e565b975060208901356107058161066e565b965060408901356107158161066e565b95506060890135945060808901356001600160401b038082111561073857600080fd5b6107448c838d01610686565b909650945060a08b013591508082111561075d57600080fd5b5061076a8b828c01610686565b999c989b5096995094979396929594505050565b6001600160e01b03198116811461068357600080fd5b6000602082840312156107a657600080fd5b813561032b8161077e565b634e487b7160e01b600052604160045260246000fd5b604051601f8201601f191681016001600160401b03811182821017156107ef576107ef6107b1565b604052919050565b600082601f83011261080857600080fd5b81356001600160401b03811115610821576108216107b1565b610834601f8201601f19166020016107c7565b81815284602083860101111561084957600080fd5b816020850160208301376000918101602001919091529392505050565b60006020828403121561087857600080fd5b81356001600160401b0381111561088e57600080fd5b61089a848285016107f7565b949350505050565b6000806000806000608086880312156108ba57600080fd5b85356108c58161066e565b945060208601356108d58161066e565b93506040860135925060608601356001600160401b038111156108f757600080fd5b61090388828901610686565b969995985093965092949392505050565b60008060006040848603121561092957600080fd5b8335925060208401356001600160401b0381111561094657600080fd5b61095286828701610686565b9497909650939450505050565b6000806040838503121561097257600080fd5b82356001600160401b038082111561098957600080fd5b610995868387016107f7565b935060208501359150808211156109ab57600080fd5b506109b8858286016107f7565b9150509250929050565b600080604083850312156109d557600080fd5b82356109e08161066e565b915060208301356001600160401b038111156109fb57600080fd5b6109b8858286016107f7565b6000815180845260005b81811015610a2d57602081850181015186830182015201610a11565b506000602082860101526020601f19601f83011685010191505092915050565b60208152600061032b6020830184610a07565b6020808252825182820181905260009190848201906040850190845b81811015610aa15783516001600160a01b031683529284019291840191600101610a7c565b50909695505050505050565b60008083601f840112610abf57600080fd5b5081356001600160401b03811115610ad657600080fd5b6020830191508360208260051b85010111156106c757600080fd5b60008060008060008060008060a0898b031215610b0d57600080fd5b8835610b188161066e565b97506020890135610b288161066e565b965060408901356001600160401b0380821115610b4457600080fd5b610b508c838d01610aad565b909850965060608b0135915080821115610b6957600080fd5b610b758c838d01610aad565b909650945060808b013591508082111561075d57600080fd5b600080600060408486031215610ba357600080fd5b8335610bae8161066e565b925060208401356001600160401b0381111561094657600080fd5b60008060008060008060a08789031215610be257600080fd5b8635610bed8161066e565b95506020870135610bfd8161066e565b9450604087013593506060870135925060808701356001600160401b03811115610c2657600080fd5b610c3289828a01610686565b979a9699509497509295939492505050565b604081526000610c576040830186610a07565b8281036020840152838152838560208301376000602085830101526020601f19601f860116820101915050949350505050565b600060208284031215610c9c57600080fd5b815161032b8161077e565b600060208284031215610cb957600080fd5b5051919050565b838152606060208201526000610cd96060830185610a07565b8281036040840152610ceb8185610a07565b9695505050505050565b8051610d008161066e565b919050565b60008060408385031215610d1857600080fd5b82516001600160401b0380821115610d2f57600080fd5b818501915085601f830112610d4357600080fd5b8151602082821115610d5757610d576107b1565b8160051b9250610d688184016107c7565b8281529284018101928181019089851115610d8257600080fd5b948201945b84861015610dac5785519350610d9c8461066e565b8382529482019490820190610d87565b9650610dbb9050878201610cf5565b945050505050925092905056fea2646970667358221220e767bd389afc790344b025f640b9f5efe677e1fb2429b37c469a30c2c9eafcef64736f6c63430008170033",
  "linkReferences": {},
  "deployedLinkReferences": {}
}