{
  "_format": "hh-sol-artifact-1",
  "contractName": "OmnaccountModule",
  "sourceName": "contracts/OmnaccountModule.sol",
  "abi": [
    {
      "inputs": [
        {
          "internalType": "address",
          "name": "_spokePool",
          "type": "address"
        }
      ],
      "stateMutability": "nonpayable",
      "type": "constructor"
    },
    {
      "inputs": [],
      "name": "InvalidBridge",
      "type": "error"
    },
    {
      "inputs": [],
      "name": "InvalidEntryPoint",
      "type": "error"
    },
    {
      "inputs": [
        {
          "internalType": "address",
          "name": "safe",
          "type": "address"
        }
      ],
      "name": "ModuleNotEnabled",
      "type": "error"
    },
    {
      "anonymous": false,
      "inputs": [
        {
          "indexed": true,
          "internalType": "bytes32",
          "name": "metadataHash",
          "type": "bytes32"
        },
        {
          "indexed": false,
          "internalType": "bytes",
          "name": "data",
          "type": "bytes"
        }
      ],
      "name": "Metadata",
      "type": "event"
    },
    {
      "anonymous": false,
      "inputs": [
        {
          "indexed": true,
          "internalType": "address",
          "name": "safe",
          "type": "address"
        },
        {
          "indexed": true,
          "internalType": "address",
          "name": "token",
          "type": "address"
        },
        {
          "components": [
            {
              "internalType": "address",
              "name": "target",
              "type": "address"
            },
            {
              "internalType": "bytes4",
              "name": "selector",
              "type": "bytes4"
            },
            {
              "internalType": "uint96",
              "name": "tokenAddressIndex",
              "type": "uint96"
            },
            {
              "internalType": "uint96",
              "name": "amountIndex",
              "type": "uint96"
            },
            {
              "internalType": "uint96",
              "name": "vaultAddressIndex",
              "type": "uint96"
            },
            {
              "internalType": "bytes",
              "name": "data",
              "type": "bytes"
            }
          ],
          "indexed": false,
          "internalType": "struct TokenFallback.FallbackData",
          "name": "fallbackData",
          "type": "tuple"
        }
      ],
      "name": "TokenFallbackAdded",
      "type": "event"
    },
    {
      "anonymous": false,
      "inputs": [
        {
          "indexed": true,
          "internalType": "address",
          "name": "safe",
          "type": "address"
        },
        {
          "indexed": true,
          "internalType": "address",
          "name": "token",
          "type": "address"
        }
      ],
      "name": "TokenFallbackRemoved",
      "type": "event"
    },
    {
      "inputs": [
        {
          "internalType": "address",
          "name": "safe",
          "type": "address"
        },
        {
          "internalType": "address",
          "name": "token",
          "type": "address"
        }
      ],
      "name": "bridgeFallbacks",
      "outputs": [
        {
          "internalType": "address",
          "name": "target",
          "type": "address"
        },
        {
          "internalType": "bytes4",
          "name": "selector",
          "type": "bytes4"
        },
        {
          "internalType": "uint96",
          "name": "tokenAddressIndex",
          "type": "uint96"
        },
        {
          "internalType": "uint96",
          "name": "amountIndex",
          "type": "uint96"
        },
        {
          "internalType": "uint96",
          "name": "vaultAddressIndex",
          "type": "uint96"
        },
        {
          "internalType": "bytes",
          "name": "data",
          "type": "bytes"
        }
      ],
      "stateMutability": "view",
      "type": "function"
    },
    {
      "inputs": [
        {
          "internalType": "address",
          "name": "safe",
          "type": "address"
        },
        {
          "internalType": "address",
          "name": "token",
          "type": "address"
        }
      ],
      "name": "getFallback",
      "outputs": [
        {
          "internalType": "bool",
          "name": "exists",
          "type": "bool"
        },
        {
          "components": [
            {
              "internalType": "address",
              "name": "target",
              "type": "address"
            },
            {
              "internalType": "bytes4",
              "name": "selector",
              "type": "bytes4"
            },
            {
              "internalType": "uint96",
              "name": "tokenAddressIndex",
              "type": "uint96"
            },
            {
              "internalType": "uint96",
              "name": "amountIndex",
              "type": "uint96"
            },
            {
              "internalType": "uint96",
              "name": "vaultAddressIndex",
              "type": "uint96"
            },
            {
              "internalType": "bytes",
              "name": "data",
              "type": "bytes"
            }
          ],
          "internalType": "struct TokenFallback.FallbackData",
          "name": "fallbackData",
          "type": "tuple"
        }
      ],
      "stateMutability": "view",
      "type": "function"
    },
    {
      "inputs": [],
      "name": "metadataHash",
      "outputs": [
        {
          "internalType": "bytes32",
          "name": "",
          "type": "bytes32"
        }
      ],
      "stateMutability": "view",
      "type": "function"
    },
    {
      "inputs": [],
      "name": "metadataProvider",
      "outputs": [
        {
          "internalType": "uint256",
          "name": "providerType",
          "type": "uint256"
        },
        {
          "internalType": "bytes",
          "name": "location",
          "type": "bytes"
        }
      ],
      "stateMutability": "view",
      "type": "function"
    },
    {
      "inputs": [],
      "name": "name",
      "outputs": [
        {
          "internalType": "string",
          "name": "",
          "type": "string"
        }
      ],
      "stateMutability": "view",
      "type": "function"
    },
    {
      "inputs": [
        {
          "internalType": "address",
          "name": "token",
          "type": "address"
        }
      ],
      "name": "removeTokenFallback",
      "outputs": [],
      "stateMutability": "nonpayable",
      "type": "function"
    },
    {
      "inputs": [],
      "name": "requiresPermissions",
      "outputs": [
        {
          "internalType": "uint8",
          "name": "permissions",
          "type": "uint8"
        }
      ],
      "stateMutability": "view",
      "type": "function"
    },
    {
      "inputs": [],
      "name": "requiresRootAccess",
      "outputs": [
        {
          "internalType": "bool",
          "name": "",
          "type": "bool"
        }
      ],
      "stateMutability": "view",
      "type": "function"
    },
    {
      "inputs": [
        {
          "internalType": "address",
          "name": "tokenIn",
          "type": "address"
        },
        {
          "internalType": "address",
          "name": "tokenOut",
          "type": "address"
        },
        {
          "internalType": "uint256",
          "name": "amountIn",
          "type": "uint256"
        },
        {
          "internalType": "uint256",
          "name": "amountOut",
          "type": "uint256"
        },
        {
          "internalType": "uint96",
          "name": "destinationChainId",
          "type": "uint96"
        },
        {
          "internalType": "bytes",
          "name": "message",
          "type": "bytes"
        }
      ],
      "name": "sendAcrossTransaction",
      "outputs": [],
      "stateMutability": "nonpayable",
      "type": "function"
    },
    {
      "inputs": [
        {
          "internalType": "address",
          "name": "token",
          "type": "address"
        },
        {
          "components": [
            {
              "internalType": "address",
              "name": "target",
              "type": "address"
            },
            {
              "internalType": "bytes4",
              "name": "selector",
              "type": "bytes4"
            },
            {
              "internalType": "uint96",
              "name": "tokenAddressIndex",
              "type": "uint96"
            },
            {
              "internalType": "uint96",
              "name": "amountIndex",
              "type": "uint96"
            },
            {
              "internalType": "uint96",
              "name": "vaultAddressIndex",
              "type": "uint96"
            },
            {
              "internalType": "bytes",
              "name": "data",
              "type": "bytes"
            }
          ],
          "internalType": "struct TokenFallback.FallbackData",
          "name": "fallbackData",
          "type": "tuple"
        }
      ],
      "name": "setTokenFallback",
      "outputs": [],
      "stateMutability": "nonpayable",
      "type": "function"
    },
    {
      "inputs": [],
      "name": "spokePool",
      "outputs": [
        {
          "internalType": "contract V3SpokePoolInterface",
          "name": "",
          "type": "address"
        }
      ],
      "stateMutability": "view",
      "type": "function"
    },
    {
      "inputs": [
        {
          "internalType": "bytes4",
          "name": "interfaceId",
          "type": "bytes4"
        }
      ],
      "name": "supportsInterface",
      "outputs": [
        {
          "internalType": "bool",
          "name": "",
          "type": "bool"
        }
      ],
      "stateMutability": "view",
      "type": "function"
    },
    {
      "inputs": [],
      "name": "version",
      "outputs": [
        {
          "internalType": "string",
          "name": "",
          "type": "string"
        }
      ],
      "stateMutability": "view",
      "type": "function"
    }
  ],
  "bytecode": "0x60c06040523480156200001157600080fd5b506040516200176e3803806200176e8339810160408190526200003491620001cb565b6040805160e081018252600d60a082019081526c4163726f73732042726964676560981b60c083015281528151808301835260058152640312e302e360dc1b6020808301919091528083019190915260008284018190528351808301855281815260608401528351918201909352828152608082015281546001600160a01b0319166001600160a01b0384161790915580518291908190600190620000da9082620002a4565b506020810151600290620000ef9082620002a4565b5060408101511515608052620001058162000160565b805160209091012060a081905290507f522c683f99251eea7f3b027592e92a5398e7582983be1f7c0f33715ce025740f620001408362000160565b6040516200014f9190620003c4565b60405180910390a250505062000481565b60606000808360000151846020015185604001518660600151876080015160405160200162000194959493929190620003d9565b60408051601f1981840301815290829052620001b593929160200162000442565b6040516020818303038152906040529050919050565b600060208284031215620001de57600080fd5b81516001600160a01b0381168114620001f657600080fd5b9392505050565b634e487b7160e01b600052604160045260246000fd5b600181811c908216806200022857607f821691505b6020821081036200024957634e487b7160e01b600052602260045260246000fd5b50919050565b601f8211156200029f576000816000526020600020601f850160051c810160208610156200027a5750805b601f850160051c820191505b818110156200029b5782815560010162000286565b5050505b505050565b81516001600160401b03811115620002c057620002c0620001fd565b620002d881620002d1845462000213565b846200024f565b602080601f831160018114620003105760008415620002f75750858301515b600019600386901b1c1916600185901b1785556200029b565b600085815260208120601f198616915b82811015620003415788860151825594840194600190910190840162000320565b5085821015620003605787850151600019600388901b60f8161c191681555b5050505050600190811b01905550565b60005b838110156200038d57818101518382015260200162000373565b50506000910152565b60008151808452620003b081602086016020860162000370565b601f01601f19169290920160200192915050565b602081526000620001f6602083018462000396565b60a081526000620003ee60a083018862000396565b828103602084015262000402818862000396565b90508515156040840152828103606084015262000420818662000396565b9050828103608084015262000436818562000396565b98975050505050505050565b600060ff60f81b808660f81b168352808560f81b1660018401525082516200047281600285016020870162000370565b91909101600201949350505050565b60805160a0516112c7620004a760003960006101bd0152600061019601526112c76000f3fe608060405234801561001057600080fd5b50600436106100cf5760003560e01c8063afdac3d61161008c578063d3d72d2a11610066578063d3d72d2a146101ed578063e3009e8314610224578063e8e755b514610237578063f68292ad1461024657600080fd5b8063afdac3d614610166578063be193d2714610191578063c5a1d7f0146101b857600080fd5b806301ffc9a7146100d457806306fdde03146100fc57806354fd4d501461011157806375127fb7146101195780637c4b7eff1461012e5780639bfe94ad14610153575b600080fd5b6100e76100e2366004610bd5565b610267565b60405190151581526020015b60405180910390f35b610104610292565b6040516100f39190610c3d565b610104610320565b61012c610127366004610c67565b61032d565b005b61014161013c366004610c82565b61045d565b6040516100f396959493929190610cb5565b61012c610161366004610d9b565b610545565b600054610179906001600160a01b031681565b6040516001600160a01b0390911681526020016100f3565b6100e77f000000000000000000000000000000000000000000000000000000000000000081565b6101df7f000000000000000000000000000000000000000000000000000000000000000081565b6040519081526020016100f3565b610216604080513060208201526003916060910160405160208183030381529060405290509091565b6040516100f3929190610ec4565b61012c610232366004610ee5565b6106dc565b604051600481526020016100f3565b610259610254366004610c82565b61099b565b6040516100f3929190611006565b60006001600160e01b0319821663186e79b760e01b148061028c575061028c82610b2c565b92915050565b6001805461029f90611021565b80601f01602080910402602001604051908101604052809291908181526020018280546102cb90611021565b80156103185780601f106102ed57610100808354040283529160200191610318565b820191906000526020600020905b8154815290600101906020018083116102fb57829003601f168201915b505050505081565b6002805461029f90611021565b604051632d9ad53d60e01b815230600482015233908190632d9ad53d90602401602060405180830381865afa15801561036a573d6000803e3d6000fd5b505050506040513d601f19601f8201168201806040525081019061038e919061105b565b6103bb576040516321ac7c5f60e01b81526001600160a01b03821660048201526024015b60405180910390fd5b6001600160a01b038082166000908152600360208181526040808420948716845293905291812080546001600160c01b0319908116825560018201805490911690556002810180546bffffffffffffffffffffffff191690559161042190830182610b62565b50506040516001600160a01b0383169033907f237b62eb37e513a17c3dd12eb9ba853ff0a371507545ec8fe992b0eb5ba9dfcf90600090a35050565b6003602081815260009384526040808520909152918352912080546001820154600283015493830180546001600160a01b03841695600160a01b90940460e01b946001600160601b0380851695600160601b909504811694169290916104c290611021565b80601f01602080910402602001604051908101604052809291908181526020018280546104ee90611021565b801561053b5780601f106105105761010080835404028352916020019161053b565b820191906000526020600020905b81548152906001019060200180831161051e57829003601f168201915b5050505050905086565b604051632d9ad53d60e01b815230600482015233908190632d9ad53d90602401602060405180830381865afa158015610582573d6000803e3d6000fd5b505050506040513d601f19601f820116820180604052508101906105a6919061105b565b6105ce576040516321ac7c5f60e01b81526001600160a01b03821660048201526024016103b2565b6001600160a01b0380821660009081526003602081815260408084208886168552825292839020865181549288015160e01c600160a01b026001600160c01b031993841691909616179490941784559185015160018401805460608801516001600160601b03908116600160601b0291909516928516929092179190911790556080850151600284018054919093166bffffffffffffffffffffffff19919091161790915560a084015184929182019061068890826110ce565b50905050826001600160a01b0316336001600160a01b03167f586b844377fcdb78b96fedb28fd4c263c91c755f4cf08c528d2be63ec2742ca7846040516106cf919061118e565b60405180910390a3505050565b6040516370a0823160e01b8152306004820152879086906001600160a01b038316906370a0823190602401602060405180830381865afa158015610724573d6000803e3d6000fd5b505050506040513d601f19601f8201168201806040525081019061074891906111a1565b10156107a15760405162461bcd60e51b815260206004820152602260248201527f4163726f737353656e6465723a20496e73756666696369656e742062616c616e604482015261636560f01b60648201526084016103b2565b600054604051636eb1769f60e11b81523060048201526001600160a01b039182166024820152879183169063dd62ed3e90604401602060405180830381865afa1580156107f2573d6000803e3d6000fd5b505050506040513d601f19601f8201168201806040525081019061081691906111a1565b10156108995760005460405163095ea7b360e01b81526001600160a01b039182166004820152602481018890529082169063095ea7b3906044016020604051808303816000875af115801561086f573d6000803e3d6000fd5b505050506040513d601f19601f82011682018060405250810190610893919061105b565b506108fb565b8515806108a4575084155b156108fb5760405162461bcd60e51b815260206004820152602160248201527f4163726f737353656e6465723a20496e76616c6964207377617020616d6f756e6044820152601d60fa1b60648201526084016103b2565b600080546001600160a01b031690637b93923290309081908c908c908c908c906001600160601b038d16904261093381610e106111ba565b60008f8f6040518e63ffffffff1660e01b815260040161095f9d9c9b9a99989796959493929190611204565b600060405180830381600087803b15801561097957600080fd5b505af115801561098d573d6000803e3d6000fd5b505050505050505050505050565b6040805160c0810182526000808252602080830182905282840182905260608084018390526080840183905260a08401526001600160a01b03868116835260038252848320908616835290529190912054600160a01b900460e01b6001600160e01b0319161580159190610b25576001600160a01b0384811660009081526003602081815260408084208886168552825292839020835160c08101855281549586168152600160a01b90950460e01b6001600160e01b0319169185019190915260018101546001600160601b0380821694860194909452600160601b900483166060850152600281015490921660808401528101805460a084019190610aa090611021565b80601f0160208091040260200160405190810160405280929190818152602001828054610acc90611021565b8015610b195780601f10610aee57610100808354040283529160200191610b19565b820191906000526020600020905b815481529060010190602001808311610afc57829003601f168201915b50505050508152505090505b9250929050565b60006001600160e01b03198216631a4c3af360e21b148061028c57506001600160e01b031982166301ffc9a760e01b1492915050565b508054610b6e90611021565b6000825580601f10610b7e575050565b601f016020900490600052602060002090810190610b9c9190610b9f565b50565b5b80821115610bb45760008155600101610ba0565b5090565b80356001600160e01b031981168114610bd057600080fd5b919050565b600060208284031215610be757600080fd5b610bf082610bb8565b9392505050565b6000815180845260005b81811015610c1d57602081850181015186830182015201610c01565b506000602082860101526020601f19601f83011685010191505092915050565b602081526000610bf06020830184610bf7565b80356001600160a01b0381168114610bd057600080fd5b600060208284031215610c7957600080fd5b610bf082610c50565b60008060408385031215610c9557600080fd5b610c9e83610c50565b9150610cac60208401610c50565b90509250929050565b6001600160a01b03871681526001600160e01b0319861660208201526001600160601b03858116604083015284811660608301528316608082015260c060a08201819052600090610d0890830184610bf7565b98975050505050505050565b634e487b7160e01b600052604160045260246000fd5b60405160c0810167ffffffffffffffff81118282101715610d4d57610d4d610d14565b60405290565b604051601f8201601f1916810167ffffffffffffffff81118282101715610d7c57610d7c610d14565b604052919050565b80356001600160601b0381168114610bd057600080fd5b60008060408385031215610dae57600080fd5b610db783610c50565b915060208084013567ffffffffffffffff80821115610dd557600080fd5b9085019060c08288031215610de957600080fd5b610df1610d2a565b610dfa83610c50565b8152610e07848401610bb8565b84820152610e1760408401610d84565b6040820152610e2860608401610d84565b6060820152610e3960808401610d84565b608082015260a083013582811115610e5057600080fd5b80840193505087601f840112610e6557600080fd5b823582811115610e7757610e77610d14565b610e89601f8201601f19168601610d53565b92508083528885828601011115610e9f57600080fd5b80858501868501376000858285010152508160a0820152809450505050509250929050565b828152604060208201526000610edd6040830184610bf7565b949350505050565b600080600080600080600060c0888a031215610f0057600080fd5b610f0988610c50565b9650610f1760208901610c50565b95506040880135945060608801359350610f3360808901610d84565b925060a088013567ffffffffffffffff80821115610f5057600080fd5b818a0191508a601f830112610f6457600080fd5b813581811115610f7357600080fd5b8b6020828501011115610f8557600080fd5b60208301945080935050505092959891949750929550565b60018060a01b03815116825263ffffffff60e01b6020820151166020830152600060408201516001600160601b038082166040860152806060850151166060860152806080850151166080860152505060a082015160c060a0850152610edd60c0850182610bf7565b8215158152604060208201526000610edd6040830184610f9d565b600181811c9082168061103557607f821691505b60208210810361105557634e487b7160e01b600052602260045260246000fd5b50919050565b60006020828403121561106d57600080fd5b81518015158114610bf057600080fd5b601f8211156110c9576000816000526020600020601f850160051c810160208610156110a65750805b601f850160051c820191505b818110156110c5578281556001016110b2565b5050505b505050565b815167ffffffffffffffff8111156110e8576110e8610d14565b6110fc816110f68454611021565b8461107d565b602080601f83116001811461113157600084156111195750858301515b600019600386901b1c1916600185901b1785556110c5565b600085815260208120601f198616915b8281101561116057888601518255948401946001909101908401611141565b508582101561117e5787850151600019600388901b60f8161c191681555b5050505050600190811b01905550565b602081526000610bf06020830184610f9d565b6000602082840312156111b357600080fd5b5051919050565b8082018082111561028c57634e487b7160e01b600052601160045260246000fd5b81835281816020850137506000828201602090810191909152601f909101601f19169091010190565b6001600160a01b038e811682528d811660208301528c811660408301528b81166060830152608082018b905260a082018a905260c08201899052871660e082015263ffffffff8681166101008301528581166101208301528416610140820152610180610160820152600061127e610180830184866111db565b9f9e50505050505050505050505050505056fea264697066735822122085bc2982c6fa8878f48e758ce8d747e9de471a4d17c381c7508e7bf4fc80873864736f6c63430008170033",
  "linkReferences": {},
  "deployedLinkReferences": {}
}